S01F0000534C53544B33343030415F7370616365696E7661646572732E73333775
S11300000020002055010000810100008101000052
S113001081010000810100008101000081010000D4
S113002081010000810100008101000081010000C4
S113003081010000800100008101000061360000A0
S113004081010000B53E0000810100008101000033
S11300508101000081010000C33E00008101000015
S11300608101000081010000810100008101000084
S11300708101000081010000810100008101000074
S11300808101000081010000810100008101000064
S11300908101000010B5064C2378002B07D1054BD5
S11300A0002B02D0044800E000BF0123237010BDE0
S11300B0C800002000000000CC6A0000044B10B50A
S11300C0002B03D00349044800E000BF10BDC04624
S11300D000000000CC000020CC6A0000164B002B6E
S11300E000D1144B9D46402292029A1A9246002156
S11300F08B460F461348144A121A04F0A0FA0F4B09
S1130100002B00D098470E4B002B00D098470020BE
S1130110002104000D000D48002802D00C4800E026
S113012000BF04F05FFA2000290003F0A1FA04F0F4
S113013043FAC04600000800002000200000000030
S113014000000000C8000020DC0A002000000000BD
S113015000000000064880470649074A074B9B1ADF
S113016003DD043BC858D050FBDCFFF7B7FF0000A9
S1130170C9020000D86A000000000020C800002066
S1130180FEE7C04680B582B000AF00F01FF8030060
S11301907B60084B5B680F2213407A68DA401300D7
S11301A07B60054B7A681A607B681800BD4602B014
S11301B080BDC04600800C400800002080B500AF20
S11301C0014B1800BD4680BD00366E0180B582B07B
S11301D000AF334BDB6A334A13408022520193420F
S11301E015D080225201934204D8802212019342F6
S11301F011D017E080229201934204D08022D204CD
S113020093420CD00EE0284B1B687B6039E08023BE
S11302101B027B6035E0254B1B687B6031E0244B7F
S11302207B602EE01E4BDA68E023DB001340802263
S11302309200934218D080229200934206D8002B59
S113024018D080225200934211D016E0C0229200AE
S1130250934206D08022D20093420ED1154B7B608C
S11302600EE0154B7B600BE0144B7B6008E0144BF5
S11302707B6005E0134B7B6002E000237B60C0469B
S1130280C046074B1B689B0B072213400133190020
S1130290786803F0D3FF03001800BD4602B080BDA8
S11302A000800C40003C00040400002000000020FA
S11302B000366E01406F4001809FD500C0D8A70072
S11302C040B56400804F120080B500AF024B034A72
S11302D09A60C046BD4680BD00ED00E0000000000D
S11302E080B500AF80231B021800BD4680BD80B5D9
S11302F000AFFA239B001800BD4680BD80B500AF57
S1130300024B1B681800BD4680BDC0460400002097
S113031080B582B000AF114B7B60114B1B7801227A
S11303205340DBB2002B14D00D4B01221A700CE0A9
S11303307B681B68984703003B603B68002B01D037
S11303403B6807E07B6804337B607B681B68002B99
S1130350EED100231800BD4602B080BD0C00002081
S11303601001002080B584B000AF78603960104B74
S11303701B7801225340DBB2002B02D00D4BFB60F3
S113038011E07B68002B0CDC7B682C225A430A4B5F
S1130390D1183B682C22180004F048F90023FB60B4
S11303A001E0064BFB60FB681800BD4604B080BD4D
S11303B01001002005001180E400002002001180DB
S11303C080B584B000AF7860124B1B780122534093
S11303D0DBB2002B02D0104BFB6016E00F4B1B6806
S11303E0002B10DC0D4B1B68591C0C4A11602C228D
S11303F05A430B4BD31879682C22180004F016F9D1
S11304000023FB6001E0074BFB60FB681800BD465E
S113041004B080BD100100200500118014010020EB
S1130420E40000200100118080B58CB000AF00F022
S113043061FA00F0FBF900F079FA002300220C21A4
S1130440042000F085FA002300220A21042000F091
S11304507FFA002300220A21002000F079FA002309
S113046000220821002000F073FA00230022032157
S1130470052000F06DFA40220321052000F0B4FAB3
S11304800300FB62FB6A002B01D0FB6A35E03B00F2
S11304901C4A1A603B0001221A743B0000225A7461
S11304A03B0080225A603B008022DA603B005A689D
S11304B03B009A603B00144A5A613B0000229A6157
S11304C03B000022DA613B00104A1A623B00104AEA
S11304D05A623B000F4A9A623B001800FFF770FF14
S11304E00300FB62FB6A002B06D13B0001211800CC
S11304F000F021F800F038F8FB6A1800BD460CB093
S113050080BDC046E4470000370500001506000022
S1130510B50500001905000080B584B000AF78600F
S11305200023FB6000F0E6F900F080F9FB68180096
S1130530BD4604B080BD80B582B000AF78600A00CB
S1130540FB1C1A70FB1C1B78002B04D00821002014
S113055000F024FA03E00821002000F032FA00231E
S11305601800BD4602B080BD80B582B000AF0A213C
S1130570002000F013FA062000F0C8F90C4B1B7899
S113058004221343DBB29AB2BB1D1A80BB1D0221A5
S1130590180000F075F9022000F0B8F90A210020D3
S11305A000F00FFA00231800BD4602B080BDC0461B
S11305B01801002080B588B000AFF860B9607A6097
S11305C03B60BB68FB61FB681B7C012B04D11B23D4
S11305D0FB1800221A7003E01B23FB18FF221A7079
S11305E000237B610DE01B23FB181978FB691022A3
S11305F0180004F024F8FB691033FB617B690133B4
S11306007B617A693B689A42EDD300231800BD46AA
S113061008B080BD80B588B000AFF860B9607A607A
S11306203B60BB68BB61BB6A0133BB620A2100202B
S113063000F0B4F9062000F069F9BB6A9BB21B0212
S11306409BB2012213439AB216217B181A807B189D
S11306500221180000F014F90023FB612BE0BB69B0
S11306601021180000F00CF9BB691033BB61FB6A60
S1130670013BFA699A4205D11623FB180122524222
S11306801A800FE0BB6A9AB2FB699BB2D3189BB283
S113069001339BB21B029BB2FF2213439AB216236F
S11306A0FB181A801623FB180221180000F0E8F842
S11306B0FB690133FB61FA69FB6A9A42CFD30220DA
S11306C000F024F90A21002000F07BF9002318002F
S11306D0BD4608B080BD000080B582B000AF020006
S11306E03960FB1D1A70FB1D1B78002B21D0FB1DEC
S11306F01B78012B1AD0FB1D1B78022B14D0FB1D79
S11307001B78032B0ED0FB1D1B78042B07D0FB1D7D
S11307101B78052B01D13F230CE000230AE0F023D2
S11307209B0107E0F02305E0114B03E0D323DB0139
S113073000E0104B3A6813410122134006D1F7231D
S11307409A000D4B1100180000F076FC01223B6862
S11307509A4010000949FB1D1A781300DB009B180E
S11307609B00CB1814331860C046BD4602B080BD50
S11307701FEF000007070000FC4700000060004076
S113078080B582B000AF02003960FB1D1A70FB1DFA
S11307901B78002B21D0FB1D1B78012B1AD0FB1DCD
S11307A01B78022B14D0FB1D1B78032B0ED0FB1DD2
S11307B01B78042B07D0FB1D1B78052B01D13F238D
S11307C00CE000230AE0F0239B0107E0F02305E09E
S11307D0114B03E0D323DB0100E0104B3A681341D3
S11307E00122134005D10E4A0E4B1100180000F0EF
S11307F023FC01223B689A4010000B49FB1D1A7828
S11308001300DB009B189B00CB1810331860C04604
S1130810BD4602B080BDC0461FEF000007070000C0
S11308200B040000FC4700000060004090B589B054
S113083000AF0023FB613B1D0D4A13CA13C313CA47
S113084013C30C4B0121180000F0FCFF3B1D0A4AA6
S11308509A603B1D094A1900100001F0A7FF074BDD
S11308600A225A65FB691800BD4609B090BDC0460E
S11308706048000000320400E0C8100000C00040DE
S113088080B584B000AF786039600023FB6021E05C
S11308903B68012B03D07B68012213400DD07B6899
S11308A01B78134A1900100002F04CF83B68013B16
S11308B03B607B6801337B600CE07B681B880C4ADF
S11308C01900100002F053F83B68023B3B607B6860
S11308D002337B603B68002BDAD1C046044B1B69B2
S11308E020221340FAD0FB681800BD4604B080BD36
S11308F000C0004080B582B000AF00237B6000F0F0
S113090031F97B681800BD4602B080BD80B584B063
S113091000AF78600023FB607B68180000F01CFACD
S1130920FB681800BD4604B080BD000080B582B0ED
S113093000AF00237B60054B0121180000F082FF0B
S11309407B681800BD4602B080BDC046008204002A
S113095090B587B000AFF860B9603B60FB1D1A70BA
S113096000237B61FB1D1B78002B0FD113217B1807
S113097004221A70C046FB68D8B23C687B181A7807
S1130980B968230001F0E8FC7B6900E0024B180021
S1130990BD4607B090BDC0460100138080B584B049
S11309A000AF786039600023FB607B68DBB23A6893
S11309B011001800FFF7E4FEFB681800BD4604B000
S11309C080BD80B584B000AF786039600023FB60DF
S11309D07B68DBB23A6811001800FFF77DFEFB6804
S11309E01800BD4604B080BD80B588B000AFF86083
S11309F0B9607A600023FB61A0239B03BB610123E0
S1130A007B61154B0121180000F01CFF7A69BB695A
S1130A101900002001F07CFD104B9B68104A1A401D
S1130A200E4B802149000A439A600C4B9A680B4B89
S1130A3001210A439A60FB68D8B2B96800230422F2
S1130A4001F08AFC7B68180000F020F8FB691800AC
S1130A50BD4608B080BDC0460062040000C00C4022
S1130A60FFF8FFFF80B582B000AF7860064B01212C
S1130A70180000F0E7FE7B680C21180001F0F8F87C
S1130A80C046BD4602B080BDD0233E0090B585B0BF
S1130A9000AF78600C243B191C4A118819809278A5
S1130AA09A701B4B1800FFF7DDFF1A4B0221180048
S1130AB000F0BCFD174B0121180000F0C3FE3B19E8
S1130AC000221A703B1900225A703B1901229A70B5
S1130AD03B19180001F0E6FD0E4B180000F014FF5E
S1130AE003007968180003F0A9FB0300013B1B0213
S1130AF01B0A1900002001F07BFD01F0F9FD012023
S1130B0001F0A4FDC046BD4605B090BD7848000084
S1130B1002001E008006120080B582B000AF020001
S1130B20FB1D1A70FB1D1B787F2B0AD8FB1D1B783D
S1130B301A001F231340054901229A40C0235B0079
S1130B40CA50C046BD4602B080BDC04600E100E0C8
S1130B5080B500AF024B5B681800BD4680BDC0463F
S1130B6000000840B0B58AB000AF2723FB1800226C
S1130B701A702623FB1800221A702523FB18002262
S1130B801A702423FB1800221A702323FB18002256
S1130B901A703B006A4A1188198092789A7000236F
S1130BA0FB610023BB6100237B6100233B61654B38
S1130BB01B6C0422134008D1634B0121180000F080
S1130BC041FE2723FB1801221A700F257C195F4B65
S1130BD0180000F055FF030023707B191B78032BCA
S1130BE003D02523FB1801221A70564BDB6A4022DE
S1130BF0134003D12423FB1801221A70534B032101
S1130C00180001F035F8524B180000F07DFC030089
S1130C10BB6080235B004E4A1900100000F006FD03
S1130C20484B9B6D0122134008D1494B0121180008
S1130C3000F008FE2623FB1801221A7001F0DEF9E9
S1130C4003007B60434B1B68012213401BD0414BC4
S1130C501B68FB613F4B9B68BB613E4BDB687B6160
S1130C603C4BDB693B613B4B00221A60394B002251
S1130C70DA61384B07229A610C20FFF74DFF2323DA
S1130C80FB1801221A703B0000229A703B001800E6
S1130C9001F008FD00F07CF87B68180001F0BCF955
S1130CA02323FB181B78002B18D0BB68284A190093
S1130CB0100000F0BBFC012001F0DCFC254BBA69FC
S1130CC09A60244B7A69DA60224BFA691A60214BE4
S1130CD03A69DA61002001F0CDFC02E0002001F065
S1130CE0B5FC2623FB181B78002B04D0184B0021DD
S1130CF0180000F0A7FD2523FB181B78002B07D054
S1130D000F23FB181B78114A1900100000F0B0FFE4
S1130D102423FB181B78002B04D00022002101207F
S1130D2001F0FAF82723FB181B78002B04D0064B9C
S1130D300021180000F086FDC046BD460AB0B0BDD3
S1130D407C48000000800C40D0233E0002001E00BE
S1130D50800612000000084080B582B000AF7860C1
S1130D607B680A49002B0CD0013B88221202003216
S1130D7053430A68D80AD20A5043800901D0013883
S1130D80FDD8C046BD4602B080BDC0461400002058
S1130D9080B584B000AF0823BB60344B802252017D
S1130DA01A601CE000F064F803007B60C04600F0A9
S1130DB05FF802007B689342F9D000F059F8030011
S1130DC07B602A4B1B68180000F05AF800F050F8BA
S1130DD002007B68D31A7B607B68002B06D1234B0F
S1130DE01B685B00214A1360DCD100E0C0461F4B46
S1130DF01B685A081D4B1A601C4B1B68FB6026E0DD
S1130E001A4B1A68FB681A43184B1A6000F030F842
S1130E1003007B60C04600F02BF802007B6893421D
S1130E20F9D000F025F803007B60104B1B68180014
S1130E3000F026F800F01CF802007B68934206D00C
S1130E40FB68DA43094B1B681A40084B1A60BB68FD
S1130E505A1EBA60002B05D0FB685B08FB60FB6878
S1130E60002BCDD1C046BD4604B080BD1400002087
S1130E7080B500AFFFF76CFE03001800BD4680BDCF
S1130E8080B582B000AF78607B68013BFDD8C04676
S1130E90BD4602B080BD80B586B000AFF860B960D1
S1130EA07A60FB681B687B610122BB689A4013006F
S1130EB0DB431A007B691A407B6801211940BB6837
S1130EC099400B001A43FB681A60C046BD4606B041
S1130ED080BD80B584B000AFF860B9607A60FB680B
S1130EE01B68BA68D2431A407B681A43FB681A60CD
S1130EF0C046BD4604B080BD80B582B000AF786006
S1130F0039607B68254A934204D0254BA7211800F9
S1130F1000F092F83B68DB683F2B04D9204BD021CA
S1130F20180000F089F83B685B680F2B04D91C4B50
S1130F30D221180000F080F83B681B78DA073B6880
S1130F405B789B0713431A003B685B681B061343DB
S1130F503A68127A120213433A68527A12011A4317
S1130F607B681A603B689B7A1B071A003B68DB7A34
S1130F701B041A433B68DB681B021343094A1A43E8
S1130F807B685A6078683B681B7C1A000021FFF775
S1130F9082FFC046BD4602B080BDC046001000407E
S1130FA080480000B000000180B582B000AF7860D6
S1130FB00A00FB1C1A707B680E4A934204D00E4B45
S1130FC0FA21180000F038F8FB1C1B78072B04D911
S1130FD0094BFE21180000F02FF87B68181DFB1C3C
S1130FE01B781A000721FFF774FFC046BD4602B004
S1130FF080BDC046001000408048000080B582B02B
S113100000AF78607B680A4A934206D09B235A005B
S1131010084B1100180000F00FF87B681B680122D0
S11310201A437B681A60C046BD4602B080BDC04604
S1131030001000408048000080B582B000AF7860A6
S11310403960FEE780B586B000AFF860B9607A60B9
S1131050FB681B687B610122BB689A401300DB4379
S11310601A007B691A407B6801211940BB689940CA
S11310700B001A43FB681A60C046BD4606B080BD2B
S113108080B582B000AF786039607B681A683B68CD
S1131090DA401300012213401800BD4602B080BD9F
S11310A080B582B000AF78607B681F2B06D9962389
S11310B05A00064B11001800FFF7BEFF01227B689F
S11310C09A4013001800BD4602B080BDE4480000F9
S11310D080B584B000AF78607B68002B04D07A6858
S11310E080231B029A4205D9094A0A4B11001800B1
S11310F0FFF7A2FF786803F017FA0300DBB21A00C7
S11311001F239B1AFB60FB681800BD4604B080BD1A
S1131110C20A00004C49000080B500AF034BDB6CF1
S11311201B0EDBB21800BD4680BDC046B081E00F87
S113113080B582B000AF254B5A69E023DB00134031
S11311408022920093421ED080229200934206D8BD
S1131150002B26D08022520093421FD027E0C022C9
S11311609200934204D0E022D20093421CD01EE0AD
S1131170FFF7D2FF0300122B02D9154B7B601FE04F
S1131180144B7B601CE0FFF7C7FF0300122B02D94E
S1131190114B7B6014E0114B7B6011E0104B7B60C2
S11311A00EE0104B7B600BE00F4B7B6008E00023EC
S11311B07B600E4A0E4B11001800FFF73DFFC0463E
S11311C07B681800BD4602B080BDC04600800C405C
S11311D0804F120040420F0040B56400C0CF6A0047
S11311E0C0D8A700809FD500406F4001220D0000A9
S11311F0B049000090B583B000AFFC1C114B18003F
S113120000F03EFC03002370FB1C1B78072B06D068
S1131210092B09D1FEF7DAFF03007B600DE0FFF72D
S113122087FF03007B6008E000237B60064A074BCE
S113123011001800FFF700FFC0467B681800BD4688
S113124003B090BD06000E005C0D0000B049000024
S113125080B584B000AF786039600F4B5B680722BB
S11312601340FB607B680D4A934202D80023FB6065
S113127005E07B680A4A934201D80123FB60064BD0
S11312805B68072293431900034BFA680A435A60C8
S1131290C046BD4604B080BD00000C400024F400EC
S11312A00048E80180B582B000AF0D4BDA6BFB1D3E
S11312B0511E8A411A700A4B0A4ADA63FEF77EFF0E
S11312C0030000211800FFF7C3FFFB1D1B78002B50
S11312D002D0034B0022DA63C046BD4602B080BD93
S11312E000000C40711B000090B585B000AF786021
S11312F039600D4BDA6B0F243B19511E8A411A7069
S1131300094B0A4ADA633A687B6811001800FFF750
S11313109FFF3B191B78002B02D0034B0022DA639A
S1131320C046BD4605B090BD00000C40711B0000D6
S113133080B584B000AF78600023BB607B683F4A0F
S113134093420CD03E4A934209D03E4A934206D07F
S11313503D4A3E4B11001800FFF76EFE00E0C04608
S11313607B68180000F08CFB0300FB607B68334A49
S113137093420BD0324A93420FD0324A934213D154
S1131380334B9B6A03221340FB6014E0304B9B6A8F
S11313909B0803221340FB600DE02D4B9B6A1B0945
S11313A003221340FB6006E02A4A284B1100180070
S11313B0FFF742FEC046FB68012B05D014D3022B75
S11313C007D0032B0AD02AE0FEF78AFF0300BB6094
S11313D02FE0FEF793FF0300BB602AE0FEF7D2FE86
S11313E003005B08BB6024E00023BB607B68154AF4
S11313F0934203D07B68114A934219D1144B9A6AE1
S11314007B6810498B4201D1102300E01423DA4099
S1131410131E0DD0FEF76BFF0300BB6008E0002332
S1131420BB600D4A094B11001800FFF705FE00E0F0
S1131430C046BB681800BD4604B080BD0300200050
S11314400400220002001E009A0F0000B0490000B0
S113145000800C40C90F0000F40F000080B582B07A
S113146000AF7860074B5B6D0122134006D1C04684
S1131470044B1B6D7A681340FAD100E0C046BD46A8
S113148002B080BD00800C4090B583B000AFFC1C5E
S1131490164B180000F0F4FA03002370FB1C1B78B1
S11314A0032B0DD002DC022B05D017E0092B10D042
S11314B00A2B0AD012E0FEF721FF03007B6010E044
S11314C0FEF70EFF03007B600BE0094B1B687B609B
S11314D007E0FEF77BFE03007B6002E000237B60F5
S11314E0C0467B681800BD4603B090BD0733260094
S11314F01800002080B500AFC046BD4680BD80B551
S113150000AFC046BD4680BD80B584B000AF7860F2
S11315107B681B090F221340BB60BB680D2B67D887
S1131520BB689A00394BD3181B689F46384B1B681D
S11315309B0B072213400133FB6062E0344B9B6832
S11315400F221340FB60FB681800FFF7A9FD03009E
S1131550FB6056E02E4B5B680F221340FB60FB6878
S11315601800FFF79DFD0300FB604AE0284B5B6811
S11315701B0A01221340FB60FB6801331800FFF7CC
S11315808FFD0300FB603CE07B68224A93420BD151
S11315901F4B9B6E0F221340FB60FB681800FFF784
S11315A07FFD0300FB6008E00123FB601A4A1B4B2C
S11315B011001800FFF740FDC04622E07B68184A7E
S11315C093420BD1124B1B6F03221340FB60FB6849
S11315D01800FFF765FD0300FB6008E00123FB60D2
S11315E0104A0E4B11001800FFF726FDC04608E014
S11315F00123FB600C4A094B11001800FFF71CFD86
S1131600C046FB681800BD4604B080BD144A000003
S113161000800C4080061200B8120000B04900009F
S113162090071A00D1120000D812000080B584B0CF
S113163000AF786039607B681B090F221340FB60A0
S1131640FB680D2B00D9D3E0FB689A006E4BD318CE
S11316501B689F463B68002B02D03B68082B05D9CA
S11316606A4A6B4B11001800FFF7E6FCFFF71AFEFD
S1131670684B1B68684A134019003B68013B9A0396
S1131680644B0A431A60FEF77DFD0300BB60BB6830
S113169000211800FFF728FEB1E03B68002B04D0BE
S11316A03A6880239B009A4205D95C4A584B110042
S11316B01800FFF7C1FC3B681800FFF709FD0300A1
S11316C03B60544B9B680F2293431900514B3A687B
S11316D00A439A6093E03B681800FFF7F9FC0300A3
S11316E0013B3B604B4B5B684D4A134019003B6820
S11316F01A02484B0A435A6081E03B68002B04D02D
S11317003A6880239B009A4205D9464A404B11000F
S11317101800FFF791FCFFF7C5FD3B681800FFF7C1
S1131720D7FC03003B603B4B5B680F2293431900DB
S1131730384B3A680A435A60FEF724FD0300BB6045
S1131740BB6800211800FFF7CFFD58E07B68364ADC
S113175093421DD13A6880231B029A4205D9334A29
S11317602B4B11001800FFF767FC0420FFF776FEEF
S11317703B681800FFF7ACFC03003B60254B9B6EF5
S11317800F2293431900234B3A680A439A6606E0F2
S1131790274A1F4B11001800FFF74EFCC0462EE0ED
S11317A07B68244A93421BD13B68082B05D9224A03
S11317B0174B11001800FFF73FFC4020FFF74EFEC7
S11317C03B681800FFF784FC03003B60114B1B6F60
S11317D00322934319000F4B3A680A431A6706E041
S11317E0164A0B4B11001800FFF726FCC04606E012
S11317F0134A074B11001800FFF71EFCC046C046F1
S1131800BD4604B080BDC0464C4A0000051300002C
S1131810B049000000800C40FF3FFEFF1813000099
S1131820FFFEFFFF2E130000800612004C13000081
S11318308713000090071A0090130000AD130000F6
S1131840B313000080B586B000AF78600A00FB1CBB
S11318501A7000233B617B681B0A0F2213400A2B7A
S113186020D89A001E4BD3181B689F461D4B7B61E2
S11318701FE01D4B7B611CE01C4B7B6119E01C4B82
S11318807B6101233B6114E01A4B7B6110233B61B4
S11318900FE0194B7B6180235B003B6109E0174B30
S11318A07B6106E0164A174B11001800FFF7C4FBD2
S11318B012E07B681B0B1F221340FB603B69002B6B
S11318C003D03B691800FFF7C9FDFB1C1A78F968BF
S11318D07B691800FFF7B6FBBD4606B080BDC04665
S11318E0844A000040800C4008800C4044800C4036
S11318F058800C4060800C4064800C4078800C4020
S113190039140000B049000090B585B000AF78608C
S11319107A68F8239B03134090225203934253D0D6
S113192090225203934217D88022D202934232D09B
S11319308022D202934206D8002B27D08022920222
S1131940934235D083E0E0221203934261D0802297
S11319505203934262D07AE080229203934242D0AF
S113196080229203934208D8D0225203934241D05A
S1131970F0225203934220D069E0982292039342CA
S113198051D0F8229203934252D060E0FEF71EFC3D
S11319900300FB6064E0FEF719FC0300FB60334BBB
S11319A09B680F221340FA68DA401300FB6057E08B
S11319B0FEF7E8FB0300FB6052E02D4B1800FFF735
S11319C0B7FC0300FB604BE0294B1800FFF7B0FCA9
S11319D00300FB60254B9B6E0F221340FA68DA402C
S11319E01300FB603CE0234B1800FFF7A1FC03004D
S11319F0FB6035E01F4B1800FFF79AFC0300FB6007
S1131A001A4B1B6F03221340FA68DA401300FB6081
S1131A1026E0FFF7EFFB0300FB6021E0FFF788FB04
S1131A200300FB601CE0FFF72FFD0300FB6017E0E1
S1131A30FEF7A8FB04007B681800FFF765FD0300B0
S1131A401900200002F0FAFB0300FB6008E0002309
S1131A50FB60094A094B11001800FFF7EDFAC04674
S1131A60FB681800BD4605B090BDC04600800C4020
S1131A7002001E000300200069150000B0490000A8
S1131A8080B584B000AF78600F23FB1801221A7070
S1131A907B680F221340BB60BB68072B00D9CAE0E8
S1131AA0BB689A006D4BD3181B689F466C4BDB6A6E
S1131AB06C4A134080225201934216D08022520174
S1131AC0934204D880221201934213D01CE0802256
S1131AD09201934204D08022D20493420FD013E0A7
S1131AE00F23FB1802221A7013E00F23FB180322A2
S1131AF01A700EE00F23FB1804221A7009E00F235A
S1131B00FB180B221A7004E00F23FB1805221A702D
S1131B10C0469BE0524B9B6A03221340022B08D021
S1131B20032B0BD0012B0ED10F23FB1803221A70A9
S1131B3015E00F23FB1802221A7010E00F23FB1884
S1131B4006221A700BE0464B9A6A80235B0213400C
S1131B5004D00F23FB180C221A7000E0C04675E075
S1131B603F4B9B6A0C221340082B08D00C2B0BD044
S1131B70042B0ED10F23FB1803221A7015E00F2338
S1131B80FB1802221A7010E00F23FB1806221A70A9
S1131B900BE0334B9A6A80235B03134004D00F237A
S1131BA0FB180C221A7000E0C0464FE02C4B9B6AD5
S1131BB030221340102B02D0202B05D009E00F2334
S1131BC0FB1803221A7009E00F23FB1802221A7073
S1131BD004E00F23FB1801221A70C04636E00F23DD
S1131BE0FB1807221A7031E01D4BDA6AE023DB028E
S1131BF0134080229202934212D08022D202934256
S1131C0004D080225202934205D00EE00F23FB1829
S1131C100A221A700EE00F23FB1802221A7009E040
S1131C200F23FB1803221A7004E00F23FB18012270
S1131C301A70C0460AE00F23FB1800221A700A4AE1
S1131C400A4B11001800FFF7F7F9C0460F23FB18E1
S1131C501B781800BD4604B080BDC046B04A0000E1
S1131C6000800C40003C000489190000B0490000C9
S1131C7080B588B000AF78600A00FB1C1A7003239B
S1131C80FB611B23FB1803221A7000233B617B6852
S1131C900F221340FB60FB68072B00D916E1FB6899
S1131CA09A008F4BD3181B689F46FB1C1B780C2B88
S1131CB02ED89A008B4BD3181B689F460423FB61D4
S1131CC01B23FB1800221A7029E00323FB611B234A
S1131CD0FB1801221A7022E00223FB611B23FB186C
S1131CE002221A701BE00123FB611B23FB18032251
S1131CF01A7014E00523FB611B23FB1805221A70DC
S1131D000DE0794A794B11001800FFF795F9E4E0EA
S1131D10774A764B11001800FFF78EF9DDE01B239C
S1131D20FB181B7801220121180000F0F5F8FFF7D9
S1131D30B9FAFFF7DFFB6F4BFA695A62FEF722FA32
S1131D400300BB60BB6800211800FFF7CDFAFFF762
S1131D50D6FBC2E0FB1C1B780C2B25D89A00664BE3
S1131D60D3181B689F4600237B6124E001220121D4
S1131D70002000F0D1F802237B611CE00122012144
S1131D80012000F0C9F801237B6114E05B4B0122C0
S1131D9002211800FFF756F903237B610BE00023AF
S1131DA07B6101233B6106E0554A504B110018004A
S1131DB0FFF742F991E0FB68022B0CD14D4B9B6A73
S1131DC0504A1A407B691A4311003B691A04494B73
S1131DD00A439A6281E0474B9B6A4B4A1A407B69EB
S1131DE09B001A4311003B691A05424B0A439A624D
S1131DF073E0FB1C1B78022B06D0032B0CD0012BA9
S1131E0012D100237B6116E001220121002000F0A1
S1131E1083F802237B610EE001220121012000F0FE
S1131E207BF801237B6106E0384A304B110018002F
S1131E30FFF702F951E02F4B9B6A302293431900BC
S1131E407B691A012B4B0A439A6246E0FB1C1B7800
S1131E50032B13D00A2B21D0022B2FD101220121D5
S1131E60002000F059F8234B40225A62C046214B0F
S1131E70DA6A80235B021340F9D026E001220121B3
S1131E80012000F049F81B4B60225A62C046194BEE
S1131E90DA6A80239B021340F9D016E00122012163
S1131EA0052000F039F8134B80225A62C046114BCA
S1131EB0DA6A8023DB021340F9D006E0144A0B4BA4
S1131EC011001800FFF7B8F807E006E0114A074BC5
S1131ED011001800FFF7B0F8C046BD4608B080BD39
S1131EE0D04A0000F04A00004A1A0000B04900003D
S1131EF04F1A000000800C40244B000040800C402E
S1131F00F81A0000FCFFFEFFF3FFEFFF291B00009F
S1131F10921B0000881C000090B587B000AF04003D
S1131F2008001100FB1D221C1A70BB1D021C1A7034
S1131F307B1D0A1C1A70FB1D1B78052B32D89A00D6
S1131F40294BD3181B689F4601233B610223FB6086
S1131F5001237B612DE004233B610823FB60032301
S1131F607B6126E010233B612023FB6005237B611A
S1131F701FE040233B618023FB6007237B6118E063
S1131F8080235B003B6180239B00FB6009237B6112
S1131F900FE08023DB003B6180231B01FB601623E1
S1131FA07B6106E0114A124B11001800FFF744F858
S1131FB017E0BB1D1B78002B10D00E4B3A691A6238
S1131FC07B1D1B78002B0CD0C0467B690A4A190084
S1131FD01000FFF755F8031EF7D002E0054BFA682E
S1131FE01A62BD4607B090BD584B00008E20000019
S1131FF0B049000000800C402C800C4080B582B0B9
S113200000AFEFF310833B603B687B6072B67B6884
S11320101800BD4602B080BD80B582B000AF7860C4
S11320207B68002B00D162B6C046BD4602B080BDBD
S113203080B586B000AFF860B9607A60FB681B6851
S11320407B610122BB689A401300DB431A007B6961
S11320501A407B6801211940BB6899400B001A4360
S1132060FB681A60C046BD4606B080BD80B584B02A
S113207000AFF860B9607A60FB681B68BA68D24345
S11320801A407B681A43FB681A60C046BD4604B018
S113209080BD000080B582B000AF786004498E2313
S11320A05B007A68CA50C046BD4602B080BDC046D7
S11320B00060004080B582B000AF02003960FB1DB3
S11320C01A70FB1D1B78002B21D0FB1D1B78012BE4
S11320D01AD0FB1D1B78022B14D0FB1D1B78032B7D
S11320E00ED0FB1D1B78042B07D0FB1D1B78052B82
S11320F001D13F230CE000230AE0F0239B0107E019
S1132100F02305E0114B03E0D323DB0100E0104B87
S11321103A6813410122134006D1F7239A000D4B6C
S113212011001800FEF788FF01223B689A40100056
S11321300949FB1D1A781300DB009B189B00CB1880
S113214014331860C046BD4602B080BD1FEF0000C6
S113215007070000704B00000060004080B582B0AB
S113216000AF02003960FB1D1A70FB1D1B78002BA9
S113217021D0FB1D1B78012B1AD0FB1D1B78022BD1
S113218014D0FB1D1B78032B0ED0FB1D1B78042BD6
S113219007D0FB1D1B78052B01D13F230CE0002346
S11321A00AE0F0239B0107E0F02305E0114B03E074
S11321B0D323DB0100E0104B3A68134101221340A2
S11321C005D10E4A0E4B11001800FEF735FF01220F
S11321D03B689A4010000B49FB1D1A781300DB0082
S11321E09B189B00CB1810331860C046BD4602B044
S11321F080BDC0461FEF0000070700000B0400006D
S1132200704B00000060004090B587B000AFB9602B
S11322107A6019000F243B19021C1A700E23FB1854
S11322200A1C1A7000237B613B191B78002B26D0F3
S11322300F23FB181B78012B1ED00F23FB181B78D0
S1132240022B17D00F23FB181B78032B10D00F235E
S1132250FB181B78042B08D00F23FB181B78052BC5
S113226001D13F230CE000230AE0F0239B0107E0A7
S1132270F02305E0304B03E0D323DB0100E02F4BD8
S1132280BA6813410122134004D12D4BC421180014
S1132290FEF7D2FE7B68072B11D87B689B000722D0
S11322A09A4011000F23FB181A787B689B009A4010
S11322B013001A00234B1800FFF7D8FE13E07B68C5
S11322C0083B7B617B699B0007229A4011000F2326
S11322D0FB181A787B699B009A4013001A001A4B6A
S11322E01800FFF7C3FE0E23FB181A787B68174803
S11322F01900FFF79DFE202308229446BC44634442
S11323001A787B6812481900FFF792FE01227B6855
S11323109A4013001800FFF7BDFE242308229446B8
S1132320BC4463441A787B680A481900FFF780FEAE
S1132330C046BD4607B090BD1FEF00000707000070
S1132340D44B00000061004004610040086100407B
S11323500C6100401061004090B585B000AFB960D9
S113236011007B600F243B19021C1A700E23FB180A
S11323700A1C1A703B191B78002B26D00F23FB185C
S11323801B78012B1ED00F23FB181B78022B17D0B0
S11323900F23FB181B78032B10D00F23FB181B787B
S11323A0042B08D00F23FB181B78052B01D13F23E6
S11323B00CE000230AE0F0239B0107E0F02305E092
S11323C04E4B03E0D323DB0100E04D4BBA681341CD
S11323D00122134007D11C23FF331A00494B11007B
S11323E01800FEF729FE0E23FB181B78002B13D0D0
S11323F07B68002B08D0BA680F23FB181B781100E8
S11324001800FFF7ABFE07E0BA680F23FB181B7830
S113241011001800FFF74EFEBB68072B25D83A4978
S11324200F243B191A781300DB009B189B00CB1870
S113243004331B68BA6892000F2191400A00D2430A
S113244013400E22BA181178BA68920091400A001B
S113245011002D483A19127819431300DB009B1818
S11324609B00C318043319602AE027490F243B1941
S11324701A781300DB009B189B00CB1808331B68E9
S1132480BA6822498C46624492000F2191400A00A6
S1132490D24313400E22BA181178BA681B488446F6
S11324A06244920091400A00110017483A191278C8
S11324B019431300DB009B189B00C31808331960F1
S11324C00E23FB181B78002B13D17B68002B08D03C
S11324D0BA680F23FB181B7811001800FFF73EFEA3
S11324E007E0BA680F23FB181B7811001800FFF7E8
S11324F0E1FDC046BD4605B090BDC0461FEF0000DB
S113250007070000D44B000000600040F8FFFF3FC5
S113251080B584B000AFF860B9607A60BA687B684F
S11325201A43FB680021180000F004F8C046BD46B9
S113253004B080BD80B586B000AFF8607A600B202F
S11325403B180A1C1A707B68174A13407B613B18BE
S11325501B78002B13D1FB68052B06D9CC235A001A
S1132560124B11001800FEF767FD11497B698022A8
S113257052051A43FB6804339B005A500FE0FB6872
S1132580052B06D9CF235A00084B11001800FEF77B
S113259053FD0749FB6804339B007A695A50C046CF
S11325A0BD4606B080BDC04607003F00384C000061
S11325B000C00C4080B586B000AFF860B9607A60A6
S11325C0FB681B687B610122BB689A401300DB43F4
S11325D01A007B691A407B6801211940BB68994045
S11325E00B001A43FB681A60C046BD4606B080BDA6
S11325F080B584B000AF786039607B68012B04D962
S11326000F4BA9211800FEF717FD3B681B0E1B0694
S113261004D00B4BAE211800FEF70EFD7B68002B97
S113262002D0012B03D008E0064BFB6002E0064B0E
S1132630FB60C046FB683A681A60BD4604B080BDC2
S11326409C4C0000080008400C00084080B582B093
S113265000AF0200FB1D1A70FB1D1B7804481A0012
S11326600021FFF7A7FFC046BD4602B080BDC046AB
S11326700000084080B582B000AF0200FB1D1A7054
S1132680FB1D1B78002B03D0054B01221A6202E0CC
S1132690034B00221A62C046BD4602B080BDC0464C
S11326A00000084080B584B000AF78607B681B7878
S11326B0002B02D00123FB6001E00023FB607B6858
S11326C05B78002B03D0FB6802221343FB607B681A
S11326D09B78002B03D0FB6804221343FB60034B5D
S11326E0FA681A60C046BD4604B080BD00000840C8
S11326F080B500AF0020FFF7A9FF0120FFF7A6FF78
S1132700C046BD4680BD80B582B000AF78600A0087
S1132710FB1C1A70FB1C1B7810221343DBB21A003B
S11327207B689A65C046BD4602B080BD80B586B060
S113273000AFF860B9607A607B68002B05D1164A57
S1132740164B11001800FEF777FCBB68002B05D16F
S1132750134B1800FFF7D8F80300BB60BB685A1E80
S11327607B685B001900100001F068FD03007B61C9
S11327707B691B027B617B690A4A134005D00A4AC4
S1132780064B11001800FEF757FCFB687A695A6182
S1132790C046BD4606B080BD6E020000004D00007C
S11327A0408104000700E0FF8B02000080B582B086
S11327B000AF786039607B68344A93420AD07B6802
S11327C0334A934206D0CD239A00324B11001800AD
S11327D0FEF732FC7B68180000F05EF87B681A682C
S11327E03B681B8A01210B439BB219003B689B7B0E
S11327F0002B02D08023DB0000E000230B431A43AC
S11328007B681A607B681A683B681B7D002B02D0CA
S113281080239B0500E000231A437B681A603B6811
S11328209B7C002B06D03B68DA7C7B681100180087
S1132830FFF769FF3B681B7B1A0080235B011A4387
S11328407B685A603B6859683B689A687B681800E3
S1132850FFF76CFF3B685B7B002B02D07B68102288
S1132860DA603B685B7D002B06D07B681B688022A6
S113287052021A437B681A603B681B781A007B6813
S1132880DA60C046BD4602B080BDC04600C000400C
S113289000C40040004D000080B582B000AF7860F5
S11328A07B68214A934209D07B68204A934205D031
S11328B01F4A204B11001800FEF7BEFB7B681E4A1E
S11328C0DA607B6800221A607B681C4A5A607B6865
S11328D000229A607B6800225A617B680022DA64D5
S11328E07B68174A9A647B6800225A657B680E4AA3
S11328F0934203D07B680D4A934202D17B68002245
S11329001A657B6800229A657B68074A934203D064
S11329107B68064A934202D17B680022DA65C0468E
S1132920BD4602B080BDC04600C0004000C40040A7
S113293006040000004D0000AA0E0000051000006F
S1132940F91F000080B582B000AF78600A00FB1C5C
S11329501A70C0467B681B6940221340FAD0FB1CE6
S11329601A787B685A63C046BD4602B080BD80B504
S113297082B000AF78600A00BB1C1A80C0467B6836
S11329801B6940221340FAD0BB1C1A887B68DA63A7
S1132990C046BD4602B080BD80B582B000AF204BBA
S11329A002225A601E4B5B6A7B601E4B1B78DBB2B3
S11329B01A001D4B92007968D1501A4B1B78DBB278
S11329C01A001A4B9200D3587A689A4207D9154BC9
S11329D01B78DBB21A00154B92007968D150114B69
S11329E01B78DBB2042B03D10E4B03221A7002E0D6
S11329F00C4B04221A70FB1C0A4A12781A70FB1C36
S1132A001B780B4A19001000FEF7CEFA044B002283
S1132A105A62034B01225A60C046BD4602B080BDD3
S1132A2000040140190100201C0100201C000020AA
S1132A300010004080B584B000AF0200FB1D1A7086
S1132A40FB1D1A780D4B9200D358FB60FB1D1A78BE
S1132A500A4B9200D3589B08FA68D31AFB60FB1DFB
S1132A601A78074B9200D358FA689A4201D9012385
S1132A7000E000231800BD4604B080BD1C00002007
S1132A801C01002090B587B000AF3B1D1A4A13CA41
S1132A9013C303CA03C3194B9A68184B8021490016
S1132AA00A439A60154B5A6C144B62210A435A64C8
S1132AB0134B144A1A60124B134ADA61104B134A2F
S1132AC01A64134B802292025A613B1D01221A7030
S1132AD03B1D01225A703B1D3022DA603B1D0D4A1A
S1132AE019001000FEF708FA0A4B1800FEF786FAE0
S1132AF0C046BD4607B090BD804D000000800C402C
S1132B00000401400000010AFFFF00000100110061
S1132B1000C00C400010004080B584B000AFF860E5
S1132B20B9607A603B60FB68BA681A60FB687A68CF
S1132B305A60FB683A689A60FB6800221A73C046C0
S1132B40BD4604B080BD000080B582B000AF284B04
S1132B501B7B002B47D001F07BFD03001A00130000
S1132B601B019B1A2349180001F068FB03007B60DA
S1132B7007E07B6801330F21180001F0E5FB0B002F
S1132B807B601D4A7B681B01D3180C331B78002B18
S1132B90EFD11A4B1B680C331A00154B1A60164AF6
S1132BA07B681B01D31804331A68134B7968090135
S1132BB0CB585B68002B00DA01335B10D2180C4B46
S1132BC05A600D4A7B681B01D31808331A680A4BF4
S1132BD079680901CB589B68D3185A1C044B9A6036
S1132BE0034B00221A73C046BD4602B080BDC046E6
S1132BF020020020FFFFFF7F30010020540000204E
S1132C0080B582B000AF78607B685B68002B15DB11
S1132C107B685A687B681B685B68D3187F2B0DDC64
S1132C207B689B68002B09DB7B689A687B681B6860
S1132C309B68D3187F2B01DC012300E000231A1CBE
S1132C4001231340DBB21800BD4602B080BD000072
S1132C5080B582B000AF786039607B689A683B6861
S1132C60D2187B689A607B681B7B01225340DBB2DD
S1132C70002B1BD07B681800FFF7C2FF03001A006B
S1132C8001235340DBB2002B10D07B6801221A735E
S1132C907A68084B9A4209D1074B1B680A2B05DD59
S1132CA0054B1B680A3B1A00034B1A60C046BD461D
S1132CB002B080BD300200205002002080B582B0F6
S1132CC000AF786039603B681B7B002B01D0002388
S1132CD02AE07B685A687B681B685B68D2183B688B
S1132CE05B689A421FDB7B685A683B6859683B689B
S1132CF01B685B68CB189A4215DA7B689A683B6854
S1132D0099683B681B689B68CB189A420BDC7B680C
S1132D109A687B681B689B68D2183B689B689A42D8
S1132D2001DD012300E000231800BD4602B080BD90
S1132D3080B582B000AF00237B6000233B6028E0B5
S1132D40184A3B681B01D3180C331B78002B1CD189
S1132D50144A3B681B01D31808331A68114B3968AD
S1132D600901CB589B68D3187A689A420EDA0D4A47
S1132D703B681B01D31808331A680A4B39680901E8
S1132D80CB589B68D3187B6000E0C0463B68013396
S1132D903B603B680E2BD3D97B681800BD4602B05C
S1132DA080BDC0463001002080B582B000AF78609D
S1132DB07B681B7B002B50D17B681A68294B1B68EE
S1132DC09A4206D1274B1B6824331A007B681A6089
S1132DD044E07B681A68234B1B6824339A4204D16D
S1132DE0204B1A687B681A6038E07B681A681D4BB0
S1132DF01B680C339A4206D11A4B1B6830331A00F5
S1132E007B681A602AE07B681A68164B1B683033AB
S1132E109A4206D1134B1B680C331A007B681A6064
S1132E201CE07B681A68104B1B680C339A4206D16D
S1132E300D4B1B6818331A007B681A600EE07B6820
S1132E401A68094B1B6818339A4207D1064B1B6852
S1132E500C331A007B681A6000E0C046BD4602B01D
S1132E6080BDC046500000205400002080B582B0D0
S1132E7000AF78607B68072B36D87B689A00204BBC
S1132E80D3181B689F461F4B64221A601E4B0622F0
S1132E901A6030E01B4B4B221A601B4B04221A6051
S1132EA029E0184B32221A60174B02221A6022E0E2
S1132EB0144B19221A60144B02221A601BE0114BA6
S1132EC00A221A60104B02221A6014E00D4B0A22E7
S1132ED01A600D4B01221A600DE00A4B05221A609C
S1132EE0094B01221A6006E0064B05221A60064BC4
S1132EF000221A60C046C046BD4602B080BDC0462E
S1132F00F04D0000400000203C00002080B582B05D
S1132F1000AF7860104B1B7B01225340DBB2002BC7
S1132F2015D00D4B5A687B68D318002B0FDB0A4B66
S1132F305A68094B1B685B68D2187B68D3187F2BCF
S1132F4005DC054B5A687B68D218034B5A60C046AF
S1132F50BD4602B080BDC0464002002080B500AF2F
S1132F600D4B1B7B002B13D00C4B5A680B4B1B686F
S1132F705B68002B00DA01335B10D218064B5A60F1
S1132F80064B9B685A1E044B9A60034B00221A732B
S1132F90C046BD4680BDC04630020020400200202D
S1132FA080B586B000AFF860B9607A601A00FB1C87
S1132FB01A70BB68013B7B61BB68013BFA68D3189C
S1132FC000221A7016E07B680A21180001F0BCF98F
S1132FD00B00DAB27B69013B7B617B69F968CB1832
S1132FE03032D2B21A707B680A21180001F026F937
S1132FF003007B607B69002BE5D1FB1C1B78002B55
S113300028D000237B6102E07B6901337B617B690B
S1133010FA68D3181B78302BF6D07B69002B19D0B3
S1133020BB685A1E7B69D31A3B613B69002B04D1F0
S113303001233B617B69013B7B617B69FA68D118A1
S11330403A69FB68180001F0F1FA3B69FA68D31891
S113305000221A70C046BD4606B080BD80B584B05B
S113306000AF00F03DFD3E4B1A000221022000F0AB
S113307023FB3C4B1B681A00381D01230521FFF775
S11330808FFF3B1D1A000221242000F015FB364B54
S11330901A0002213D2000F00FFB344B1B681A007C
S11330A0381D00230521FFF77BFF3B1D1A00022179
S11330B0672000F001FB0023FB6020E02C4AFB6842
S11330C01B01D3180C331B7801225340DBB2002BB5
S11330D012D0274AFB681B01D31804331868244A0A
S11330E0FB681B01D31808331968214BFA681201D5
S11330F0D3581A0000F0C4FBFB680133FB60FB6883
S11331000E2BDBD91B4B1B7B01225340DBB2002B64
S113311008D0184B5868174B9968164B1B681A004F
S113312000F0AEFB144B1B7B01225340DBB2002B9F
S113313008D0114B5868104B99680F4B1B681A0044
S113314000F09EFB0D4B58680C4B99680B4B1B68A9
S11331501A0000F095FBC046BD4604B080BDC046D1
S1133160104E000038000020184E000050020020CD
S11331703001002030020020200200204002002004
S113318080B582B000AF7C4B1B685A1C7A4B1A6026
S1133190794B1A68794B1B689A4240DD764B0022C2
S11331A01A6000237B6011E0754A7B681B01D31809
S11331B004331A68734B1B68D21871497B681B016E
S11331C0CB1804331A607B6801337B607B680E2B59
S11331D0EAD96B4BE4229B58732B03DC684B5B6886
S11331E0002B1CDC674B1B685A42664B1A60002399
S11331F07B6011E0624A7B681B01D31808331A68AC
S1133200614B1B68D2185E497B681B01CB180833DD
S11332101A607B6801337B607B680E2BEAD95B4BB9
S11332201B685A1C594B1A60584B1B680A2B12D145
S1133230564B00221A6000237B6009E07B681A0168
S11332404F4BD3181800FFF7AFFD7B6801337B6049
S11332507B680E2BF2D94E4B1B685A1C4C4B1A60E0
S11332604B4B1B68022B06D1494B00221A60494B79
S11332701800FFF799FD484B1B7B01225340DBB23A
S1133280002B2BD002235A42434B11001800FFF7A6
S1133290DFFC00237B601EE07B681A01384BD218E8
S11332A03D4B11001800FFF709FD031E10D03A4BE7
S11332B001221A73324A7B681B01D3180C33012292
S11332C01A70364B1B6814331A00344B1A6005E02D
S11332D07B6801337B607B680E2BDDD92D4B1B7B18
S11332E0002B10D02E4B1B685A1C2D4B1A602C4BF4
S11332F01A682C4B1B689A4214DDFFF725FC284BF7
S113330000221A600EE0234B01211800FFF7A0FCF5
S1133310254A204B11001800FFF7D0FC031E01D0F2
S1133320012324E000233B6000237B600DE0144A6A
S11333307B681B01D3180C331B78002B02D03B682D
S113334001333B607B6801337B607B680E2BEED9D5
S11333503B680F2B01D1022309E0FFF7E9FC0200CF
S1133360114B9B689A4201DD012300E00023180001
S1133370BD4602B080BDC0465C0200203C00002077
S113338030010020300000203400002054020020CE
S113339060020020200200203002002050020020A1
S11333A058020020400000204002002090B587B061
S11333B000AF786000237B6133E000233B612AE0A7
S11333C07A6913009B009B183A69D318FB60FB6869
S11333D01A01324BD418324B196832487A691300F7
S11333E09B009B183A699B189B001B581A001300FA
S11333F05B009B189B00C9182B4B3A699200D0586C
S11334002A4B7A699200D35802002000FFF784FB0C
S11334103B6901333B613B69042BD1D97B6901339F
S11334207B617B69022BC8D9214B19682148002391
S11334300022FFF771FB1F4B01221A731C4B1B6800
S11334400C3319001C4800230022FFF765FB1A4BBC
S113345001221A73194B1968194875233922FFF789
S11334605BFB184B7A681A60164B1B681800FFF751
S1133470FDFC144B1B68012B02D1134B00221A6074
S1133480124B00221A60124B00221A60114B0022C8
S11334901A60C046BD4607B090BDC046300100204A
S11334A050000020B44D0000944D0000A84D0000D1
S11334B05400002030020020200200205800002088
S11334C04002002038000020500200205402002056
S11334D0580200205C02002090B583B000AF0200C7
S11334E03960FB1D1A70FB1D1B787F2B28D82F4ACF
S11334F0FB1D1B785BB29B08C0339B009B58FA1DD5
S11335001278110003220A40D200FF2191400A00E0
S1133510D2431A4011003B689B01FF221A40FB1D55
S11335201B78180003230340DB009A401F48FB1D4F
S11335301B785BB29B080A43C0339B001A5031E0EE
S11335401B4AFB1D1B7819000F230B40083B9B08EB
S113355006339B00D31804331B68FA1D127811003C
S113356003220A40D200FF2191400A00D2431A40AC
S113357011003B689B01FF221A40FB1D1B781800B9
S113358003230340DB009A400948FB1D1B781C0001
S11335900F232340083B9B080A4306339B00C318B0
S11335A004331A60C046BD4603B090BD00E100E09C
S11335B000ED00E080B582B000AF78607B68013B2D
S11335C00C4A934201D9012310E00B4B7A68013A6B
S11335D05A6001235B4203211800FFF77DFF064B6D
S11335E000229A60044B07221A6000231800BD468B
S11335F002B080BDFFFFFF0010E000E080B500AF27
S1133600034BDB6C1B0EDBB21800BD4680BDC0460D
S1133610B081E00F90B583B000AF0C4B01221A6467
S1133620FC1DFFF7EBFF03002370FB1D1B78812BB0
S113363008D8074B074A1A60074B1A68064B074914
S11336400A401A60C046BD4603B090BD00000C405D
S113365018600C4005000004E4800C40FFFFFFFEEE
S113366080B500AF00F082FBC046BD4680BD0000BF
S113367080B500AFFFF7CEFF04211120FEF7F8FA62
S11336800C4B1800FEF740F90200FA2399001000D1
S113369000F0D4FD03001800FFF78CFF031E00D0D8
S11336A0FEE700F015FC00F063FC00231800BD46A3
S11336B080BDC0467000020090B58BB000AFF860CA
S11336C0B9607A6000237B62C3E07B6A7A68D218AF
S11336D01B217B1812781A707B181B781F2B04D9B6
S11336E01B23FB181B787E2B03D91B23FB182022DA
S11336F01A700023FB6198E01B23FB181B78203B06
S11337001C00594B1B681900F86900F021FE0300E6
S11337101A0064235343E2181A23FB1853498A5CA2
S11337201A7000233B624EE01A23FB181C784E4BA0
S11337301B681900386A00F00BFE03001C412300CB
S1133740012213403CD0FA683B6AD218B968FB697D
S1133750CB18DB01D318002B00DA0733DB101A0077
S1133760434BD3187B61FA683B6AD318414A134030
S113377004D5013B08225242134301333B613E4BC3
S11337801B68002B0FD07B691B785BB201213A695F
S113379091400A0052B2D24352B213405BB2DAB241
S11337A07B691A700CE07B691B785AB201213B6972
S11337B099400B005BB213435BB2DAB27B691A70B7
S11337C03B6A01333B62284B1A6813005B009B1869
S11337D05B001A003B6A9342A6DB284B1A68B9685F
S11337E0FB69CB18002B00DA0733DB101800030049
S11337F0D3181B785AB2B968FB69CB181D490B4022
S113380004D5013B082149420B430133190001232C
S11338108B405BB213435AB2184B1B6801005B1810
S1133820D2B21A70FB690133FB610F4B1B68DB00DA
S1133830FA699A4200DA5FE77B6A01337B620A4BDA
S11338401A6813005B009B185B001A00FB689B1846
S1133850FB607B6A7A68D3181B78002B00D034E7AE
S1133860C046BD460BB090BD4C000020204E000069
S11338706402002007000080840A00204800002021
S113388080B58AB000AFF860B9607A6000233B620B
S113389086E000237B6256E07B681B681A017B6A22
S11338A0D318002B00DA0733DB1019003A6A13002F
S11338B0DB009B181B0100D50733DB10CA181F233C
S11338C0FB183C498A5C1A707B6A3B4A134004D556
S11338D0013B0822524213430133BB611F23FB18EF
S11338E01A78BB691A4113000122134028D0FA68E0
S11338F07B6AD218B9683B6ACB18DB01D318002B5A
S113390000DA0733DB101A002C4BD3187B61FA68FA
S11339107B6AD318284A134004D5013B082252423B
S1133920134301333B617B691B785AB201213B6924
S113393099400B005BB213435BB2DAB27B691A7035
S11339407B6A01337B627B685B687A6A9A42A3DB99
S11339501B4B1A68B9683B6ACB18002B00DA073393
S1133960DB1018000300D3181B785AB2B9683B6AFD
S1133970CB1811490B4004D5013B082149420B43A4
S11339800133190001238B405BB213435AB20C4B31
S11339901B6801005B18D2B21A703B6A01333B62A8
S11339A07B689B683A6A9A4200DA72E7C046BD4671
S11339B00AB080BD4051000007000080640200206E
S11339C04800002080B588B000AFF860B9607A6024
S11339D03B60BB68BB6163E0FB68FB6138E0BB69CB
S11339E0DA01FB69D318002B00DA0733DB101A0065
S11339F02F4BD3187B61FB692E4A134004D5013B3E
S1133A0008225242134301333B61BB6A002B0DD0A1
S1133A107B691B785AB201213B6999400B005BB268
S1133A2013435BB2DAB27B691A700EE07B691B78D0
S1133A305BB201213A6991400A0052B2D24352B2B8
S1133A4013405BB2DAB27B691A70FB690133FB6124
S1133A50FA697B689A42C2DB174B1A68BB69002B70
S1133A6000DA0733DB1018000300D3181B785AB2AE
S1133A70BB6910490B4004D5013B082149420B4363
S1133A800133190001238B405BB213435AB20A4B32
S1133A901B6801005B18D2B21A70BB690133BB61A9
S1133AA0BA693B689A4297DBC046BD4608B080BD00
S1133AB064020020070000804800002080B582B026
S1133AC000AF786080231A017968044B180000F075
S1133AD0ADFDC046BD4602B080BDC04664020020B4
S1133AE080B500AF034B1800FFF7E8FFC046BD46A2
S1133AF080BDC046D0510000B0B588B002AF02000E
S1133B003960FB1D1A7000237B61FB1D1B78002BA1
S1133B100DD03B681C6A3B685A684E49386880235C
S1133B2001930023009313000022A0478DE000239B
S1133B303B6153E0484B1A683B69002B00DA0733BA
S1133B40DB10D3181B7819003B69444A134004D591
S1133B50013B082252421343013319410B00012255
S1133B60134017D13E4B1A683B69002B00DA073328
S1133B70DB10D3181B7819003B69384A134004D56D
S1133B80013B082252421343013319410B00012225
S1133B90134003D07B6901337B611CE07B69002BFC
S1133BA019DD3A697B69D31AFB603B681C6AFB68C0
S1133BB0DB0100D50733DB101A00264BD1183B6814
S1133BC05D68FB687A693868019200932B000022D3
S1133BD0A04700237B613B6901333B613B697F2B39
S1133BE0A8DD7B69002B17DD7B698022D31AFB607B
S1133BF03B681C6AFB68DB0100D50733DB101A0045
S1133C00144BD1183B685D68FB687A693868019287
S1133C1000932B000022A0470F4B1B68BB60104B86
S1133C201A680D4B1A600E4BBA681A6000233B6188
S1133C3008E0094B1A683B69D31800221A703B69E3
S1133C4001333B613B690F2BF3DDC046BD4606B033
S1133C50B0BDC04664020020480000200700008078
S1133C604400002080B582B000AF0200FB1D1A7032
S1133C70FB1D1B787F2B09D8FB1D1B781A001F2303
S1133C801A40044B012191400A001A60C046BD4607
S1133C9002B080BD00E100E080B582B000AF020058
S1133CA0FB1D1A70FB1D1B787F2B0AD8FB1D1B788C
S1133CB01A001F231340054901229A40C0235B00C8
S1133CC0CA50C046BD4602B080BDC04600E100E017
S1133CD080B582B000AF786004498E235B007A68B7
S1133CE0CA50C046BD4602B080BDC0460060004018
S1133CF080B500AF034A8A235B00D3581800BD4641
S1133D0080BDC0460060004090B585B002AF04009D
S1133D10396010001900FB1D221C1A70BB1D021C07
S1133D201A707B1D0A1C1A70BB1D1C783A6839680E
S1133D30FB1D18781823FB181B7801937B1D1B7837
S1133D4000932300FEF760FAC046BD4603B090BD61
S1133D5080B500AF044B1A69034B04218A431A61EE
S1133D6030BFC046BD4680BD00ED00E080B500AF69
S1133D701C4B1B7801225340DBB2002B2CD11A4B75
S1133D801B685A1C184B1A60174B1B68052B04D16F
S1133D90154B00221A60FEF7FFFD144B1B685A1CDA
S1133DA0124B1A60114B1B68142B0AD10F4B0022C3
S1133DB01A600F4B1B78DAB20E4B1A700E4B0122AD
S1133DC01A700E4B1B68002B08DD0C4B1B685A1E27
S1133DD00A4B1A60C04601E0C04600E0C046BD463A
S1133DE080BDC046880A0020BC0A0020C00A00200A
S1133DF0D30A0020D10A0020D40A00208C0A002013
S1133E0080B582B002AF184B01211800FDF71AFDEE
S1133E100123022209210220FEF79EFA01230093C6
S1133E200123002209210220FFF76EFF0123022251
S1133E300A210220FEF790FA0123009301230022B5
S1133E400A210220FFF760FF0120FFF725FF012070
S1133E50FFF708FF0620FFF71FFF0620FFF702FF0A
S1133E60C046BD4680BDC0460082040080B582B015
S1133E7000AFFFF73DFF03007B607B681800FFF78E
S1133E8027FF7A6880239B00134002D0074B01224E
S1133E901A707A688023DB00134002D0044B01229D
S1133EA01A70C046BD4602B080BDC046D20A00208A
S1133EB0D00A002080B500AFFFF7D8FFC046BD464A
S1133EC080BD80B500AFFFF7D1FFC046BD4680BDC1
S1133ED080B582B000AFFCF71BFA0F4B190000202D
S1133EE0FCF740FA03007B607B68002B0FD1FFF7DF
S1133EF087FFFEF7C7FD094B00221A70074B1B789A
S1133F00DAB2074B1A70074B01221A7000E0C04660
S1133F10BD4602B080BDC046900A0020D10A0020F0
S1133F20D30A0020880A002080B500AF0C4B18008B
S1133F30FFF7C4FD0B4B1A0060210420FFF7BCFB04
S1133F40094B1A0068210420FFF7B6FB074B1A003F
S1133F5070210420FFF7B0FBC046BD4680BDC046BB
S1133F603C6200003C6A0000506A0000686A00007D
S1133F7080B584B002AF01237B60A34B1B78DBB216
S1133F80002B00D131E1A04B00221A709F4B1B780B
S1133F90DBB20A2BF1D89A009D4BD3181B689F46BD
S1133FA09C4B1800FFF78AFD9B4B19000120FFF77B
S1133FB0A3FD9A4B01221A7025E10320FEF73AFD76
S1133FC0031E0FD10420FEF735FD031E0AD1944BC6
S1133FD01B78DBB2002B05D1924B1B78DBB2002B94
S1133FE000D105E18E4B00221A708E4B00221A700C
S1133FF08A4B02221A70FBE0FFF796FF864B1900EA
S11340000120FFF779FD854B03221A70FBE0844BF6
S11340101B78DBB2002B00D1ECE0814B00221A703C
S11340207E4B04221A70E5E07B681800FFF7BEF9A6
S1134030FFF714F8784B19000120FFF75DFD7A4B68
S1134040FA2292001A60754B05221A70DBE0764B57
S11340501B68002B00D0CFE0714B00221A706F4B0D
S113406006221A70C8E06E4B1B78DBB2002B06D018
S11340706B4B00221A70694B07221A70C3E00320AD
S1134080FEF7D8FC031E0DD00420FEF7D3FC03007A
S11340901A0001235340DBB2002B03D00120FEF7AA
S11340A035FF13E00420FEF7C5FC031E0ED00320E9
S11340B0FEF7C0FC03001A0001235340DBB2002BBF
S11340C004D001235B421800FEF720FF554B1B78F8
S11340D0DBB2002B04D0534B00221A70FEF73EFFD4
S11340E0FFF74EF803003B60FEF7B8FF3B68012B77
S11340F014D10023009345235D2239212320FFF7A7
S113410061FC4A4B1A003B212520FFF7D5FA464BA8
S1134110474A1A60414B09221A701AE03B68022B85
S113412014D1002300934523572239212320FFF77C
S113413049FC404B1A003B212520FFF7BDFA3A4BBE
S11341403B4A1A60354B0A221A7002E0334B0622AE
S11341501A70314B19000020FFF7CEFC53E0FFF733
S1134160E3FE354B1A0050212E20FFF7A5FA2A4B07
S113417019000120FFF7C0FC284B08221A7042E006
S1134180274B1B78DBB2002B38D0254B00221A704A
S1134190FEF764FF204B19000120FFF7ADFC1F4B15
S11341A006221A702AE0204B1B68002B28D1012319
S11341B07B601B4B00221A701A4B00221A70174B9B
S11341C000221A701CE0184B1B68002B1AD17B6864
S11341D001337B60124B00221A70124B00221A70BA
S11341E00E4B04221A70C0460CE0FFF7B1FDC4E682
S11341F0C046C2E6C046C0E6C046BEE6C046BCE60F
S1134200C046BAE6C046B8E6D40A0020D10A002067
S11342109C6A00003C5A0000900A0020D30A002047
S1134220D20A0020D00A00208C0A00207C6A0000F8
S1134230DC050000886A0000946A0000002243083C
S11342408B4274D303098B425FD3030A8B4244D35A
S1134250030B8B4228D3030C8B420DD3FF2209029C
S113426012BA030C8B4202D31212090265D0030B5B
S11342708B4219D300E0090AC30B8B4201D3CB0351
S1134280C01A5241830B8B4201D38B03C01A524193
S1134290430B8B4201D34B03C01A5241030B8B4295
S11342A001D30B03C01A5241C30A8B4201D3CB0280
S11342B0C01A5241830A8B4201D38B02C01A524165
S11342C0430A8B4201D34B02C01A5241030A8B4268
S11342D001D30B02C01A5241CDD2C3098B4201D380
S11342E0CB01C01A524183098B4201D38B01C01AFE
S11342F0524143098B4201D34B01C01A5241030975
S11343008B4201D30B01C01A5241C3088B4201D323
S1134310CB00C01A524183088B4201D38B00C01AD0
S1134320524143088B4201D34B00C01A5241411AF7
S113433000D20146524110467047FFE701B5002004
S113434000F0F0F802BDC0460029F7D076E77047C8
S113435003460B437FD4002243088B4274D30309E2
S11343608B425FD3030A8B4244D3030B8B4228D383
S1134370030C8B420DD3FF22090212BA030C8B42A9
S113438002D31212090265D0030B8B4219D300E049
S1134390090AC30B8B4201D3CB03C01A5241830BCE
S11343A08B4201D38B03C01A5241430B8B4201D37E
S11343B04B03C01A5241030B8B4201D30B03C01AA7
S11343C05241C30A8B4201D3CB02C01A5241830A21
S11343D08B4201D38B02C01A5241430A8B4201D350
S11343E04B02C01A5241030A8B4201D30B02C01A7A
S11343F05241CDD2C3098B4201D3CB01C01A5241E1
S113440083098B4201D38B01C01A524143098B4269
S113441001D34B01C01A524103098B4201D30B0152
S1134420C01A5241C3088B4201D3CB00C01A524177
S113443083088B4201D38B00C01A524143088B423C
S113444001D34B00C01A5241411A00D201465241D5
S1134450104670475DE0CA0F00D04942031000D3F4
S11344604042534000229C4603098B422DD3030A49
S11344708B4212D3FC22890112BA030A8B420CD359
S1134480890192118B4208D3890192118B4204D382
S113449089013AD0921100E08909C3098B4201D302
S11344A0CB01C01A524183098B4201D38B01C01A3C
S11344B0524143098B4201D34B01C01A52410309B3
S11344C08B4201D30B01C01A5241C3088B4201D362
S11344D0CB00C01A524183088B4201D38B00C01A0F
S11344E05241D9D243088B4201D34B00C01A5241E6
S11344F0411A00D20146634652415B10104601D373
S11345004042002B00D54942704763465B1000D3FC
S1134510404201B5002000F005F802BD0029F8D0A2
S113452016E770477047C0461C2101231B049842BC
S113453001D3000C10391B0A984201D3000A083930
S11345401B09984201D30009043902A2105C4018E7
S11345507047C0460403020201010101000000008B
S113456000000000F0B5CE46474615042D0C2E0081
S113457080B50704140C3F0C9946030C7E435D433D
S1134580674363437F19340CE4199C46A54203D95D
S113459080235B029846C4444B4643435143250C55
S11345A036046544360C2404A4195B1959182000F8
S11345B00CBC90469946F0BD084B10B50400002B86
S11345C002D0002100E000BF054B1868836A002B6D
S11345D000D09847200000F0F7F8C0460000000023
S11345E0C86A000070B500260C4D0D4C641BA41065
S11345F0A64209D1002600F0E9F80A4D0A4C641BD2
S1134600A410A64205D170BDB300EB5898470136FB
S1134610EEE7B300EB5898470136F2E7C0000020FC
S1134620C0000020C0000020C4000020002310B5FA
S11346309A4200D110BDCC5CC4540133F8E70300A6
S11346401218934200D1704719700133F9E7000042
S1134650124B10B51C68A36B002B0FD1182000F06F
S113466029F80F4BA06303600E4B012243600E4BED
S113467083600B238381002302614361A46B0B4A93
S1134680206961690A4BFFF76DFF0122002380183E
S11346905941206161614800400810BD5C00002060
S11346A00E33CDAB34126DE6ECDE05002D7F954C58
S11346B02DF4515810B5034B0100186800F004F8AC
S11346C010BDC0465C000020032370B5CD1C9D4383
S11346D0083506000C2D1ED20C25A9421DD8300029
S11346E000F062F8254A14682100002919D1244CED
S11346F02368002B03D1300000F044F82060290027
S1134700300000F03FF8431C2BD10C233000336001
S113471000F04BF803E0002DDFDA0C2333600020B7
S113472070BD0B685B1B19D40B2B03D90B60CC1821
S1134730256003E04B688C420DD11360300000F01B
S113474034F8200007220B30231D9043C31AE7D00E
S11347505A42E250E4E763600C00EFE70C0049685A
S1134760C3E70323C41C9C43A042E1D0211A3000B8
S113477000F008F8431CDBD1C7E7C046C40A002098
S1134780C80A0020002370B5064C05000800236009
S113479000F00CF8431C03D12368002B00D02B60DD
S11347A070BDC046D80A002070477047044A136899
S11347B0002B00D1034B1818106018007047C04636
S11347C0CC0A0020E00A0020FEE7C046F8B5C04647
S11347D0F8BC08BC9E467047F8B5C046F8BC08BC97
S11347E09E4670475368617270204C533031334297
S11347F0374448303320233100000000633A5C73AF
S1134800696C69636F6E6C6162735C73696D706C03
S1134810696369747973747564696F5C76345C6414
S11348206576656C6F7065725C73646B735C6765E9
S1134830636B6F5F73646B5F73756974655C763209
S11348402E375C706C6174666F726D5C656D6C693B
S1134850625C696E635C656D5F6770696F2E68008A
S1134860050000000000000040420F0005010000A8
S11348700000000000000000010001000100010030
S1134880433A2F53696C69636F6E4C6162732F53A3
S1134890696D706C696369747953747564696F2F99
S11348A076342F646576656C6F7065722F73646BF4
S11348B0732F6765636B6F5F73646B5F7375697484
S11348C0652F76322E372F706C6174666F726D2F80
S11348D0656D6C69622F7372632F656D5F61636DC3
S11348E0702E6300633A5C73696C69636F6E6C610C
S11348F062735C73696D706C6963697479737475E0
S113490064696F5C76345C646576656C6F7065723F
S11349105C73646B735C6765636B6F5F73646B5F1D
S113492073756974655C76322E375C706C6174667D
S11349306F726D5C656D6C69625C696E635C656DFC
S11349405F636F6D6D6F6E2E68000000633A5C7379
S1134950696C69636F6E6C6162735C73696D706CB2
S1134960696369747973747564696F5C76345C64C3
S11349706576656C6F7065725C73646B735C676598
S1134980636B6F5F73646B5F73756974655C7632B8
S11349902E375C706C6174666F726D5C656D6C69EA
S11349A0625C696E635C656D5F636D752E680000A3
S11349B0433A2F53696C69636F6E4C6162732F5372
S11349C0696D706C696369747953747564696F2F68
S11349D076342F646576656C6F7065722F73646BC3
S11349E0732F6765636B6F5F73646B5F7375697453
S11349F0652F76322E372F706C6174666F726D2F4F
S1134A00656D6C69622F7372632F656D5F636D757D
S1134A102E630000F01500002C150000F0150000B6
S1134A20F01500003C150000F0150000F015000022
S1134A305415000088150000BC150000F015000096
S1134A40F0150000F01500006C150000F0170000D0
S1134A5054160000F0170000F01700009A1600002A
S1134A60F0170000F0170000FA1600004C170000C1
S1134A70A0170000F0170000F0170000F017000066
S1134A80D6160000A4180000721800007818000060
S1134A906C180000A4180000A41800007E18000080
S1134AA08818000092180000A41800009E18000046
S1134AB0361C0000AC1A0000141B0000601B000030
S1134AC0AC1B0000361C0000DE1B0000E81B0000CD
S1134AD0CC1E0000AA1C0000541D0000541D000040
S1134AE0F21D0000CC1E0000CC1E00004C1E000075
S1134AF0101D0000101D0000BC1C0000CA1C00009A
S1134B00D81C0000E61C0000101D0000101D000051
S1134B10101D0000101D0000101D0000F41C0000FA
S1134B20021D0000A81D0000661D00006C1D000091
S1134B307C1D0000A81D0000A81D00008C1D0000A5
S1134B40A81D0000A81D0000A81D0000A81D00004D
S1134B50A81D00009E1D0000801F0000721F0000A1
S1134B60561F0000481F0000641F0000921F000031
S1134B70633A5C73696C69636F6E6C6162735C73D6
S1134B80696D706C696369747973747564696F5C59
S1134B9076345C646576656C6F7065725C73646BA7
S1134BA0735C6765636B6F5F73646B5F7375697464
S1134BB0655C76322E375C706C6174666F726D5C06
S1134BC0656D6C69625C696E635C656D5F67706975
S1134BD06F2E6800433A2F53696C69636F6E4C61A2
S1134BE062732F53696D706C69636974795374755A
S1134BF064696F2F76342F646576656C6F706572A7
S1134C002F73646B732F6765636B6F5F73646B5F84
S1134C1073756974652F76322E372F706C617466E4
S1134C206F726D2F656D6C69622F7372632F656D82
S1134C305F6770696F2E6300433A2F53696C696331
S1134C406F6E4C6162732F53696D706C6963697424
S1134C507953747564696F2F76342F646576656C47
S1134C606F7065722F73646B732F6765636B6F5F0F
S1134C7073646B5F73756974652F76322E372F708A
S1134C806C6174666F726D2F656D6C69622F7372DF
S1134C90632F656D5F7072732E630000433A2F5368
S1134CA0696C69636F6E4C6162732F53696D706CCC
S1134CB0696369747953747564696F2F76342F64EA
S1134CC06576656C6F7065722F73646B732F67659F
S1134CD0636B6F5F73646B5F73756974652F763292
S1134CE02E372F706C6174666F726D2F656D6C69F1
S1134CF0622F7372632F656D5F7274632E6300009D
S1134D00433A2F53696C69636F6E4C6162732F531E
S1134D10696D706C696369747953747564696F2F14
S1134D2076342F646576656C6F7065722F73646B6F
S1134D30732F6765636B6F5F73646B5F73756974FF
S1134D40652F76322E372F706C6174666F726D2FFB
S1134D50656D6C69622F7372632F656D5F75736126
S1134D6072742E6300000000FF000000FF000000CA
S1134D70FF000000FF000000FF000000FF00000033
S1134D800000000007000000070503003D000000CC
S1134D90010000000A0000001E00000032000000B4
S1134DA0460000005A0000000F0000001900000037
S1134DB023000000000000000300000000000000C9
S1134DC003000000000000000100000004000000D7
S1134DD001000000040000000100000002000000C7
S1134DE002000000020000000200000002000000B7
S1134DF0E82E0000862E0000942E0000A22E000053
S1134E00B02E0000BE2E0000CC2E0000DA2E0000D2
S1134E104C4556454C00000053434F52453A000060
S1134E2000040A0A04030606080200000000000049
S1134E300E040E1F081F0C1F0E0E00001000010EA2
S1134E400E0E0F0E071F1F0E110E1C110111110E55
S1134E500F0E0F1E1F11111111111F0E000E040051
S1134E600200010010000C0001040801060000000B
S1134E7000000000020000000000000C0406000016
S1134E800000000000040A0A1E13090404040404B8
S1134E9000000000110611080C0102101111060691
S1134EA0080002111011111109010111110408095E
S1134EB0011B111111111101041111111111100211
S1134EC000080A00040001001000121E0100000185
S1134ED004000000000000000200000000000002C6
S1134EE0040802000000000000040A1F0108050273
S1134EF00208150400000010190410040A0F010828
S1134F0011110606041F04101011110111010101F1
S1134F1011040805011513111111110104111111C6
S1134F200A11080201081100080E0D0E160E0211D6
S1134F300D060C09040B0D0E0F160D0E07111111A1
S1134F4011111F0204081500000000000004000AEB
S1134F500E04020002080E1F001F000815040808B2
S1134F6009100F040E1E00000200080816110F019C
S1134F70110F0F1D1F040803011515110F110F0E3A
S1134F8004111115040A04020208000000101301A0
S1134F90191107111304080504151311111913012C
S1134FA0021111110A110801041008000000000088
S1134FB00000001F1002150002081504060000047A
S1134FC0130404101F10110211100606041F040418
S1134FD0151F110111010111110408050111191105
S1134FE001150510041111150A0402020408000039
S1134FF0001E1101111F021E1104080304151111D2
S11350000F1E010E02111115041E040204080000F3
S1135010000000000000000A0F1909000404040441
S113502004000602110402110811110211080604F9
S113503008000200151111110901011111040909D7
S1135040011111110109091004110A1511040102B9
S113505008080000001111111101021011040905C2
S1135060041111110110011012190A150A1002027B
S113507004080000000000000004000A04181600E0
S113508008020000020006010E0E1F0E080E0E029A
S11350900E060002100001040E110F0E071F010E70
S11350A0110E06111F11110E0116110F040E040A20
S11350B011041F0E100E001F001E0F0E1E0E020EF6
S11350C0110E06090E11110E0110010F0C16040A1F
S11350D0110E1F0C04060000000000000000000078
S11350E000000000000000000000000000000000BC
S11350F000000000000000000000000000000000AC
S1135100000000000000000000000000000000009B
S1135110000000000000000000000000000000008B
S1135120000000000000000000000000000000007B
S1135130000000000000000000000000000000006B
S11351400401F00018000401F00001000100040053
S113515040008800FE073C008904FE0701000200AD
S11351600200E000FC01FF0F7E00FD05FF0F0100BF
S113517004000100E0007603670EDB007707670E8A
S1135180010002000200FE0FFF07FF0FFF00FF07F0
S1135190FF0F000001000400FF1FFD05980124001B
S11351A0FE039C03000002000200FF1F05056C03C0
S11351B05A0004016606000004000100FF1FD80025
S11351C0030CA50002020C03000000000000FF1FF6
S11351D000000000000000000000000000000000CB
S11351E000000000000000000000000000000000BB
S11351F000000000000000000000000000000000AB
S1135200000000000000000000000000000000009A
S1135210000000000000000000000000000000008A
S1135220000000000000000000000000000000007A
S1135230000000000000000000000000000000006A
S1135240000000000000000000000000000000005A
S1135250000000000000000000000000000000004A
S1135260000000000000000000000000000000003A
S11352700000000800000000000000000000000022
S1135280000000000000000000000000000000001A
S113529000000000000000400000000000000000CA
S11352A000000000000000000000000000000000FA
S11352B000000000000000000000000000000000EA
S11352C000000000000000000000000000000000DA
S11352D000000000000000000000000000000000CA
S11352E000000000000000000000000000000000BA
S11352F0000000000000000000000080000000002A
S11353000000000000000000000000000000000099
S11353100000000000000000000000000000000089
S11353200000000000000000000000000000000079
S11353300000010000000000000000000000000068
S11353400000000000000000000000000000000059
S11353500000000000000000000000000000000049
S11353600000000000000000000000000000000039
S11353700000000001000000000000000000000028
S11353800000000000000000000000000000000019
S11353900000000000000000000000000000000009
S11353A000000000000000000000000000000200F7
S11353B000000000000000000000010000000000E8
S11353C000000000000000000000000000000000D9
S11353D000000000000000000000000000000000C9
S11353E000000000000000000000000000000000B9
S11353F000000000000000000000000000000000A9
S11354000000000000000000000000000000000098
S11354100000000000000000000000000000000088
S11354200000000000000004000000000000000074
S11354300000000000000000000000000000000068
S11354400000000000000000000000000000000058
S11354500000000000000000000000000000000048
S11354600000000000000000000000000000000038
S11354700000000000000000000000000000000028
S11354800000000200000000000000000000000016
S11354900000000000000000000000000000000008
S11354A000000000000000000000000000000000F8
S11354B000000000000000000000000000000000E8
S11354C000000000000000000000000000000000D8
S11354D000000000000000000000000000000000C8
S11354E000000000000000000000040000000000B4
S11354F000000000000000000000000000000000A8
S1135500000000000000000000000000000800008F
S11355100000000000000000000000000000000087
S11355200000000000000000000000000000000077
S11355300000000000000000000000000000000067
S11355400000000000000000000000000000000057
S11355500000000000100000000000000000000037
S11355600000000000000000000000000000000037
S11355700000000000000000000000000000000027
S11355800000000000000000000000000000000017
S113559000200000000000000000000000000000E7
S11355A000000000000000000000000000000000F7
S11355B000000000000000000000000000000000E7
S11355C000000000000000000000000000000000D7
S11355D000000000000000000000000000000000C7
S11355E000000000000000000000000000000000B7
S11355F000000000000000000000000000000000A7
S11356000000000000000000000000000080000016
S1135610000000000000000008000000000000007E
S11356200000000000000000000000000000000076
S11356300000000000000000000000000000000066
S11356400000000000000000000000000000000056
S11356500000000000000000000000000000000046
S11356600000000000000000000000000000000036
S11356700000000000000000000000000000000026
S11356800000000000000000000000000000000016
S11356900000000000000000000000000000000006
S11356A000000000000000000000000000000000F6
S11356B000000000000000000000000000000000E6
S11356C000000000000000000000000200000000D4
S11356D000000000000000000000000000000000C6
S11356E000000000000000000000000000000000B6
S11356F00000000000800000000000000000000026
S11357000000000000000000000000000000000095
S11357100000000000000000000000000000000085
S11357200000000000000000000000000000000075
S11357300000000000000000000000000000000065
S11357400000000000000000000000000000000055
S11357500000000000000000000000000000000045
S11357600000000000000000000000000000000035
S11357700000000000000000000000000000000025
S113578000002000000000000000000000000000F5
S113579000000000000000000000000000002000E5
S11357A000000000000000000000000000000000F5
S11357B000000000000000000000000000000000E5
S11357C000000000000000000000000000000000D5
S11357D000000000000000000000000000000000C5
S11357E02000000000000000000000000000000095
S11357F00000000000000000000000400000000065
S11358000000000000000000000000000000000094
S11358100000000000000000000000000000000084
S11358200000000000000000000000000000000074
S11358300000000000000000000000000000000064
S11358400000000000000000100000000000000044
S11358500000000000000000000000000000000044
S11358600000000000000000000000000000000034
S11358700000000000000000000000000000000024
S11358800000000000040000000000000000000010
S11358900000000000000000000000000000000004
S11358A000000000000000000000000000000000F4
S11358B000000000000000000000000000000000E4
S11358C000000000000000000000000000000000D4
S11358D000000000000000000000000000000000C4
S11358E000000000000000000000000000000000B4
S11358F000000000000000000000000000000000A4
S11359000000000000000000000000000000000093
S11359100000000000000000000000000000000083
S11359200000000000000000000000000000000073
S11359300000000000000000000000000000000063
S11359400000000000000000000000000000000053
S11359500000000000000000000000000000000043
S11359600000000000000000000000000000000033
S11359700000000000000000000000000000000023
S11359800000000000000000000000000000000013
S11359900000000000000000000000000000000003
S11359A000000000000000000000000000000000F3
S11359B0FFFFFFFFFFFFFFFFFFFFFFFFFFFFFFFFF3
S11359C0FFFFFFFFFFFFFFFFFFFFFFFFFFFFFFFFE3
S11359D0000000000B0000000800000001000000AF
S11359E00C00000008000000020000000800000095
S11359F008000000030000000B0000000800000085
S1135A00040000000C000000080000000500000075
S1135A100100000004000000060000000300000074
S1135A20070000000700000003000000070000005A
S1135A30080000000D00000008000000FFFFFFFF49
S1135A40FFFFFFFFFFFFFFFFFFFFFFFFFFFFFFFF62
S1135A50FFFFFFFFFFFFFFFFFFFFFFFFFFFFFFFF52
S1135A60FFFFFFFFFFFFFFFFFFFFFFFFFFFFFFFF42
S1135A70FFFFFFFFFFFFFFFFFFFFFFFFFFC0FFFF71
S1135A80FFFF07FCFFFFFFFFFFFFFFCF3F80FFFF8C
S1135A90FBFF03F8FEFFFFFFFDFFFFCF1F9EFFFF8D
S1135AA0F8FFF13CFEFFFF7FFCFFFFC78FFFFFFF06
S1135AB0F8FFF13FFEFFFF7FFCFFFFC787FF1F3E9C
S1135AC0E0FFF10FF8819F18F0C37FC0C7FF0F3CC0
S1135AD0E0FFF10FF8001F18F0811FE0C7FFC7783F
S1135AE0FCFFE11F7F8C0F3FFE181FE3C3FFE37829
S1135AF0FCFF831F3F8E8F3F7E1C8FE3E3C17178D1
S1135B00FCFF071F1F8F8F3F3E0EC7E3E3C1017CDD
S1135B10FCFF0F1E1F8FCF3F3E80C7E3C3C7017F2B
S1135B20FEFF3F9E1FCFCF3F3FE0C7E3C3C7F17FD8
S1135B30FEFF3F9E1FC7C73F3FFEC7F1C7E7F13FC8
S1135B40FEFF3F8E1FC7C71F3FFEC7F187E7F13E29
S1135B50FE7F1E8E1FC3C71F3FDEC7F00FE0013E4E
S1135B60F83F000F1EC8C71F3CC007F23FF8077F6D
S1135B70F87FC01F3ECCE33FFCE00FF3FFFFFFFFC5
S1135B80FFFFFFFFFFFFFFFFFFFFFFFFFFFFFFFF21
S1135B90FFFFFFFFFFFFFFFFFFFFFFFFFFFFFFFF11
S1135BA0FFFFFFFFFFFFFFFFFFFFFFFFFFFFFFFF01
S1135BB0FFFFFFFFF7FFFFFFFFFFFFFFFFDFFDF723
S1135BC0FFFFFFFFFBEFFF7FF7DFFDFF7FFC1DC73C
S1135BD0F1C771C03BFE80717FFCB8FE7FDF7DD7CB
S1135BE0FDF775DBBDEFB67577DFBDFEFFDE1DD7B4
S1135BF0FBF775DB7DEFB67577DFBDFEFFDD5DD7A7
S1135C00F7F775DBFDEEB67577DFBDFE7FDC1DC7EC
S1135C1071C771DB3EEEB67177DC39FEFFFFFFFF23
S1135C20FFFFFFFFFFFFFFFDFFFFFFFEFFFFFFFF83
S1135C30FFFFFFFFFFFFFFFDFFFF3FFEFFFFFFFF33
S1135C40FFFFFFFFFFFFFFFFFFFFFFFFFFFFFFFF60
S1135C50FFFFFFFFFFFFFFFFFFFFFFFFFFFFFFFF50
S1135C60FFFFFFFFFFFFFFFFFFFFFFFFFFFFFF003F
S1135C700030CE0170FC0F0000FFFFFFFFFFFF00AC
S1135C800030CE0170FC0F0000FFFFFFFFFFFF009C
S1135C900030CE0170FC0F0000FFFFFFFFFFFFF894
S1135CA0FF31FE0FF0838FFF1FFFFFFFFFFFFFF8A1
S1135CB0FF31FE0FF0838FFF1FFFFFFFFFFFFFF891
S1135CC0FF31FE0FF0838FFF1FFFFFFFFFFFFF3841
S1135CD0C031C00FFE038C031CFFFFFFFFFFFF3822
