S0170000534C53544B33343030415F636C6F636B2E733337D9
S11300000020002055010000810100008101000052
S113001081010000810100008101000081010000D4
S113002081010000810100008101000081010000C4
S113003081010000800100008101000081010000B5
S113004081010000111D00008101000081010000F8
S11300508101000081010000191D000081010000E0
S1130060810100008101000081010000811D000068
S11300708101000081010000810100008101000074
S11300808101000081010000810100008101000064
S11300908101000010B5064C2378002B07D1054BD5
S11300A0002B02D0044800E000BF0123237010BDE0
S11300B09800002000000000F8320000044B10B546
S11300C0002B03D00349044800E000BF10BDC04624
S11300D0000000009C000020F8320000164B002BAA
S11300E000D1144B9D46402292029A1A9246002156
S11300F08B460F461348144A121A02F064FB0F4B46
S1130100002B00D098470E4B002B00D098470020BE
S1130110002104000D000D48002802D00C4800E026
S113012000BF02F019FB2000290001F0B3FE02F029
S11301301DFAC04600000800002000200000000056
S11301400000000098000020D00A002000000000F9
S113015000000000064880470649074A074B9B1ADF
S113016003DD043BC858D050FBDCFFF7B7FF0000A9
S11301706902000004330000000000209800002001
S1130180FEE7C0460048704700366E0110B5244AA9
S11301902449D36A0B40802149018B423CD014D8B6
S11301A0802109018B4223D0E021D368C9000B4090
S11301B0802189008B4229D01CD8002B2AD00139F8
S11301C0FF398B4224D0002008E0802189018B4232
S11301D00BD08021C9048B42E6D113481168C903AE
S11301E0490F013101F0E0FE10BD104B1868F5E72E
S11301F00F4BFBE7C02189008B4205D00131FF3151
S11302008B42E0D10B48E9E70B48E7E70B48E5E709
S11302100B48E3E70B48E1E780200002DEE7C04635
S113022000800C40003C000400366E0108000020F1
S113023004000020406F4001809FD500C0D8A70073
S113024040B56400804F120010B5FFF79FFF0F22E6
S1130250034B5B681340D840024B186010BDC04686
S113026000800C4000000020014A024B9A60704755
S11302700000000000ED00E0802000027047FA203A
S113028080007047014B18687047C0460800002082
S113029010B5084B1C78002C01D0002010BD0122A1
S11302A01A70054BE358002BF7D098470434002804
S11302B0F7D0F3E7E40000200C00002010B50A4B4F
S11302C00C001B78002B0BD000280BDC2C22010027
S11302D05143064B2000591802F06CFA002010BD5F
S11302E00348FCE70348FAE7E4000020B4000020D8
S11302F0050011800200118010B50B4B01001B7822
S1130300002B0DD0094A1368002B0BDC581C10601D
S11303102C2253430648C01802F04CFA002010BDAA
S11303200448FCE70448FAE7E4000020E000002069
S1130330B4000020050011800100118070B58029EF
S11303400ED1084C12012168074D8E180020AE42D0
S113035002D91860054870BD196089182160FAE750
S11303600348F8E714000020260A00200100118049
S113037002001180004870470400118010B500F09D
S113038017F900F0D1F8002010BDF8B5047C1D0069
S1130390013C631E9C410E0000276442E4B2380114
S11303A03018AF4201D10020F8BD1022210002F024
S11303B00AFA0137F3E7F7B500200F000A2100F02D
S11303C019F9062000F0F9F8089B02215D1C6B4620
S11303D09E1D0123ADB22A02134330003380002452
S11303E000F0C4F8099B200138189C4208D102206F
S11303F000F0E3F80A21002000F008F90020FEBD17
S1130400102100F0B3F8099B013BA34208D101235A
S11304105B42022130003380013400F0A7F8E1E7A9
S1130420FF226B1C1B191B021343F2E710B50800D3
S11304300821002804D0002000F0DCF8002010BDC2
S113044000F0E4F8FAE7000010B58CB000F0B0F862
S113045000F06AF800F0B6F800230C211A0004201A
S113046000F0BAF800230A211A00042000F0B4F8BE
S113047000230A211A00180000F0AEF80023082116
S11304801A00180000F0A8F8002303211A00052020
S113049000F0A2F840220321052000F0C3F8041E56
S11304A031D11A4B01A80193012303747F334360B4
S11304B0C3608360164B44744361164B8361164BCF
S11304C0C361164B0362164B4362164B8362FFF7FC
S11304D013FF041E17D1082100F08CF80A21200014
S11304E000F088F8062000F068F86B46981C042396
S11304F00221038000F03AF8022000F05EF80A219D
S1130500200000F083F820000CB010BD1030000073
S11305102D0400003D03000075030000B703000034
S11305208B0300007D03000030B587B06C462200C9
S11305300A4B23CB23C223CB23C2094D01210948F3
S113054000F048FE084B28002100A36001F044FBA2
S11305500A2300206B6507B030BDC0462830000078
S113056000C0004000320400E0C8100070B501264D
S113057004000D00002D06D120230C490A691A42FB
S1130580FCD0002070BD012D01D0344206D021786A
S1130590064801F059FB013D0134EBE7218803488B
S11305A001F058FB023D0234E4E7C04600C00040BD
S11305B010B500F0ABF8002010BD10B500F07CF9C8
S11305C0002010BD10B50121024800F003FE0020F8
S11305D010BDC0460082040010B5141E05D1C0B27F
S11305E0042201F06BF9200010BD0148FCE7C0466D
S11305F0010013800123C2B224208B405043024ADD
S11306008018036100207047006000400123C2B2DB
S113061024208B405043024A8018436100207047D5
S113062000600040F0B585B005000E0027480121A8
S1130630019200F0CFFDA02101228903002001F0E6
S113064049FA234B23499A6801241140802252001D
S11306500A43310000269A609A68E8B222439A60FD
S11306600023042201F02AF91B4903AD03221831A7
S1130670280002F09FF8194F2100194800F0AAFD44
S11306800C21184800F090FF3800022100F02CFDE6
S11306902100380000F09EFD28002E706E70AC70B2
S11306A001F04AFA380000F089FE019901F07CFC5F
S11306B0411E0902090A300001F01CFA01F04CFA4B
S11306C0200001F025FA300005B0F0BD00620400FE
S11306D000C00C40FFF8FFFF283000008006120025
S11306E0D0233E0002001E00FEE70000054B02007E
S11306F01968002901D104491960186882181A6020
S11307007047C046280A0020D00A0020F0B58DB0FA
S1130710032261490BA802F04DF800225F4C236CC0
S113072002925B0705D401215D4800F053FD0123CB
S113073002935C4800F08EFD4023E26A03211A40D4
S113074007905848019200F02FFF574800F090FCA2
S1130750802108904900544800F0C6FCA36D002293
S113076001240392234204D121004F4800F032FDBA
S1130770039400F0EFFF01264C4C099025683540A6
S113078000D16BE0236880210493A368484A059351
S1130790E368E569069300232360E3610733A361FB
S11307A07A33FF334901D15000230BA8837001F041
S11307B0C3F9404B8022190052011A601A68520092
S11307C01A600AD0606862689042FCD060680A6867
S11307D0013AFDD862689042F0D0364B09211800E6
S11307E01A6852081A601A680139002901D052089F
S11307F039D1099800F0B2FF002E48D008992A4850
S113080000F072FC012001F08DF9059B0020A3602B
S1130810069BE360049B2360E56101F083F9039B7D
S1130820002B03D00021204800F0D4FC079B032BAD
S113083003D019001B4800F0B7FE019B002B04D124
S11308401A001900012000F079FE029B002B03D04E
S11308500021134800F0BEFC0DB0F0BD06950595CF
S113086004952E00A0E71F6817431F606768BC4605
S11308706768BC45FCD06768BC460768013FFDD883
S11308806768BC45B0D0076897430760ACE73000A1
S113089001F03EF9C3E7C0464330000000800C403D
S11308A0D0233E0002001E00800612000000084013
S11308B000E100E01800002008490300002B0CD0E0
S11308C0013B88221202003253430A68D80AD20A32
S11308D05043800901D00138FDD87047180000202A
S11308E0044B1A780123002A02D0034B036000232F
S11308F018007047640A00202C0A0020F0B5060096
S11309000C4804780120002C13D00B4CB518278810
S11309100330BD420DDC6788CD18BD4209DC0130CF
S1130920002A06D0002B04D00020A680E18022817A
S11309306381F0BD640A00202C0A0020F0B587B062
S11309400593504B04001B780120002B18D04E4B0C
S11309501B68002B14D04D4A557C002D00D08EE02E
S11309609268D20803924A4A039FD2880290891857
S11309708AB257430192DF190D9B002B02D1180054
S113098007B0F0BD424A0D9B15892D1B9D4200D92D
S11309901D000D9B5B1B0D933C4B197C01292DD82D
S11309A0059B58424341DBB25E1EF6B2012901D0D9
S11309B05E42F6B290882418A4B2072D32D8651985
S11309C0002E19D1A54219D907220299224091403B
S11309D0E308FB181A7801348A431A70A4B2F1E7C9
S11309E007220299224091400A00E308FB18197873
S11309F001340A431A70A4B2A542F1D81F22019807
S1130A00019B024002982349904002005B119B0025
S1130A105858002402435A50019B01330193039B0D
S1130A20FF18A9E707222240E4083C19002A0CD049
S1130A30029B20789340DBB25942013B3140034092
S1130A400B43083A2370AD180134EB0804930BD020
S1130A501A002000310001F0B6FEEB08DB00ED1AAD
S1130A60049BE418002DC9D0029B2278AB40DBB272
S1130A705942013B0A401E4016432670BEE70A2035
S1130A807EE7C046640A0020680A0020380A002075
S1130A902C0A0020900A002070B504000B480123A2
S1130AA08569002D0FD00A4EC26833004168A847FB
S1130AB032680B23002A06D02260FF211022054849
S1130AC001F081FE0023180070BDC046380A0020E2
S1130AD0680A0020900A0020F7B50024184D2B78EE
S1130AE0A34229D1FFF7D4FB041E25D1154E3100B2
S1130AF0FFF7E4FB041E1FD1134F3800FFF7CCFFB0
S1130B00041E19D13B68002B18D0F368716898B2A1
S1130B1003000E4A8FB25080508117809480D48095
S1130B20178101227B432A70210001930094230042
S1130B3022002000FFF702FF2000FEBD0B24FBE78C
S1130B40640A0020380A0020680A00202C0A0020C9
S1130B50F0B585B0244B01259968CB080293234B4B
S1130B601C6800231F002048FE18C268964209D35F
S1130B70002B2BD1102200211C4801F024FE002060
S1130B8005B0F0BD012222400AD001331F21FA181A
S1130B9064080A42E7D1154AA9008C580135E2E7F6
S1130BA0002B11D0029979430391114909680193EB
S1130BB08C46039900976144076A4368B847002844
S1130BC0DED1771C0300E1E70137DFE70299084A29
S1130BD079431268019300975118046A436800220C
S1130BE0A0470028C6D0CBE7380A0020900A00208E
S1130BF0680A002010B503000520002B06D0002150
S1130C001A68080053881288FFF778FE10BD73B580
S1130C1005000520002D13D028006C68FFF7EAFFBB
S1130C2000280DD12D68230A2E896989220C71436D
S1130C30E4B20191DBB2D2B200940100FFF77EFE70
S1130C4076BD10B502000520002A0DD0D36898B2F5
S1130C50136999B293695269013301325B1A121A0A
S1130C609BB292B2FFF74AFE10BDF8B505230028E7
S1130C701DD000291BD00E688C68013BA64216DAF1
S1130C804D68CA68954212DA013B002E0FDB002D35
S1130C900DDB01680F88BC4209DA49888A4206DA0A
S1130CA0C660056144618261FFF7CBFF0300180051
S1130CB0F8BD000010B586B004000520002C16D045
S1130CC0002363600B4B01A8A360FFF709FE002813
S1130CD00DD1019B02901A880390013A236004927B
S1130CE05B8802A9013B20000593FFF7BEFF06B015
S1130CF010BDC046FFFFFF00F7B5052504000E0038
S1130D001700002812D00C3000F02DF8043D002804
S1130D100CD0A468B9B2230A220CE4B20195DBB268
S1130D20D2B2B0B20094FFF709FE05002800FEBD60
S1130D30F7B505250E0017001C00002811D00C3053
S1130D4000F011F8043D00280BD0230A220CE4B271
S1130D500195DBB2D2B2B9B2B0B20094FFF7EEFDA6
S1130D6005002800FEBD10B5031E0FD00468002343
S1130D708C420BDC84688C4208DB4168914205DCC0
S1130D80C168D00FCB1791424341DBB2180010BDAC
S1130D90F0B589B006930EAB1B7804000592079357
S1130DA00520002C24D00B00203B03385E2B1FD8D9
S1130DB02200283212788BB282421BD10A273A29A8
S1130DC003D00137303B202915D1238C0220BB42AC
S1130DD00ED90026E3690493069B0193019B0699AF
S1130DE0A21D5B1AD27F9BB29A4206D87042704110
S1130DF009B0F0BD203B9FB2E7E7E31CDB7F012B8A
S1130E0005D0022B20D0049ABB009B5801E0049B20
S1130E10DB5D0293059B0393039B059A9D1A631D57
S1130E20DB7FADB2AB4213D82200631D0832DB7FF7
S1130E30D27F9B189D4229DB231DDB7FFF18019B7A
S1130E40BFB201330193C9E7049A7B009B5AE0E7E0
S1130E500122029B13420FD0019A03992000FFF74D
S1130E604BFF0128C4D8434258413618029B5B0803
S1130E700293039B0133CEE7079B002BF6D06368F4
S1130E80019A03992000FFF753FFEAE7079B002B21
S1130E900BD0059B019A591920006368FFF748FF9E
S1130EA00128A5D84342584136180135ADB2BBE7F5
S1130EB0F0B587B003930CAB40CB05001B7805203D
S1130EC00593002D13D0002911D02B0028331B7853
S1130ED00338002B0BD08B18049300230C00039FC2
S1130EE00293049BA34204D102984342584107B0A1
S1130EF0F0BD21780A2908D1AB1DDB7F039F9E1921
S1130F00EB1DDB7F9E190134EBE7059B3A00009350
S1130F1028003300FFF73CFF0128E8D8434258413A
S1130F202A00029B08321B1802936B1DDB7FD27FC1
S1130F309B18FF18E7E710B50523002806D01C30DE
S1130F401022002904D101F03EFC0523180010BD35
S1130F5001F030FC0023F9E7E0228021184BD20095
S1130F605B69890013408B421DD007D8002B0DD03C
S1130F7080225200934220D0002008E0C021890042
S1130F808B4205D09342F7D10E4800E00E487047DB
S1130F9012200E4BDB6C1B0E984280410C4B184008
S1130FA00C4BC018F3E71220084BDB6C1B0E984265
S1130FB08041094B1840094BF3E70948E7E7C0466D
S1130FC000800C40406F4001809FD500B081E00F4D
S1130FD0400D030040420F0080E5F9FFC0CF6A00D6
S1130FE0C0D8A70010B5094B094A5C68002190429B
S1130FF005D9084A0131904201D906312140072020
S11310005A6882430A435A6010BDC04600000C402F
S11310100024F4000048E80170B5064C064BE56B6B
S1131020E363FFF7AFF8FFF7DDFF002D01D00023E6
S1131030E36370BD00000C40711B0000034B5A6D4C
S1131040D20702D41A6D0242FCD1704700800C40D2
S113105070B5054C054BE56BE363FFF7C3FF002D4B
S113106001D00023E36370BD00000C40711B00003D
S113107000B503000006000F01380C282CD800F03E
S113108089FF072B2B0D2B2B131E242B2B2B160028
S1131090124B1868C003400F013000BD0F4B9B6812
S11310A00F221340012008E00C4B5B68F8E7012095
S11310B00A4B5B681B0A03401B189840EDE7084A7B
S11310C0934209D1054B9B6EEAE7064A934203D14A
S11310D0024B03221B6FE4E70120DEE700800C4093
S11310E08006120090071A0010B503000006000FD6
S11310F001380C000C2823D800F04CFF07222217DB
S11311002222303E502222222300FFF785FF2C4A60
S11311102C491368013CA4030B401C431460FFF7E3
S113112093F80021FFF794FF0AE0080001F0B2F8F9
S11311300F2223498B6893431032101A1843886096
S113114010BD080001F0A6F81E231D49181A4A68AC
S11311501D4B0002134018434860F1E7FFF75CFFA2
S1131160200001F097F80F2215494B689343103281
S1131170101A18434860D2E7144A9342E0D104207D
S1131180FFF75CFF200001F085F80F220C498B6EFD
S113119093431032101A18438866D1E70C4A9342DD
S11311A0CED14020FFF74AFF200001F073F803225C
S11311B003490B6F93431C32101A18430867BFE7A7
S11311C000800C40FF3FFEFFFFFEFFFF8006120081
S11311D090071A0070B505000005000F01380E00D5
S11311E0092815D800F0D6FE0515251414181B1E61
S11311F014220020104CED03ED0E002801D0FFF75F
S11312001DFF0122AA40AE40236893431E4326607B
S113121070BD0020094CEEE70120094CEBE71020DB
S1131220084CE8E78020084C4000E4E70020074C25
S1131230E1E70020064CDEE708800C4044800C40C7
S113124058800C4060800C4064800C4078800C40D6
S113125040800C4000B50F2318400138062805D8FB
S113126000F098FE0620334604645200002000BDBE
S11312702F4B304ADB6A03201340802252019342F1
S1131280F5D006D88022013012019342EFD0052018
S1131290EDE78022022092019342E8D080220930B7
S11312A0D204F2E70321224A936A0B401800022B6E
S11312B0DDD006208B42DAD00800012BD7D0936A08
S11312C00238DB03D3D50B30D1E70C2218490220B6
S11312D08B6A1340082BCAD004309342C7D003381A
S11312E0042BC4D08B6A0238DB02C0D51000BEE7E1
S11312F030200F4B9B6A03402D38102BB7D0203B76
S1131300584258410130B2E7E0208022084BC00225
S1131310DB6A9202034003209342A8D08022073064
S1131320D2029342A3D0044A9B18E9E707209EE720
S113133000800C40003C00040000FFFF10B50400D6
S1131340FFF788FF1A498C420AD01A4B9C420CD0F2
S11313500300032B2AD8180000F01CFE180C1114EB
S11313600320154B9B6A0340F3E7134B9B6A1B074F
S11313709B0FEEE7FEF780FF0300180010BDFEF799
S113138081FFF9E7FEF760FF4308F6E78C4202D0DD
S1131390084A9442F1D1084A1020926A8C4200D043
S11313A00430C240E9D0FEF76AFFE5E70023E4E732
S11313B002001E000300200000800C4070B5F822DB
S11313C00300902192030400134049038B4245D04B
S11313D017D88022D202934235D007D8002B53D09D
S11313E080229202934236D0002070BDE022120384
S11313F0934242D0802252039342F5D1FFF7ACFDD1
S1131400F3E7802189038B422ED00BD8D0225203DC
S113141093422BD0F02252039342E5D12748FFF7A1
S11314208DFFE2E7982189038B4230D09342DBD1D0
S1131430FEF70AFF05002000FFF71AFE010028004E
S113144000F0B2FDD1E7FEF7A1FE1D4B9B680F2211
S11314501340D840C9E7FEF7F7FEC6E71748FFF781
S11314606DFF174B9B6EF2E71648D8E71548FFF758
S113147065FF134B03221B6FEAE71348FFF7EAFEED
S11314800728BBD00928AFD1FEF780FEADE70F488F
S1131490FFF7E0FE02380828A6D800F071FD050821
S11314A0A5A5A5A5A5F50B00FEF7ECFE9DE7FEF7A7
S11314B0E3FE9AE7064B186897E7C04602001E0051
S11314C000800C400300200006000E0007332600B5
S11314D01C00002070B50600042827D8154B00F026
S11314E059FD0306090C2600DC6AE4B207E0DC6A55
S11314F0240AFAE7DC6A240CF7E7DC6A240E1120DC
S1131500FFF7A8FE0500052801D1FFF785FD0A4B6A
S11315103602D868C00AC00230430443DC60052D9B
S113152004D1FEF791FE0021FFF792FD70BD1C6B04
S1131530DBE7C046B081E00F00800C4030B50528E1
S113154013D800F027FD1B170327132108200423B9
S11315500324134D002921D02B62002A05D0012336
S1131560A34010490A681A42FCD030BD2020102341
S11315700524EEE7802040230724EAE78020802327
S113158080005B000924E4E7802080230001DB0065
S11315901624DEE7012302201C00DAE72862E4E7D0
S11315A000800C402C800C4070B50F250540681E4F
S11315B00C0006281ED800F0EDFC042929631D1D2B
S11315C07F00881E092815D800F0E4FC1D051518B5
S11315D014141414141B0120032401221100FFF716
S11315E0ADFFFFF719FD4C4B5C62FEF72DFE0021A9
S11315F0FFF72EFD70BD02200400EEE70320012456
S1131600EBE70520F8E700200424E6E7481E0B2852
S1131610F0D800F0B5FC2B131BEFEF23EFEFEFEF47
S1131620EF06012200233C4CA16A022D21D13B4844
S11316300140194313040B43A362DBE7012200209A
S11316401100FFF77BFF00220223ECE701221100C7
S11316501000FFF773FF00220123E4E70421304A5E
S113166013680B43136000220323DCE700221300FA
S1131670D9E712059B0013432A4A0A401343DBE7C8
S1131680022905D0032910D00129B3D1002404E094
S1131690012200201100FFF751FF30211E4A2401CE
S11316A0936A8B431C439462A4E701221100100047
S11316B0FFF744FF0124F0E7032911D00A291DD0C4
S11316C0022997D1012200201100FFF737FF4022A1
S11316D0114B5A6280225202D96A1142FCD089E726
S11316E0012211001000FFF729FF60220A4B5A6201
S11316F080229202D96A1142FCD07BE701220520A4
S11317001100FFF71BFF8022034B5A628022D20292
S1131710D96A1142FCD06DE700800C40FCFFFEFF4B
S113172040800C40F3FFEFFF10B501224000013070
S113173082408140024C236893431943216010BDC9
S113174078800C40EFF3108072B67047002800D107
S113175062B67047EFF3108072B6704710B5FFF7AA
S1131760F5FF10BD10B5054B1120DA6A044B1A6061
S1131770FFF770FD034B187010BDC04600800C408D
S11317806C0A0020700A0020F8B556218026104FFC
S1131790104B114CFD6FFB672368FF311940F600B5
S11317A0DB0A0E4833400B4303620D4B06001978E5
S11317B0052902D01120FFF7F7FE012322681A42FF
S11317C001D1022232621D4201D00023FB67F8BD21
S11317D008800C400E5800006C0A002000800C4069
S11317E0700A002070477047F8B5051E01D0FFF756
S11317F0B9FF04230F4A104E11690B431361346877
S11318000E4B1C400E4BDC67FFF7ECFFFFF79AFF13
S1131810070001F0F5FB3800FFF798FFFFF7E3FF3F
S11318203460002D02D0FFF7AFFFF8BDFEF70CFDCA
S1131830FBE7C04600ED00E000E100E094A3F7FF01
S113184004E100E0F7B508A90E7809A901930C7822
S1131850072A21D8134D97000723BB40B8402968B5
S1131860964099430843286001259540019BE9432C
S1131870934094400C4F38680840184338600B4834
S113188003680B4033430360094B1D62094B18681E
S1131890014021431960F7BD1700083FBF00064D02
S11318A0DAE7C04600610040086100400C61004076
S11318B0FC6000401061004004610040F0B5002A63
S11318C008D0242401254443194E8D40A419002B2B
S11318D01CD0256124244443154D6419072917D8C5
S11318E00F268F00BE406568B5431600BE403543E1
S11318F06560002A09D101328A4011002422424342
S1131900002B11D00A4BD2181161F0BD6561E1E7DB
S11319100F27084EA5688E19B600B740BD431700BF
S1131920B7403D43A560E4E7014BD2185161ECE7B1
S113193000600040F8FFFF3FC36ADB0702D4036B7B
S11319401942FCD17047F7B50668032533002B40D4
S113195004000F0001920093002B05D00121FFF732
S1131960EBFF3300AB432360022504212000FFF783
S1131970E3FF062120006761FFF7DEFF65602900B1
S11319802000FFF7D9FF01236360019B9F420AD027
S113199029002000FFF7D0FF019B0621636120008E
S11319A0FFF7CAFF6560009B002B04D003212000D1
S11319B0FFF7C2FF2660F7BD002902D0012907D036
S11319C070471021C36B12018B431A43C263F7E7BC
S11319D0C36B024992020B40F7E7C046FFFBFFFFCF
S11319E0F7B50D00394B3A4AC718BB0A0193C36BCC
S11319F004001A400B7DC97C9B010B431343C36352
S1131A002B7B5A1E93416A7BDB00002A01D00422FF
S1131A101343AA7B002A01D010221343EA7B002A35
S1131A2002D08022520013432A7C002A02D0802252
S1131A30920013436A7CA97C920213430322002977
S1131A4003D00022022900D80A00202692031A4358
S1131A5023680021B3433343236001981700FFF741
S1131A6063FE2B789A1E012A13D8012120001F43FC
S1131A70FFF762FF012120002660FFF75DFF0121CF
S1131A800198FFF751FEAB6863610223636027602E
S1131A90F7BD23689B0705D03E4326600121200043
S1131AA0FFF74AFF20222368200093432360AA689B
S1131AB06968FFF748FF2B78002BE9D0012120004B
S1131AC0FFF73AFF2B783B432360E1E700A0F7BF21
S1131AD038FEFFFF1143054A054B114080220430B4
S1131AE0520511438000C1507047C04607003F00B3
S1131AF000C00C40002804D0012801D1024B196019
S1131B007047024BFBE7C0460C0008400800084041
S1131B100121034A13688B43184310607047C04681
S1131B2000000840034B002802D001221A627047CB
S1131B301862FCE70000084042780378002A01D0CC
S1131B40022213438278002A01D004221343014A5B
S1131B50136070470000084010B50020FFF7D8FF5D
S1131B600120FFF7D5FF10BD70B504001500081E55
S1131B7002D10548FFF722FC6900013800F014FA8D
S1131B800002606170BDC046408104000D4B0E4AE6
S1131B90C3600023036042600C4A83604361C364F2
S1131BA082640B4A4365904202D00A49884200D1BC
S1131BB003658365904202D0064B984201D100230D
S1131BC0C3657047AA0E000005100000F91F00004D
S1131BD000C0004000C4004070B50D000400FFF7D1
S1131BE0D5FF01212A8A23681143AA7B0B43501E87
S1131BF082419202134323602B7D2268591E8B413C
S1131C005B0713432360AB7C002B03D01023EA7CD7
S1131C101343A36580232A7B5B0113436360AA6893
S1131C2069682000FFF7A0FF6B7B002B01D0102315
S1131C30E3606B7D002B04D0802322685B02134396
S1131C4023602B78E36070BD402302691A42FCD004
S1131C5041637047402302691A42FCD0C163704754
S1131C6030B587B0134C050000290AD01249200072
S1131C70FFF761F9114B200063600023A360FEF7B6
S1131C80C6FF2B68AA6800930D496B6802A800F090
S1131C905DFE02A800F07AFE0123342102000193C4
S1131CA00091200002A9FFF703F9FEF751FF07B0E6
S1131CB030BDC046A00A002048300000FFFFFF00EE
S1131CC05032000030B50D4A936913629A0504D569
S1131CD001220B490A700B490A705B050DD50124DA
S1131CE0002509490A684B6812196B410A604B6068
S1131CF00123064A1370034A137030BDFC60004090
S1131D00710A002020000020780A0020840A0020A4
S1131D1010B5FFF7D7FF10BD10B5FFF7D3FF10BD07
S1131D20F0B587B06C462200114B002623CB23C2AA
S1131D3023CB23C201210F48FFF74CFA012740238C
S1131D400D4D21002800A36027702674E674FFF768
S1131D5047FE3A0031002800FFF72EFE8022074B91
S1131D6012011A6002236A6A13436B6207B0F0BD62
S1131D7038320000000A1E000060084000E100E064
S1131D8030B502220B4B1A620B4A136801331360FD
S1131D900A4B1B78002B08D10124002508490A6846
S1131DA04B6812196B410A604B600122054B1A7093
S1131DB030BDC04600600840800A0020840A00202C
S1131DC0780A002020000020F7B580271D4E0190DE
S1131DD03568FF00023533681B4CAB421CD100252B
S1131DE03C26002780222368D200134217D1FA210F
S1131DF02800890000F05EF900290BD1134802681D
S1131E00436892197B410260436000F0C5FB0121E5
S1131E10019B98470135E5E723683B4203D0002244
S1131E200B4B1A70F7BD0B4B1B78002B05D00748E2
S1131E3000F0B2FB0121019B98470020FFF7D4FC7E
S1131E40C9E7C046800A002064600040780A002088
S1131E50840A00202000002070B50500094800F025
S1131E609BFB094C2378002B0BD02900FFF7F8FECD
S1131E7000232370054B1B78002B02D00448FFF786
S1131E80A3FF70BD780A002020000020840A0020EF
S1131E90611C000013B501222F4B1A642F4BDB6C1D
S1131EA01B0E812B07D82E4B2E4A2F491A602F4A1E
S1131EB013680B40136005211120FFF775FB042004
S1131EC0FFF708FB01212A48FFF784F902220123C6
S1131ED010000921FFF7F2FC01240922002311005C
S1131EE0022001940094FFF7ADFC022223001000AD
S1131EF00A21FFF7E3FC0A22002311000194009455
S1131F000220FFF79FFCC02102221A4B49005A50BD
S1131F101A603E325A501A60FEF7BAF9002800D00F
S1131F20FEE7FEF7D9FD002800D0FEE71248FEF7D1
S1131F30C1FE002800D0FEE7FFF7F2FE0F4B187831
S1131F40041B601E8441E0B21C78FFF785FF00206B
S1131F50E4B2FFF749FCF1E700000C40B081E00F68
S1131F6018600C4005000004FFFFFFFEE4800C40F5
S1131F700082040000E100E0A00A0020710A0020B1
S1131F8002B4714649084900095649008E4402BC0E
S1131F907047C04602B4714649084900095C4900CB
S1131FA08E4402BC7047C046002243088B4274D35F
S1131FB003098B425FD3030A8B4244D3030B8B4246
S1131FC028D3030C8B420DD3FF22090212BA030C4F
S1131FD08B4202D31212090265D0030B8B4219D330
S1131FE000E0090AC30B8B4201D3CB03C01A524150
S1131FF0830B8B4201D38B03C01A5241430B8B4298
S113200001D34B03C01A5241030B8B4201D30B0380
S1132010C01A5241C30A8B4201D3CB02C01A5241A7
S1132020830A8B4201D38B02C01A5241430A8B426A
S113203001D34B02C01A5241030A8B4201D30B0253
S1132040C01A5241CDD2C3098B4201D3CB01C01A6D
S1132050524183098B4201D38B01C01A5241430977
S11320608B4201D34B01C01A524103098B4201D365
S11320700B01C01A5241C3088B4201D3CB00C01AD2
S1132080524183088B4201D38B00C01A524143084A
S11320908B4201D34B00C01A5241411A00D201466F
S11320A0524110467047FFE701B5002000F0F0F8F8
S11320B002BDC0460029F7D076E7704703460B43BC
S11320C07FD4002243088B4274D303098B425FD32D
S11320D0030A8B4244D3030B8B4228D3030C8B4259
S11320E00DD3FF22090212BA030C8B4202D312123F
S11320F0090265D0030B8B4219D300E0090AC30B14
S11321008B4201D3CB03C01A5241830B8B4201D3C0
S11321108B03C01A5241430B8B4201D34B03C01AA9
S11321205241030B8B4201D30B03C01A5241C30A21
S11321308B4201D3CB02C01A5241830A8B4201D392
S11321408B02C01A5241430A8B4201D34B02C01A7C
S11321505241030A8B4201D30B02C01A5241CDD221
S1132160C3098B4201D3CB01C01A524183098B426C
S113217001D38B01C01A524143098B4201D34B0155
S1132180C01A524103098B4201D30B01C01A5241B8
S1132190C3088B4201D3CB00C01A524183088B423F
S11321A001D38B00C01A524143088B4201D34B0028
S11321B0C01A5241411A00D201465241104670479A
S11321C05DE0CA0F00D04942031000D3404253409F
S11321D000229C4603098B422DD3030A8B4212D35F
S11321E0FC22890112BA030A8B420CD38901921191
S11321F08B4208D3890192118B4204D389013AD0CE
S1132200921100E08909C3098B4201D3CB01C01AA2
S1132210524183098B4201D38B01C01A52414309B5
S11322208B4201D34B01C01A524103098B4201D3A3
S11322300B01C01A5241C3088B4201D3CB00C01A10
S1132240524183088B4201D38B00C01A5241D9D228
S113225043088B4201D34B00C01A5241411A00D2A9
S11322600146634652415B10104601D34042002BA5
S113227000D54942704763465B1000D3404201B524
S1132280002000F005F802BD0029F8D016E77047D9
S11322907047C0461C2101231B04984201D3000C43
S11322A010391B0A984201D3000A08391B099842C5
S11322B001D30009043902A2105C40187047C046DB
S11322C004030202010101010000000000000000FB
S11322D0002B15D1002A13D1002906DB01DC0028CC
S11322E006D00020C043410802E0802109060020F6
S11322F007B4024801A14018029003BD95FFFFFFF7
S113230003B4684601B5029800F030F8019B9E467C
S113231002B00CBC7047C046F0B5CE464746150423
S11323202D0C2E0080B50704140C3F0C9946030CA9
S11323307E435D43674363437F19340CE4199C4631
S1132340A54203D980235B029846C4444B464343C9
S11323505143250C36046544360C2404A4195B1936
S1132360591820000CBC90469946F0BDF0B583B0D6
S113237016001F000090019100F020F804000D00E9
S113238002000B0030003900FFF7C6FF009A019BE2
S1132390121A8B41089920000A604B60290003B08F
S11323A0F0BDC04610B5002903D1FFF773FF2030FC
S11323B002E0081CFFF76EFF10BDC046F0B54E46A4
S11323C05746DE464546E0B50F00002183B00600BF
S11323D08946002F06DA3900002746428F41012141
S11323E049428946002B07DA4946C9431000894609
S11323F01900002342428B4134003D009246984626
S1132400BB4269D866D041465046FFF7CBFF8346AE
S113241039003000FFF7C6FF5B461B1A9C46203B81
S11324209B4600D575E05146584681400B00514605
S1132430604681400A00BB4261D85ED034003D0052
S11324405946A41A9D41002900DA7AE000210020AF
S113245001260090019159468E400196614601265D
S11324608E4061460096002950D0D90756085F086F
S11324700E4363460EE0AF4201D1A6420CD8A41B22
S1132480BD41012124196D410022013B64185541CD
S1132490002B06D0AF42EED9013B24196D41002B2D
S11324A0F8D1009801995B4600196941002B3DDB86
S11324B02E00DE4063462C00DC405B46002B4BDBE9
S11324C034005D46AC4023006446A6403200801AC6
S11324D0994103E0B24296D9002000214B46002BDB
S11324E004D003000C0000215842A14103B03CBCBD
S11324F090469946A246AB46F0BDB1429ED9002112
S113250000200090019161460029AED10098019904
S1132510E4E72023624651469B1AD9404046009185
S113252061468840030000990B4380E762462023FC
S11325309B1A2A009A40260013006246D6401E4386
S1132540B8E7614620260127761A00200021F740CB
S113255000900191019781E7674620236246350088
S1132560BC409B1ADD4023002B43ADE7084B10B55C
S11325700400002B02D0002100E000BF054B1868C6
S1132580836A002B00D098472000FEF7ADF8C046C0
S11325900000000060320000074B70B51C680500A5
S11325A0E36B002B03D1242000F0FAF8E063280049
S11325B0E16B00F003F870BD24000020F0B506685C
S11325C0476885B0594A002330000C003900FFF7F2
S11325D07FFE574A0190851800233000534A390082
S11325E0FFF776FE161E06DA524A504B9446F6184A
S11325F0019B63441D00E12130000901FFF75EFDEA
S1132600E121A06009013000FFF73EFE0E003C21ED
S11326103000FFF753FD3C2160603000FFF734FECB
S1132620E81C21600721FFF72FFE002900DA07319B
S1132630A161281E404901DA404BE818FFF73EFD2E
S113264007003F483F49784345192800FFF7ACFC91
S11326503D4946192800FFF7A7FC3C49361A2800D3
S1132660FFF7A2FC6E21361AFF313000FFF79CFC05
S1132670374901903000FFF797FC33494519300082
S1132680FFF792FC6E21019BFF3159432D1A6B1AFF
S1132690052618007043992102300293FFF784FC49
S11326A0050099206843029B3100013302300393F3
S11326B0FFF77AFC039B033E1B1A0393092D00D9F1
S11326C00C3EC8235B005F43019B7619FF1801256C
S11326D00023B5425B41FF183223029AFF339A422A
S11326E00ED91500333DFF3D1A4B2000FF18039B04
S11326F0E561E360002367612661236205B0F0BDF4
S1132700019B9B0706D164210198FFF7D3FC2800A5
S1132710002906D1C82101984900FFF7CBFC4842A3
S11327204841029D3B352D18DEE7C046805101002B
S11327306CFA0A006BFA0A00B13A020050C5FDFFB8
S11327404FC5FDFFAC8E0000B4050000B03A020096
S1132750948E000094F8FFFF70B500260C4D0D4CCC
S1132760641BA410A64209D1002600F03BFC0A4DCC
S11327700A4C641BA410A64205D170BDB300EB58EB
S113278098470136EEE7B300EB5898470136F2E775
S11327909000002090000020900000209400002071
S11327A010B5034B0100186800F060F810BDC04676
S11327B024000020002310B59A4200D110BDCC5C47
S11327C0C4540133F8E703001218934200D1704750
S11327D019700133F9E7000070B50500002910D025
S11327E00C1F2368002B00DAE418280000F0D5F849
S11327F01D4A1368002B05D163601460280000F0A3
S1132800CDF870BDA34209D9216860188342F3D181
S113281018685B6841182160EEE713005A68002AC3
S113282001D0A242F9D919685818A0420BD12068E6
S11328300918581819608242E0D11068526841188A
S113284019605A60DAE7A04202D90C232B60D5E75D
S113285021686018824203D11068526841182160CF
S113286062605C60CAE7C046880A0020032370B532
S1132870CD1C9D43083506000C2D1ED20C25A94203
S11328801DD8300000F089F8254A14682100002979
S113289019D1244C2368002B03D1300000F044F8F4
S11328A020602900300000F03FF8431C2BD10C239A
S11328B03000336000F072F803E0002DDFDA0C23FF
S11328C03360002070BD0B685B1B19D40B2B03D93C
S11328D00B60CC18256003E04B688C420DD113606B
S11328E0300000F05BF8200007220B30231D9043DA
S11328F0C31AE7D05A42E250E4E763600C00EFE702
S11329000C004968C3E70323C41C9C43A042E1D0E4
S1132910211A300000F008F8431CDBD1C7E7C04699
S1132920880A00208C0A0020002370B5064C05009C
S113293008002360FDF7DAFE431C03D12368002B53
S113294000D02B6070BDC046CC0A00200EB400B588
S11329500B499CB01DAB0290069007910491094865
S1132960094904CB0591006802A9019300F07AF8A3
S11329700023029A13701CB008BC03B01847C04669
S1132980FFFFFF7F240000200802FFFF0023C25C3A
S11329900133002AFBD1581E70477047704700006E
S11329A0F0B58E6885B007000C00039201939E4237
S11329B03CD890238A89DB001A4234D00325096964
S11329C023685B1A0293636902985D43EB0F5D19F8
S11329D0019B6D1001331B18AB4200D91D00530538
S11329E032D529003800FFF741FF061E09D10C2318
S11329F03B6040230120A28940421343A38105B0D8
S1132A00F0BD029A2169FFF7D5FEA389144A1A4042
S1132A1080231343A381029B2661F6182660656117
S1132A20019EED1AA560019B9E4200D9019E3200D1
S1132A300399206800F095FAA36800209B1BA3600B
S1132A4023689E192660DAE72A00380000F09CFA11
S1132A50061EE0D121693800FFF7BEFEC7E7C04675
S1132A607FFBFFFFF0B59FB0029005938B890F00A9
S1132A7016001B0611D50B69002B0ED14021FFF760
S1132A80F5FE38603861002805D10C23029A01381C
S1132A9013601FB0F0BD40237B61002306AC63616B
S1132AA0203363761033A37635002B78002B01D0C6
S1132AB0252B46D1AB1B04930CD03200390002986D
S1132AC0FFF76EFF431C00D1AEE06269049B94469D
S1132AD0634463612B78002B00D1A5E0012200231D
S1132AE05242626002A9543252186E1C2360E360A1
S1132AF0A3601370A36531780522544800F026FAC8
S1132B00751C00281FD12268D30604D5532302A9BB
S1132B105B1820211970130704D5532302A95B18ED
S1132B202B21197033782A2B16D0350000210A2066
S1132B30E3682A786E1C303A092A4ED9002918D045
S1132B4010E00135B1E7414B2268C01A01238340EC
S1132B50134323602E00CEE7059B191D1B680591C6
S1132B60002B01DB099304E05B42E360022313437F
S1132B7023602B782E2B0AD16B782A2B35D1059B19
S1132B8002351A1D1B680592002B2BDB0793304E70
S1132B9029780322300000F0D9F9002806D0402318
S1132BA0801B834022680135134323602978062261
S1132BB028486E1C217600F0C9F900283CD0264B29
S1132BC0002B25D10722059B073393430833059334
S1132BD06369039A9B18636166E7434301219B1869
S1132BE03500A6E701235B42D0E700230A201A0040
S1132BF00135636029786E1C3039092903D9002B0B
S1132C00C5D00792C3E74243012352183500F1E7C8
S1132C1005AB00933A00114B2100029800E000BF7D
S1132C200390039B0133D3D1BB890B985B0600D47B
S1132C302FE7012040422CE705AB00933A00074BF5
S1132C402100029800F07AF8EAE7C046C432000096
S1132C50CA320000CE32000000000000A1290000AA
S1132C60F7B5150001938A680B6900900C00934234
S1132C7000DA130022002B6043321278002A01D0BC
S1132C8001332B6023689B0602D52B6802332B602B
S1132C90062723681F4027D0230043331B785A1E7E
S1132CA093412268920630D422000199433200985D
S1132CB0089EB047431C25D0062320682A68E16893
S1132CC003400025042B03D18D1AEB43DB171D4071
S1132CD0A3682269934201DD9B1AED180027BD42C7
S1132CE020D1002010E00137E3682A689B1ABB4218
S1132CF0D2DD22000123193201990098089EB047C1
S1132D00431CF0D101204042FEBD3020E118433184
S1132D10087021005A1C45310978A2184332023345
S1132D201170C1E7220001231A3201990098089E0C
S1132D30B047431CE6D00137D1E70000F0B589B0B5
S1132D4004920A0043320593039002920A7E0C0017
S1132D500E9B6E2A00D186E01FD8632A33D008D890
S1132D60002A00D18CE0582A4DD0250042352A7023
S1132D7030E0642A01D0692AF7D1196825680A1D50
S1132D80280629D508681A60002803DA2D23029A38
S1132D90404213706B4E0A274FE0732A74D008D850
S1132DA06F2A1FD0702AE0D1202209680A432260CA
S1132DB003E0752A16D0782AD7D12200782145322B
S1132DC01170614E22E025001A684235111D196008
S1132DD013682B70012365E008681A606906D3D56F
S1132DE000B2D1E719682568081D186008682E0626
S1132DF005D5544E08276F2A1BD00A2719E06D0603
S1132E00F7D580B2F5E745314E4E0A70186822684E
S1132E10011D00681960150621D5D30702D52023AA
S1132E201A4322601027002803D1202322689A43E2
S1132E3022602300002243331A706368A360002BCE
S1132E4058DB0422216891432160002854D1029D5B
S1132E50002B5AD02500337842352B7055E05506A7
S1132E60DBD580B2D9E71A680D68101D496918606E
S1132E7013682E0601D5196002E06D06FBD5198092
S1132E800023029D23614FE01A68111D1960156823
S1132E9000216268280000F059F8002801D0401B86
S1132EA06060636823610023029A13703CE0236925
S1132EB02A0004990398059DA847431C3ED0236823
S1132EC09B0715D4079BE068984239DA180037E06D
S1132ED022000123193204990398059EB047431C2C
S1132EE02CD00135E368079A9B1AAB42F0DCE9E782
S1132EF00025F7E70028ADD0029D3900FFF7DAF886
S1132F00735C013D2B700028F7D1082F09D1236889
S1132F10DB0706D563682269934202DC3023013D56
S1132F202B70029B5B1B2361059B07AA0093210066
S1132F30049B0398FFF794FE431CB8D10120404240
S1132F4009B0F0BDD5320000E6320000C9B28218E3
S1132F50904201D10020704703788B42FBD00130AE
S1132F60F6E710B5884202D98B18984203D30023A0
S1132F7007E08B5C8354013AFBD210BDCC5CC45493
S1132F8001339A42FAD1F8E7F8B507000D001600AC
S1132F90002905D11100FFF769FC04002000F8BDE9
S1132FA0002A03D1FFF718FC3400F7E700F012F809
S1132FB02C00B042F2D231003800FFF757FC041E57
S1132FC0ECD029003200FFF7F5FB29003800FFF7A9
S1132FD003FCE3E70B1F1B68181F002B01DA0B58D7
S1132FE0C0187047F8B5C046F8BC08BC9E46704788
S1132FF0F8B5C046F8BC08BC9E4670470000000007
S113300001B40248844601BC604700BF8900002027
S11330105368617270204C53303133423744483026
S113302033202331000000000500000000000000F0
S113303040420F00050100000000000000000000F5
S1133040010001010001000058300000E001020C01
S11330501014050002000000000000000000000041
S1133060000000000000000000000000000000005C
S1133070000000000000000000000000000000004C
S11330800000000000000000C0030003C007E003CC
S1133090000FF81F001FFC1FE007E0030000000002
S11330A0F00FE003E00FF00F800FF81FC03FFC1F8C
S11330B0F80FF00700000000781EFC03701C380EA7
S11330C0800F3800E0310C1C381C380E80010000E1
S11330D0381CBC033838181CC00F380070000C1C96
S11330E01C381C1CC00300001C3880033838001C2A
S11330F0E00E38003800000E1C381C18C003000015
S11331001C3880033838001CE00EB8073800000E65
S11331101C381C38800100001C388003003C000E61
S1133120700EF80FDC07000E381C1C38000000007D
S11331301C388003001CC007700E381CFC0F0007ED
S1133140F00F1C3C000000001C388003000EC00778
S1133150380E18387C1C0007F00F383E00000000C1
S11331601C3880030007001E1C0E00383C3C00077E
S1133170381CF03F000000001C3880038003003C32
S1133180FC3F00383C3880071C38E03B80010000DD
S11331901C388003C0010038FC3F00381C38800311
S11331A01C38003CC00300001C388003E0000038D9
S11331B0000E00381C3880031C38001CC0030000BB
S11331C0381C800370000038000E00383838800343
S11331D01C38000E80010000781E800338000C1C8F
S11331E0000E0C1C381CC001381C8C0F00000000A1
S11331F0F00FFC7FFC3FFC1FC03FFC0FF01FC00121
S1133200F81FFC0300000000C003FC7FFC3FF00734
S1133210C03FF007C007C001E007F800000000004D
S1133220000000000000000000000000000000009A
S1133230000000000000000000000000000000008A
S1133240FF00000000000000010103000000000076
S1133250253032643A253032643A25303264000035
S11332602800002000000000000000000000000012
S1133270000000000000000000000000000000004A
S1133280000000000000000000000000000000003A
S1133290000000000000000000000000000000002A
S11332A0000000000000000000000000000000001A
S11332B0000000000000000000000000000000000A
S11332C000000000232D302B2000686C4C00656644
S11332D06745464700303132333435363738394163
S11332E04243444546003031323334353637383979
S10F32F061626364656600000000000079
S10B32FCE0CDFF7F010000009A
S1133304809FD50000366E0100800000490400004F
S113331400000000E600002000100000006CDC0245
S11333240100000028000020000000008432000096
S1133334A432000064320000000000000000000019
S11333440000000000000000000000000000000075
S11333540000000000000000000000000000000065
S11333640000000000000000000000000000000055
S11333740000000000000000000000000000000045
S1133384000000000000000030BF04231B687047E5
S10B3394BD00000095000000DB
S9030155A6
