S0190000534C53544B33343030415F626C696E6B5F322E73333742
S11300000020002055010000810100008101000052
S113001081010000810100008101000081010000D4
S113002081010000810100008101000081010000C4
S113003081010000800100008101000081010000B5
S1130040810100008514000081010000810100008D
S1130050810100008101000093140000810100006F
S11300608101000081010000810100008101000084
S11300708101000081010000810100008101000074
S11300808101000081010000810100008101000064
S11300908101000010B5064C2378002B07D1054BD5
S11300A0002B02D0044800E000BF0123237010BDE0
S11300B08400002000000000041A0000044B10B566
S11300C0002B03D00349044800E000BF10BDC04624
S11300D00000000088000020041A0000164B002BCA
S11300E000D1144B9D46402292029A1A9246002156
S11300F08B460F461348144A121A01F0BFFA0F4BED
S1130100002B00D098470E4B002B00D098470020BE
S1130110002104000D000D48002802D00C4800E026
S113012000BF01F087FA2000290001F0B9F901F0BD
S11301306BFAC04600000800002000200000000008
S11301400000000084000020A8000020000000003F
S113015000000000064880470649074A074B9B1ADF
S113016003DD043BC858D050FBDCFFF7B7FF0000A9
S1130170C9020000101A00000000002084000020C2
S1130180FEE7C04680B582B000AF00F01FF8030060
S11301907B60084B5B680F2213407A68DA401300D7
S11301A07B60054B7A681A607B681800BD4602B014
S11301B080BDC04600800C400800002080B500AF20
S11301C0014B1800BD4680BD00366E0180B582B07B
S11301D000AF334BDB6A334A13408022520193420F
S11301E015D080225201934204D8802212019342F6
S11301F011D017E080229201934204D08022D204CD
S113020093420CD00EE0284B1B687B6039E08023BE
S11302101B027B6035E0254B1B687B6031E0244B7F
S11302207B602EE01E4BDA68E023DB001340802263
S11302309200934218D080229200934206D8002B59
S113024018D080225200934211D016E0C0229200AE
S1130250934206D08022D20093420ED1154B7B608C
S11302600EE0154B7B600BE0144B7B6008E0144BF5
S11302707B6005E0134B7B6002E000237B60C0469B
S1130280C046074B1B689B0B072213400133190020
S1130290786801F02DF903001800BD4602B080BD56
S11302A000800C40003C00040400002000000020FA
S11302B000366E01406F4001809FD500C0D8A70072
S11302C040B56400804F120080B500AF024B034A72
S11302D09A60C046BD4680BD00ED00E0000000000D
S11302E080B582B000AF78603960FEE780B586B033
S11302F000AFF860B9607A60FB681B687B6101221B
S1130300BB689A401300DB431A007B691A407B6880
S113031001211940BB6899400B001A43FB681A601D
S1130320C046BD4606B080BD80B582B000AF7860DF
S113033039607B681A683B68DA4013000122134075
S11303401800BD4602B080BD80B584B000AF7860AF
S113035039600F4B5B6807221340FB607B680D4AD2
S1130360934202D80023FB6005E07B680A4A93426B
S113037001D80123FB60064B5B68072293431900F5
S1130380034BFA680A435A60C046BD4604B080BDB8
S113039000000C400024F4000048E80180B582B05D
S11303A000AF0D4BDA6BFB1D511E8A411A700A4BCC
S11303B00A4ADA63FFF702FF030000211800FFF77F
S11303C0C3FFFB1D1B78002B02D0034B0022DA6312
S11303D0C046BD4602B080BD00000C40711B000049
S11303E090B585B000AF786039600D4BDA6B0F249F
S11303F03B19511E8A411A70094B0A4ADA633A685A
S11304007B6811001800FFF79FFF3B191B78002B36
S113041002D0034B0022DA63C046BD4605B090BD4E
S113042000000C40711B000080B582B000AF786002
S1130430074B5B6D0122134006D1C046044B1B6D74
S11304407A681340FAD100E0C046BD4602B080BDD0
S113045000800C4080B500AFC046BD4680BD80B56D
S113046000AFC046BD4680BD80B586B000AF7860A1
S11304700A00FB1C1A7000233B617B681B0A0F22D5
S113048013400A2B20D89A001E4BD3181B689F4692
S11304901D4B7B611FE01D4B7B611CE01C4B7B6192
S11304A019E01C4B7B6101233B6114E01A4B7B6117
S11304B010233B610FE0194B7B6180235B003B61A0
S11304C009E0174B7B6106E0164A174B1100180030
S11304D0FFF706FF12E07B681B0B1F221340FB6033
S11304E03B69002B03D03B691800FFF79DFFFB1C01
S11304F01A78F9687B691800FFF7F8FEBD4606B064
S113050080BDC046E817000040800C4008800C40C5
S113051044800C4058800C4060800C4064800C4047
S113052078800C40391400008417000080B584B032
S113053000AF78600F23FB1801221A707B680F222A
S11305401340BB60BB68072B00D9CAE0BB689A00A4
S11305506D4BD3181B689F466C4BDB6A6C4A134087
S113056080225201934216D080225201934204D831
S113057080221201934213D01CE080229201934204
S113058004D08022D20493420FD013E00F23FB182F
S113059002221A7013E00F23FB1803221A700EE0D4
S11305A00F23FB1804221A7009E00F23FB180B22F7
S11305B01A7004E00F23FB1805221A70C0469BE052
S11305C0524B9B6A03221340022B08D0032B0BD0FF
S11305D0012B0ED10F23FB1803221A7015E00F23F1
S11305E0FB1802221A7010E00F23FB1806221A705F
S11305F00BE0464B9A6A80235B02134004D00F231E
S1130600FB180C221A7000E0C04675E03F4B9B6A51
S11306100C221340082B08D00C2B0BD0042B0ED12A
S11306200F23FB1803221A7015E00F23FB18022274
S11306301A7010E00F23FB1806221A700BE0334BDC
S11306409A6A80235B03134004D00F23FB180C2207
S11306501A7000E0C0464FE02C4B9B6A30221340D6
S1130660102B02D0202B05D009E00F23FB18032206
S11306701A7009E00F23FB1802221A7004E00F23FA
S1130680FB1801221A70C04636E00F23FB1807221C
S11306901A7031E01D4BDA6AE023DB02134080223A
S11306A09202934212D08022D202934204D080223A
S11306B05202934205D00EE00F23FB180A221A704F
S11306C00EE00F23FB1802221A7009E00F23FB1817
S11306D003221A7004E00F23FB1801221A70C0468B
S11306E00AE00F23FB1800221A700A4A0A4B110071
S11306F01800FFF7F5FDC0460F23FB181B78180000
S1130700BD4604B080BDC0461418000000800C40F3
S1130710003C0004891900008417000080B588B0EB
S113072000AF78600A00FB1C1A700323FB611B23D3
S1130730FB1803221A7000233B617B680F221340CD
S1130740FB60FB68072B00D916E1FB689A008F4B0E
S1130750D3181B689F46FB1C1B780C2B2ED89A00C1
S11307608B4BD3181B689F460423FB611B23FB1888
S113077000221A7029E00323FB611B23FB180122CA
S11307801A7022E00223FB611B23FB1802221A7059
S11307901BE00123FB611B23FB1803221A7014E0E6
S11307A00523FB611B23FB1805221A700DE0794A0F
S11307B0794B11001800FFF793FDE4E0774A764B7C
S11307C011001800FFF78CFDDDE01B23FB181B78DC
S11307D001220121180000F0F5F8FFF7DFFDFFF713
S11307E039FE6F4BFA695A62FFF7CCFC0300BB6019
S11307F0BB6800211800FFF7F3FDFFF730FEC2E0ED
S1130800FB1C1B780C2B25D89A00664BD3181B684D
S11308109F4600237B6124E001220121002000F097
S1130820D1F802237B611CE001220121012000F0A8
S1130830C9F801237B6114E05B4B012202211800FB
S1130840FFF754FD03237B610BE000237B6101234D
S11308503B6106E0554A504B11001800FFF740FD7C
S113086091E0FB68022B0CD14D4B9B6A504A1A4015
S11308707B691A4311003B691A04494B0A439A6283
S113088081E0474B9B6A4B4A1A407B699B001A43A1
S113089011003B691A05424B0A439A6273E0FB1C40
S11308A01B78022B06D0032B0CD0012B12D1002372
S11308B07B6116E001220121002000F083F802236D
S11308C07B610EE001220121012000F07BF801236D
S11308D07B6106E0384A304B11001800FFF700FD39
S11308E051E02F4B9B6A3022934319007B691A0114
S11308F02B4B0A439A6246E0FB1C1B78032B13D054
S11309000A2B21D0022B2FD101220121002000F03B
S113091059F8234B40225A62C046214BDA6A80239D
S11309205B021340F9D026E001220121012000F0EE
S113093049F81B4B60225A62C046194BDA6A80237D
S11309409B021340F9D016E001220121052000F09A
S113095039F8134B80225A62C046114BDA6A80235D
S1130960DB021340F9D006E0144A0B4B11001800C7
S1130970FFF7B6FC07E006E0114A074B1100180028
S1130980FFF7AEFCC046BD4608B080BD3418000079
S1130990541800004A1A0000841700004F1A00007F
S11309A000800C408818000040800C40F81A0000B9
S11309B0FCFFFEFFF3FFEFFF291B0000921B00006A
S11309C0881C000090B587B000AF04000800110037
S11309D0FB1D221C1A70BB1D021C1A707B1D0A1CF5
S11309E01A70FB1D1B78052B32D89A00294BD3189B
S11309F01B689F4601233B610223FB6001237B614B
S1130A002DE004233B610823FB6003237B6126E084
S1130A1010233B612023FB6005237B611FE04023FF
S1130A203B618023FB6007237B6118E080235B002C
S1130A303B6180239B00FB6009237B610FE08023E3
S1130A40DB003B6180231B01FB6016237B6106E016
S1130A50114A124B11001800FFF742FC17E0BB1DAE
S1130A601B78002B10D00E4B3A691A627B1D1B7841
S1130A70002B0CD0C0467B690A4A19001000FFF70E
S1130A8053FC031EF7D002E0054BFA681A62BD4618
S1130A9007B090BDBC1800008E2000008417000031
S1130AA000800C402C800C4080B582B000AFEFF386
S1130AB010833B603B687B6072B67B681800BD4660
S1130AC002B080BD80B582B000AF78607B68002B37
S1130AD000D162B6C046BD4602B080BD80B500AF4D
S1130AE0FFF750FBC046BD4680BD000080B500AF97
S1130AF0034A84230021D150C046BD4680BDC04670
S1130B0000800C4080B500AF034A84230349D150D0
S1130B10C046BD4680BDC04600800C400E58000053
S1130B2080B584B000AF0200FB1D1A70FB1D1B785A
S1130B30002B0BD1304BDA6A304B1A601120FFF7CF
S1130B40F5FC03001A002E4B1A7050E02A4A842345
S1130B50D35801221340FB60FFF7D4FF0023BB608E
S1130B60264B1B6801221340BA681343BB60234B16
S1130B701B6810221340BA681343BB601F4B1B68E9
S1130B8040221340BA681343BB601C4B1B68042209
S1130B901340BA681343BB60184B1A6880235B0088
S1130BA01340BA681343BB60144B1B68DA0A8023F2
S1130BB0DB001340BA681343BB600F4BBA681A6278
S1130BC00F4B1B78052B05D00D4B1B7819001120FA
S1130BD0FFF7A4FD094B1B680122134002D1064B09
S1130BE002221A62FB68002B01D0FFF77FFFC04688
S1130BF0BD4604B080BDC04600800C40A00000206B
S1130C00A400002080B500AF01231800BD4680BDBC
S1130C1080B500AFC046BD4680BD80B500AFC046BC
S1130C20BD4680BDB0B588B000AF0200FB1D1A7090
S1130C30FB1D1B78002B02D00020FFF771FF2C4A0C
S1130C408423D35801221340FB61FFF75BFF284B39
S1130C50A02292001A62FB69002B01D0FFF746FF25
S1130C60244B1A69234B04210A431A611B257C195E
S1130C70FFF7C8FF030023707B191B78002B0BD0F0
S1130C801D4B1B681D4A1A400C203B181A601A4958
S1130C903B181B6880228B50FFF7BAFFFFF704FF55
S1130CA003007B6100F000FD7B691800FFF70AFF79
S1130CB0FFF7B3FF1B23FB181B78002B04D00E4A4D
S1130CC00C23FB181B681360FB1D1B78002B02D040
S1130CD00120FFF725FFFB1D1B7801225340DBB2E7
S1130CE0002B01D0FFF7FAFEC046BD4608B0B0BDE8
S1130CF000800C4000ED00E000E100E094A3F7FF69
S1130D0080B586B000AFF860B9607A60FB681B6894
S1130D107B610122BB689A401300DB431A007B69A4
S1130D201A407B6801211940BB6899400B001A43A3
S1130D30FB681A60C046BD4606B080BD80B584B06D
S1130D4000AFF860B9607A60FB681B68BA68D24388
S1130D501A407B681A43FB681A60C046BD4604B05B
S1130D6080BD000080B582B000AF786004498E2356
S1130D705B007A68CA50C046BD4602B080BDC0461A
S1130D800060004080B582B000AF02003960FB1DF6
S1130D901A70FB1D1B78002B21D0FB1D1B78012B27
S1130DA01AD0FB1D1B78022B14D0FB1D1B78032BC0
S1130DB00ED0FB1D1B78042B07D0FB1D1B78052BC5
S1130DC001D13F230CE000230AE0F0239B0107E05C
S1130DD0F02305E0114B03E0D323DB0100E0104BCB
S1130DE03A6813410122134006D1F7239A000D4BB0
S1130DF011001800FFF774FA01223B689A401000B2
S1130E000949FB1D1A781300DB009B189B00CB18C3
S1130E1014331860C046BD4602B080BD1FEF000009
S1130E2007070000D41800000060004080B582B0BD
S1130E3000AF02003960FB1D1A70FB1D1B78002BEC
S1130E4021D0FB1D1B78012B1AD0FB1D1B78022B14
S1130E5014D0FB1D1B78032B0ED0FB1D1B78042B19
S1130E6007D0FB1D1B78052B01D13F230CE0002389
S1130E700AE0F0239B0107E0F02305E0114B03E0B7
S1130E80D323DB0100E0104B3A68134101221340E5
S1130E9005D10E4A0E4B11001800FFF721FA01226A
S1130EA03B689A4010000B49FB1D1A781300DB00C5
S1130EB09B189B00CB1810331860C046BD4602B087
S1130EC080BDC0461FEF0000070700000B040000B0
S1130ED0D41800000060004090B587B000AFB9603E
S1130EE07A6019000F243B19021C1A700E23FB1898
S1130EF00A1C1A7000237B613B191B78002B26D037
S1130F000F23FB181B78012B1ED00F23FB181B7813
S1130F10022B17D00F23FB181B78032B10D00F23A1
S1130F20FB181B78042B08D00F23FB181B78052B08
S1130F3001D13F230CE000230AE0F0239B0107E0EA
S1130F40F02305E0304B03E0D323DB0100E02F4B1B
S1130F50BA6813410122134004D12D4BC421180057
S1130F60FFF7BEF97B68072B11D87B689B0007222B
S1130F709A4011000F23FB181A787B689B009A4053
S1130F8013001A00234B1800FFF7D8FE13E07B6808
S1130F90083B7B617B699B0007229A4011000F2369
S1130FA0FB181A787B699B009A4013001A001A4BAD
S1130FB01800FFF7C3FE0E23FB181A787B68174846
S1130FC01900FFF79DFE202308229446BC44634485
S1130FD01A787B6812481900FFF792FE01227B6899
S1130FE09A4013001800FFF7BDFE242308229446FC
S1130FF0BC4463441A787B680A481900FFF780FEF2
S1131000C046BD4607B090BD1FEF000007070000B3
S1131010381900000061004004610040086100408C
S11310200C6100401061004090B585B000AFB9601C
S113103011007B600F243B19021C1A700E23FB184D
S11310400A1C1A703B191B78002B26D00F23FB189F
S11310501B78012B1ED00F23FB181B78022B17D0F3
S11310600F23FB181B78032B10D00F23FB181B78BE
S1131070042B08D00F23FB181B78052B01D13F2329
S11310800CE000230AE0F0239B0107E0F02305E0D5
S11310904E4B03E0D323DB0100E04D4BBA68134110
S11310A00122134007D11C23FF331A00494B1100BE
S11310B01800FFF715F90E23FB181B78002B13D02B
S11310C07B68002B08D0BA680F23FB181B7811002B
S11310D01800FFF7ABFE07E0BA680F23FB181B7874
S11310E011001800FFF74EFEBB68072B25D83A49BC
S11310F00F243B191A781300DB009B189B00CB18B4
S113110004331B68BA6892000F2191400A00D2434D
S113111013400E22BA181178BA68920091400A005E
S113112011002D483A19127819431300DB009B185B
S11311309B00C318043319602AE027490F243B1984
S11311401A781300DB009B189B00CB1808331B682C
S1131150BA6822498C46624492000F2191400A00E9
S1131160D24313400E22BA181178BA681B48844639
S11311706244920091400A00110017483A1912780B
S113118019431300DB009B189B00C3180833196034
S11311900E23FB181B78002B13D17B68002B08D07F
S11311A0BA680F23FB181B7811001800FFF73EFEE6
S11311B007E0BA680F23FB181B7811001800FFF72B
S11311C0E1FDC046BD4605B090BDC0461FEF00001E
S11311D0070700003819000000600040F8FFFF3FD7
S11311E080B582B000AF0200FB1D1A70FB1D1B7896
S11311F07F2B09D8FB1D1B781A001F231A40044BB0
S1131200012191400A001A60C046BD4602B080BD6B
S113121000E100E080B500AF034BDB6C1B0EDBB2DA
S11312201800BD4680BDC046B081E00F80B582B0D5
S113123000AF786004498E235B007A68CA50C046C8
S1131240BD4602B080BDC0460060004080B582B09B
S113125000AF02003960FB1D1A70FB1D1B78002BC8
S113126021D0FB1D1B78012B1AD0FB1D1B78022BF0
S113127014D0FB1D1B78032B0ED0FB1D1B78042BF5
S113128007D0FB1D1B78052B01D13F230CE0002365
S11312900AE0F0239B0107E0F02305E0114B03E093
S11312A0D323DB0100E0104B3A68134101221340C1
S11312B006D1F7239A000D4B11001800FFF710F820
S11312C001223B689A4010000949FB1D1A7813005B
S11312D0DB009B189B00CB1814331860C046BD4636
S11312E002B080BD1FEF0000070700009C1900003A
S11312F00060004080B582B000AF02003960FB1D81
S11313001A70FB1D1B78002B21D0FB1D1B78012BB1
S11313101AD0FB1D1B78022B14D0FB1D1B78032B4A
S11313200ED0FB1D1B78042B07D0FB1D1B78052B4F
S113133001D13F230CE000230AE0F0239B0107E0E6
S1131340F02305E0114B03E0D323DB0100E0104B55
S11313503A6813410122134005D10E4A0E4B110085
S11313601800FEF7BDFF01223B689A4010000B49AC
S1131370FB1D1A781300DB009B189B00CB1810335D
S11313801860C046BD4602B080BDC0461FEF0000D5
S1131390070700000B0400009C19000000600040D7
S11313A090B585B002AF0400396010001900FB1D30
S11313B0221C1A70BB1D021C1A707B1D0A1C1A7099
S11313C0BB1D1C783A683968FB1D18781823FB1874
S11313D01B7801937B1D1B7800932300FFF77CFD92
S11313E0C046BD4603B090BD90B583B000AF0C4B72
S11313F001221A64FC1DFFF70DFF03002370FB1D7F
S11314001B78812B08D8074B074A1A60074B1A68C8
S1131410064B07490A401A60C046BD4603B090BD5A
S113142000000C4018600C4005000004E4800C40EF
S1131430FFFFFFFE80B500AF80235B001800FFF7BD
S1131440F5FE0F4B1B785A1E9341DBB20122534029
S1131450DBB21A1C01231340DAB2094B1A70084B91
S11314601B78002B04D007210320FFF743FF03E080
S113147007210320FFF7EAFEC046BD4680BDC046F3
S1131480A500002080B500AFFFF7D4FFC046BD46DD
S113149080BD80B500AFFFF7CDFFC046BD4680BD1F
S11314A080B582B002AFFFF79FFF104B01211800F7
S11314B0FEF7DAFF0123012208210320FFF7B4FD20
S11314C00023042207210320FFF7AEFD0120FFF7CC
S11314D087FE012300930123012208210320FFF743
S11314E05FFF0120FFF79EFBFBE7C046008204007C
S11314F0002243088B4274D303098B425FD3030A4F
S11315008B4244D3030B8B4228D3030C8B420DD361
S1131510FF22090212BA030C8B4202D312120902EF
S113152065D0030B8B4219D300E0090AC30B8B422D
S113153001D3CB03C01A5241830B8B4201D38B03DB
S1131540C01A5241430B8B4201D34B03C01A524180
S1131550030B8B4201D30B03C01A5241C30A8B42C3
S113156001D3CB02C01A5241830A8B4201D38B02AE
S1131570C01A5241430A8B4201D34B02C01A524152
S1131580030A8B4201D30B02C01A5241CDD2C309C4
S11315908B4201D3CB01C01A524183098B4201D340
S11315A08B01C01A524143098B4201D34B01C01A2B
S11315B0524103098B4201D30B01C01A5241C308A3
S11315C08B4201D3CB00C01A524183088B4201D312
S11315D08B00C01A524143088B4201D34B00C01AFE
S11315E05241411A00D20146524110467047FFE76A
S11315F001B5002000F006F802BDC0460029F7D06E
S113160076E770477047C046084B10B50400002BBE
S113161002D0002100E000BF054B1868836A002B4C
S113162000D09847200000F031F8C04600000000C8
S1131630001A000070B500260C4D0D4C641BA4105C
S1131640A64209D1002600F023F80A4D0A4C641B77
S1131650A410A64205D170BDB300EB5898470136DB
S1131660EEE7B300EB5898470136F2E77C00002020
S11316707C0000207C000020800000200300121861
S1131680934200D1704719700133F9E7FEE7C04671
S1131690F8B5C046F8BC08BC9E467047F8B5C046CD
S11316A0F8BC08BC9E46704701B40248844601BC9D
S11316B0604700BF6D000020633A5C73696C696326
S11316C06F6E6C6162735C73696D706C696369746D
S11316D07973747564696F5C76345C646576656C83
S11316E06F7065725C73646B735C6765636B6F5F6B
S11316F073646B5F73756974655C76322E375C70E6
S11317006C6174666F726D5C656D6C69625C696E48
S1131710635C656D5F636F6D6D6F6E2E68000000B6
S1131720633A5C73696C69636F6E6C6162735C735A
S1131730696D706C696369747973747564696F5CDD
S113174076345C646576656C6F7065725C73646B2B
S1131750735C6765636B6F5F73646B5F73756974E8
S1131760655C76322E375C706C6174666F726D5C8A
S1131770656D6C69625C696E635C656D5F636D75F4
S11317802E680000433A2F53696C69636F6E4C6195
S113179062732F53696D706C6963697479537475DE
S11317A064696F2F76342F646576656C6F7065722B
S11317B02F73646B732F6765636B6F5F73646B5F09
S11317C073756974652F76322E372F706C61746669
S11317D06F726D2F656D6C69622F7372632F656D07
S11317E05F636D752E630000C8040000960400005A
S11317F09C04000090040000C8040000C804000019
S1131800A2040000AC040000B6040000C8040000F8
S1131810C2040000E206000058050000C0050000F4
S11318200C06000058060000E20600008A060000CC
S11318309406000078090000560700000008000024
S1131840000800009E0800007809000078090000E4
S1131850F8080000BC070000BC070000680700008F
S1131860760700008407000092070000BC07000010
S1131870BC070000BC070000BC070000BC07000058
S1131880A0070000AE070000540800001208000082
S1131890180800002808000054080000540800003C
S11318A038080000540800005408000054080000E0
S11318B054080000540800004A0800002C0A0000E4
S11318C01E0A0000020A0000F4090000100A0000C9
S11318D03E0A0000633A5C73696C69636F6E6C6105
S11318E062735C73696D706C696369747973747520
S11318F064696F5C76345C646576656C6F70657280
S11319005C73646B735C6765636B6F5F73646B5F5D
S113191073756974655C76322E375C706C617466BD
S11319206F726D5C656D6C69625C696E635C656D3C
S11319305F6770696F2E6800433A2F53696C69635F
S11319406F6E4C6162732F53696D706C6963697457
S11319507953747564696F2F76342F646576656C7A
S11319606F7065722F73646B732F6765636B6F5F42
S113197073646B5F73756974652F76322E372F70BD
S11319806C6174666F726D2F656D6C69622F737212
S1131990632F656D5F6770696F2E6300633A5C73D4
S11319A0696C69636F6E6C6162735C73696D706C92
S11319B0696369747973747564696F5C76345C64A3
S11319C06576656C6F7065725C73646B735C676578
S11319D0636B6F5F73646B5F73756974655C763298
S11319E02E375C706C6174666F726D5C656D6C69CA
S11319F0625C696E635C656D5F6770696F2E680019
S10B1A000C00002000000000AE
S10B1A08D4E6FF7F0100000099
S1131A1000366E0100800000809FD50000000000A9
S1131A2000000000000000000000000000000000B2
S1131A3000000000000000000000000000000000A2
S1131A400000000000000000000000000000000092
S1131A500000000000000000000000000000000082
S1131A600000000000000000000000000000000072
S1131A7000000000000000000000000080B500AF7E
S1131A8030BF04231B68C046BD4680BDBD000000B6
S1071A9095000000B9
S9030155A6
