S00A00004578312E733337FC
S11300000020002055010000810100008101000052
S113001081010000810100008101000081010000D4
S113002081010000810100008101000081010000C4
S113003081010000800100008101000081010000B5
S113004081010000810100008101000081010000A4
S11300508101000081010000810100008101000094
S11300608101000081010000810100008101000084
S11300708101000081010000810100008101000074
S11300808101000081010000810100008101000064
S11300908101000010B5064C2378002B07D1054BD5
S11300A0002B02D0044800E000BF0123237010BDE0
S11300B06800002000000000700A0000044B10B526
S11300C0002B03D00349044800E000BF10BDC04624
S11300D0000000006C000020700A0000164B002B8A
S11300E000D1144B9D46402292029A1A9246002156
S11300F08B460F461348144A121A00F08FFB0F4B1D
S1130100002B00D098470E4B002B00D098470020BE
S1130110002104000D000D48002802D00C4800E026
S113012000BF00F057FB2000290000F08BFA00F01C
S11301303BFBC04600000800002000200000000037
S1130140000000006800002084000020000000007F
S113015000000000064880470649074A074B9B1ADF
S113016003DD043BC858D050FBDCFFF7B7FF0000A9
S1130170850100007C0A00000000002068000020C7
S1130180FEE7C04680B500AF024B034A9A60C04602
S1130190BD4680BD00ED00E00000000080B582B0E7
S11301A000AF78603960FEE780B586B000AFF860D4
S11301B0B9607A60FB681B687B610122BB689A4066
S11301C01300DB431A007B691A407B680121194044
S11301D0BB6899400B001A43FB681A60C046BD46D1
S11301E006B080BD80B582B000AF7860074B5B6D10
S11301F00122134006D1C046044B1B6D7A6813409C
S1130200FAD100E0C046BD4602B080BD00800C407B
S113021080B586B000AF78600A00FB1C1A7000231A
S11302203B617B681B0A0F2213400A2B20D89A00DB
S11302301E4BD3181B689F461D4B7B611FE01D4B53
S11302407B611CE01C4B7B6119E01C4B7B6101232F
S11302503B6114E01A4B7B6110233B610FE0194BA7
S11302607B6180235B003B6109E0174B7B6106E007
S1130270164A174B11001800FFF790FF12E07B6835
S11302801B0B1F221340FB603B69002B03D03B690F
S11302901800FFF7A7FFFB1C1A78F9687B691800A0
S11302A0FFF782FFBD4606B080BDC0467809000056
S11302B040800C4008800C4044800C4058800C4026
S11302C060800C4064800C4078800C40391400003D
S11302D01409000080B582B000AF02003960FB1D34
S11302E01A70FB1D1B78002B21D0FB1D1B78012BE2
S11302F01AD0FB1D1B78022B14D0FB1D1B78032B7B
S11303000ED0FB1D1B78042B07D0FB1D1B78052B7F
S113031001D13F230CE000230AE0F0239B0107E016
S1130320F02305E0114B03E0D323DB0100E0104B85
S11303303A6813410122134006D1F7239A000D4B6A
S113034011001800FFF72AFF01223B689A401000B1
S11303500949FB1D1A781300DB009B189B00CB187E
S113036014331860C046BD4602B080BD1FEF0000C4
S113037007070000A40900000060004080B582B0B7
S113038000AF02003960FB1D1A70FB1D1B78002BA7
S113039021D0FB1D1B78012B1AD0FB1D1B78022BCF
S11303A014D0FB1D1B78032B0ED0FB1D1B78042BD4
S11303B007D0FB1D1B78052B01D13F230CE0002344
S11303C00AE0F0239B0107E0F02305E0114B03E072
S11303D0D323DB0100E0104B3A68134101221340A0
S11303E005D10E4A0E4B11001800FFF7D7FE01226B
S11303F03B689A4010000B49FB1D1A781300DB0080
S11304009B189B00CB1810331860C046BD4602B041
S113041080BDC0461FEF0000070700000B0400006A
S1130420A40900000060004090B585B000AFB96039
S113043011007B600F243B19021C1A700E23FB1859
S11304400A1C1A703B191B78002B26D00F23FB18AB
S11304501B78012B1ED00F23FB181B78022B17D0FF
S11304600F23FB181B78032B10D00F23FB181B78CA
S1130470042B08D00F23FB181B78052B01D13F2335
S11304800CE000230AE0F0239B0107E0F02305E0E1
S11304904E4B03E0D323DB0100E04D4BBA6813411C
S11304A00122134007D11C23FF331A00494B1100CA
S11304B01800FFF773FE0E23FB181B78002B13D0D4
S11304C07B68002B08D0BA680F23FB181B78110037
S11304D01800FFF753FF07E0BA680F23FB181B78D7
S11304E011001800FFF7F6FEBB68072B25D83A4920
S11304F00F243B191A781300DB009B189B00CB18C0
S113050004331B68BA6892000F2191400A00D24359
S113051013400E22BA181178BA68920091400A006A
S113052011002D483A19127819431300DB009B1867
S11305309B00C318043319602AE027490F243B1990
S11305401A781300DB009B189B00CB1808331B6838
S1130550BA6822498C46624492000F2191400A00F5
S1130560D24313400E22BA181178BA681B48844645
S11305706244920091400A00110017483A19127817
S113058019431300DB009B189B00C3180833196040
S11305900E23FB181B78002B13D17B68002B08D08B
S11305A0BA680F23FB181B7811001800FFF7E6FE4A
S11305B007E0BA680F23FB181B7811001800FFF737
S11305C089FEC046BD4605B090BDC0461FEF000081
S11305D007070000080A000000600040F8FFFF3F22
S11305E080B500AF034BDB6C1B0EDBB21800BD46BD
S11305F080BDC046B081E00F90B583B000AF0C4B16
S113060001221A64FC1DFFF7EBFF03002370FB1D9E
S11306101B78812B08D8074B074A1A60074B1A68C6
S1130620064B07490A401A60C046BD4603B090BD58
S113063000000C4018600C4005000004E4800C40ED
S1130640FFFFFFFE80B58AB000AFFFF7D5FF334B45
S11306505A6C324B01210A435A64314B01225A60CD
S1130660C0462F4B5B6A2F4A9342FAD916217B1856
S113067081221A707B187B6214217B182A4A1A8003
S11306807B183B62294B3B611023FB18FB613B1D2C
S113069000221A603B1D01225A603B1D02229A600F
S11306A03B1DBB61224B01211800FFF7B1FD17234D
S11306B0FB1801221A701A4B1E4ADA61184B1A6889
S11306C0174B02210A431A60154B1A68144B1A4936
S11306D00A401A60124B1A68114B902109050A430B
S11306E01A600F4B9B6802221340022B08D1012190
S11306F0002000F023F80121012000F01FF8F0E7AA
S1130700074B9B6802221340EBD10021002000F02C
S113071015F80021012000F011F8E2E700800C40F8
S113072000000140E70300000180FFFF01B4C4049E
S11307300082040050C30000FFFFFFF080B582B0C8
S113074000AF78600A00FB1C1A707B68002B02D093
S1130750012B12D023E0FB1C1B78002B06D00123B5
S1130760042204210520FFF75FFE18E00023042281
S113077004210520FFF758FE11E0FB1C1B78002B19
S113078006D00123042205210520FFF74DFE05E0D4
S11307900023042205210520FFF746FEC046C0467B
S11307A0BD4602B080BD0000084B10B50400002B0C
S11307B002D0002100E000BF054B1868836A002BBB
S11307C000D09847200000F031F8C0460000000037
S11307D06C0A000070B500260C4D0D4C641BA4106F
S11307E0A64209D1002600F023F80A4D0A4C641BE6
S11307F0A410A64205D170BDB300EB58984701364A
S1130800EEE7B300EB5898470136F2E760000020AA
S11308106000002060000020640000200300121823
S1130820934200D1704719700133F9E7FEE7C046DF
S1130830F8B5C046F8BC08BC9E467047F8B5C0463B
S1130840F8BC08BC9E467047633A5C73696C696384
S11308506F6E6C6162735C73696D706C69636974EB
S11308607973747564696F5C76345C646576656C01
S11308706F7065725C73646B735C6765636B6F5FE9
S113088073646B5F73756974655C76322E375C7064
S11308906C6174666F726D5C656D6C69625C696EC7
S11308A0635C656D5F636F6D6D6F6E2E6800000035
S11308B0633A5C73696C69636F6E6C6162735C73D9
S11308C0696D706C696369747973747564696F5C5C
S11308D076345C646576656C6F7065725C73646BAA
S11308E0735C6765636B6F5F73646B5F7375697467
S11308F0655C76322E375C706C6174666F726D5C09
S1130900656D6C69625C696E635C656D5F636D7572
S11309102E680000433A2F53696C69636F6E4C6113
S113092062732F53696D706C69636974795374755C
S113093064696F2F76342F646576656C6F706572A9
S11309402F73646B732F6765636B6F5F73646B5F87
S113095073756974652F76322E372F706C617466E7
S11309606F726D2F656D6C69622F7372632F656D85
S11309705F636D752E630000700200003E0200008C
S113098044020000380200007002000070020000FF
S11309904A020000540200005E02000070020000DF
S11309A06A020000633A5C73696C69636F6E6C6120
S11309B062735C73696D706C69636974797374755F
S11309C064696F5C76345C646576656C6F706572BF
S11309D05C73646B735C6765636B6F5F73646B5F9D
S11309E073756974655C76322E375C706C617466FD
S11309F06F726D5C656D6C69625C696E635C656D7C
S1130A005F6770696F2E6800433A2F53696C69639E
S1130A106F6E4C6162732F53696D706C6963697496
S1130A207953747564696F2F76342F646576656CB9
S1130A306F7065722F73646B732F6765636B6F5F81
S1130A4073646B5F73756974652F76322E372F70FC
S1130A506C6174666F726D2F656D6C69622F737251
S1130A60632F656D5F6770696F2E6300000000205F
S1070A70000000007E
S10B0A7468F6FF7F0100000099
S1130A7C0000000000000000000000000000000066
S1130A8C0000000000000000000000000000000056
S1130A9C0000000000000000000000000000000046
S1130AAC0000000000000000000000000000000036
S1130ABC0000000000000000000000000000000026
S1130ACC0000000000000000000000000000000016
S10B0ADCBD00000095000000BC
S9030155A6
