S00C00004578325F322E73333768
S11300000020002055010000810100008101000052
S113001081010000810100008101000081010000D4
S113002081010000810100008101000081010000C4
S113003081010000800100008101000081010000B5
S113004081010000810100008101000081010000A4
S11300508101000081010000810100008101000094
S11300608101000081010000810100008101000084
S1130070A91100008101000081010000810100003C
S11300808101000081010000810100008101000064
S11300908101000010B5064C2378002B07D1054BD5
S11300A0002B02D0044800E000BF0123237010BDE0
S11300B084000020000000008C150000044B10B5E3
S11300C0002B03D00349044800E000BF10BDC04624
S11300D000000000880000208C150000164B002B47
S11300E000D1144B9D46402292029A1A9246002156
S11300F08B460F461348144A121A01F093F90F4B1A
S1130100002B00D098470E4B002B00D098470020BE
S1130110002104000D000D48002802D00C4800E026
S113012000BF01F05BF92000290001F049F801F05B
S11301303FF9C04600000800002000200000000035
S11301400000000084000020A8000020000000003F
S113015000000000064880470649074A074B9B1ADF
S113016003DD043BC858D050FBDCFFF7B7FF0000A9
S1130170C90200009815000000000020840000203F
S1130180FEE7C04680B582B000AF00F01FF8030060
S11301907B60084B5B680F2213407A68DA401300D7
S11301A07B60054B7A681A607B681800BD4602B014
S11301B080BDC04600800C400800002080B500AF20
S11301C0014B1800BD4680BD00366E0180B582B07B
S11301D000AF334BDB6A334A13408022520193420F
S11301E015D080225201934204D8802212019342F6
S11301F011D017E080229201934204D08022D204CD
S113020093420CD00EE0284B1B687B6039E08023BE
S11302101B027B6035E0254B1B687B6031E0244B7F
S11302207B602EE01E4BDA68E023DB001340802263
S11302309200934218D080229200934206D8002B59
S113024018D080225200934211D016E0C0229200AE
S1130250934206D08022D20093420ED1154B7B608C
S11302600EE0154B7B600BE0144B7B6008E0144BF5
S11302707B6005E0134B7B6002E000237B60C0469B
S1130280C046074B1B689B0B072213400133190020
S1130290786800F0E3FF03001800BD4602B080BD9B
S11302A000800C40003C00040400002000000020FA
S11302B000366E01406F4001809FD500C0D8A70072
S11302C040B56400804F120080B500AF024B034A72
S11302D09A60C046BD4680BD00ED00E0000000000D
S11302E080B586B000AFF860B9607A60FB681B68BF
S11302F07B610122BB689A401300DB431A007B69CF
S11303001A407B6801211940BB6899400B001A43CD
S1130310FB681A60C046BD4606B080BD80B582B099
S113032000AF786039607B681A683B68DA40130074
S1130330012213401800BD4602B080BD80B584B0D0
S113034000AF78607B68002B00D0C046786801F06D
S113035011F80300DBB21A001F239B1AFB60FB6831
S11303601800BD4604B080BD80B584B000AF78608D
S113037039600F4B5B6807221340FB607B680D4AB2
S1130380934202D80023FB6005E07B680A4A93424B
S113039001D80123FB60064B5B68072293431900D5
S11303A0034BFA680A435A60C046BD4604B080BD98
S11303B000000C400024F4000048E80180B582B03D
S11303C000AF0D4BDA6BFB1D511E8A411A700A4BAC
S11303D00A4ADA63FFF7F2FE030000211800FFF770
S11303E0C3FFFB1D1B78002B02D0034B0022DA63F2
S11303F0C046BD4602B080BD00000C40711B000029
S113040090B585B000AF786039600D4BDA6B0F247E
S11304103B19511E8A411A70094B0A4ADA633A6839
S11304207B6811001800FFF79FFF3B191B78002B16
S113043002D0034B0022DA63C046BD4605B090BD2E
S113044000000C40711B000080B582B000AF7860E2
S1130450074B5B6D0122134006D1C046044B1B6D54
S11304607A681340FAD100E0C046BD4602B080BDB0
S113047000800C4080B500AFC046BD4680BD80B54D
S113048000AFC046BD4680BD80B584B000AF786083
S113049039607B681B090F221340FB60FB680D2B3E
S11304A000D997E0FB689A004D4BD3181B689F4610
S11304B03B68002B00D0C046FFF780FF494B1B6808
S11304C0494A134019003B68013B9A03454B0A43D0
S11304D01A60FFF757FE0300BB60BB6800211800D9
S11304E0FFF78EFF77E03B68002B00D0C0463B68E7
S11304F01800FFF723FF03003B603A4B9B680F2271
S113050093431900374B3A680A439A6063E03B68A7
S11305101800FFF713FF0300013B3B60314B5B689E
S1130520324A134019003B681A022E4B0A435A60A0
S113053051E03B68002B00D0C046FFF73FFF3B680B
S11305401800FFF7FBFE03003B60264B5B680F229D
S113055093431900234B3A680A435A60FFF712FE8B
S11305600300BB60BB6800211800FFF749FF32E0BD
S11305707B681F4A934200D012E00420FFF764FF17
S11305803B681800FFF7DAFE03003B60154B9B6ED7
S11305900F2293431900134B3A680A439A66C046E4
S11305A019E07B68134A934200D012E04020FFF721
S11305B04BFF3B681800FFF7C1FE03003B60094B8B
S11305C01B6F032293431900064B3A680A431A67C8
S11305D0C04600E0C046C046BD4604B080BDC0462B
S11305E06014000000800C40FF3FFEFFFFFEFFFF91
S11305F08006120090071A0080B586B000AF7860BC
S11306000A00FB1C1A7000233B617B681B0A0F2243
S113061013400A2B34D89A001B4BD3181B689F46EF
S11306201A4B7B6118E01A4B7B6115E0194B7B6117
S113063012E0194B7B6101233B610DE0174B7B6199
S113064010233B6108E0164B7B6180235B003B6118
S113065002E0144B7B61C0467B681B0B1F221340D6
S1130660FB603B69002B03D03B691800FFF7ECFEED
S1130670FB1C1A78F9687B691800FFF731FE00E06B
S1130680C046BD4606B080BD9814000040800C40B2
S113069008800C4044800C4058800C4060800C4022
S11306A064800C4078800C4080B584B000AF7860E2
S11306B00F23FB1801221A707B680F221340BB60C2
S11306C0BB68072B00D9CAE0BB689A006A4BD318F1
S11306D01B689F46694BDB6A694A134080225201BA
S11306E0934216D080225201934204D880221201F0
S11306F0934213D01CE080229201934204D08022C2
S1130700D20493420FD013E00F23FB1802221A7075
S113071013E00F23FB1803221A700EE00F23FB18BB
S113072004221A7009E00F23FB180B221A7004E04C
S11307300F23FB1805221A70C04695E04F4B9B6AA5
S113074003221340022B08D0032B0BD0012B0ED114
S11307500F23FB1803221A7015E00F23FB18022243
S11307601A7010E00F23FB1806221A700BE0434B9B
S11307709A6A80235B02134004D00F23FB180C22D7
S11307801A7000E0C0466FE03C4B9B6A0C22134099
S1130790082B08D00C2B0BD0042B0ED10F23FB18E5
S11307A003221A7015E00F23FB1802221A7010E0BE
S11307B00F23FB1806221A700BE0304B9A6A802331
S11307C05B03134004D00F23FB180C221A7000E0C3
S11307D0C04649E0294B9B6A30221340102B02D0BB
S11307E0202B05D009E00F23FB1803221A7009E01F
S11307F00F23FB1802221A7004E00F23FB180122B6
S11308001A70C04630E00F23FB1807221A702BE041
S11308101A4BDA6AE023DB021340802292029342ED
S113082012D08022D202934204D0802252029342F8
S113083005D00EE00F23FB180A221A700EE00F23D6
S1130840FB1802221A7009E00F23FB1803221A7006
S113085004E00F23FB1801221A70C04604E00F23A2
S1130860FB1800221A70C0460F23FB181B781800CF
S1130870BD4604B080BDC046C414000000800C40D6
S1130880003C000480B588B000AF78600A00FB1C0F
S11308901A700323FB611B23FB1803221A70002325
S11308A03B617B680F221340FB60FB68072B00D978
S11308B0F7E0FB689A007F4BD3181B689F46FB1C2C
S11308C01B780C2B00D9EEE09A007B4BD3181B68E5
S11308D09F460423FB611B23FB1800221A701BE0B4
S11308E00323FB611B23FB1801221A7014E002236B
S11308F0FB611B23FB1802221A700DE00123FB612C
S11309001B23FB1803221A7006E00523FB611B233B
S1130910FB1805221A70C0461B23FB181B78012202
S11309200121180000F0D4F8FFF748FDFFF7A2FDFD
S1130930624BFA695A62FFF725FC0300BB60BB688F
S113094000211800FFF75CFDFFF799FDAEE0FB1CEA
S11309501B780C2B00D9A8E09A00594BD3181B68BC
S11309609F4600237B611DE001220121002000F04D
S1130970AFF802237B6115E001220121012000F080
S1130980A7F801237B610DE04E4B012202211800E0
S1130990FFF7A6FC03237B6104E000237B610123B2
S11309A03B61C046FB68022B0CD1444B9B6A464A10
S11309B01A407B691A4311003B691A043F4B0A43EE
S11309C09A6273E03D4B9B6A404A1A407B699B00E4
S11309D01A4311003B691A05384B0A439A6265E0D1
S11309E0FB1C1B78022B07D0032B0DD0012B00D04E
S11309F05CE000237B610FE001220121002000F074
S1130A0067F802237B6107E001220121012000F045
S1130A105FF801237B61C046284B9B6A30229343D5
S1130A2019007B691A01254B0A439A623EE0FB1CBC
S1130A301B78032B14D00A2B22D0022B00D035E0D4
S1130A4001220121002000F043F81C4B40225A628D
S1130A50C0461A4BDA6A80235B021340F9D01FE0C8
S1130A6001220121012000F033F8144B60225A6264
S1130A70C046124BDA6A80239B021340F9D00FE080
S1130A8001220121052000F023F80C4B80225A6238
S1130A90C0460A4BDA6A8023DB021340F9D0C04611
S1130AA004E0C04602E0C04600E0C046BD4608B0CF
S1130AB080BDC046E41400000415000000800C4012
S1130AC03815000040800C40FCFFFEFFF3FFEFFFF1
S1130AD090B587B000AF040008001100FB1D221C74
S1130AE01A70BB1D021C1A707B1D0A1C1A70FB1D98
S1130AF01B78052B4BD89A00274BD3181B689F46AD
S1130B0001233B610223FB6001237B6126E0042374
S1130B103B610823FB6003237B611FE010233B61DF
S1130B202023FB6005237B6118E040233B61802385
S1130B30FB6007237B6111E080235B003B61802322
S1130B409B00FB6009237B6108E08023DB003B61A1
S1130B5080231B01FB6016237B61C046BB1D1B78F1
S1130B60002B10D00D4B3A691A627B1D1B78002BA9
S1130B700ED0C0467B690A4A19001000FFF7CEFB6D
S1130B80031EF7D004E0054BFA681A6200E0C04681
S1130B90BD4607B090BDC0466C15000000800C40F7
S1130BA02C800C4080B582B000AFEFF310833B6023
S1130BB03B687B6072B67B681800BD4602B080BD9E
S1130BC080B582B000AF78607B68002B00D162B63C
S1130BD0C046BD4602B080BD80B500AFFFF7D2FA73
S1130BE0C046BD4680BD000080B500AF034A8423E3
S1130BF00021D150C046BD4680BDC04600800C4097
S1130C0080B500AF034A84230349D150C046BD4692
S1130C1080BDC04600800C400E58000080B584B0F2
S1130C2000AF0200FB1D1A70FB1D1B78002B0BD1BB
S1130C30304BDA6A304B1A601120FFF735FD0300A0
S1130C401A002E4B1A7050E02A4A8423D3580122EA
S1130C501340FB60FFF7D4FF0023BB60264B1B68E7
S1130C6001221340BA681343BB60234B1B68102254
S1130C701340BA681343BB601F4B1B6840221340E8
S1130C80BA681343BB601C4B1B6804221340BA6848
S1130C901343BB60184B1A6880235B001340BA6887
S1130CA01343BB60144B1B68DA0A8023DB00134038
S1130CB0BA681343BB600F4BBA681A620F4B1B78B8
S1130CC0052B05D00D4B1B7819001120FFF7DAFD19
S1130CD0094B1B680122134002D1064B02221A62FF
S1130CE0FB68002B01D0FFF77FFFC046BD4604B070
S1130CF080BDC04600800C40A0000020A40000205D
S1130D0080B500AF01231800BD4680BD80B500AF9B
S1130D10C046BD4680BD80B500AFC046BD4680BD5F
S1130D20B0B586B000AF0200FB1D1A70FB1D1B7826
S1130D30002B02D00020FFF771FF244B1A69234BCC
S1130D4004210A431A6117257C19FFF7D9FF030010
S1130D5023707B191B78002B0BD01D4B1B681D4A7D
S1130D601A4008203B181A6019493B181B68802256
S1130D708B50FFF7CBFFFFF715FF03003B6100F03B
S1130D8067FB3B691800FFF71BFFFFF7C4FF17233E
S1130D90FB181B78002B04D00D4A0823FB181B6892
S1130DA01360FB1D1B78002B02D00120FFF736FFD8
S1130DB0FB1D1B7801225340DBB2002B01D0FFF74F
S1130DC00BFFC046BD4606B0B0BDC04600ED00E016
S1130DD000E100E094A3F7FF80B582B000AF020009
S1130DE03960FB1D1A70FB1D1B78002B0DD0FB1DF9
S1130DF01B78012B09D0FB1D1B78022B05D0FB1D92
S1130E001B78032B01D0FB1D1B7801223B689A4001
S1130E1010000749FB1D1A781300DB009B189B0088
S1130E20CB1814331860C046BD4602B080BDC0461E
S1130E300060004080B582B000AF02003960FB1D45
S1130E401A70FB1D1B78002B0DD0FB1D1B78012B8A
S1130E5009D0FB1D1B78022B05D0FB1D1B78032B2F
S1130E6001D0FB1D1B7801223B689A401000074902
S1130E70FB1D1A781300DB009B189B00CB18103362
S1130E801860C046BD4602B080BDC0460060004048
S1130E9090B585B000AFB96011007B600F243B1999
S1130EA0021C1A700E23FB180A1C1A703B191B78BB
S1130EB0002B11D00F23FB181B78012B0CD00F2310
S1130EC0FB181B78022B07D00F23FB181B78032B6E
S1130ED002D00F23FB181B780E23FB181B78002B62
S1130EE013D07B68002B08D0BA680F23FB181B783B
S1130EF011001800FFF79EFF07E0BA680F23FB18E4
S1130F001B7811001800FFF767FFBB68072B25D873
S1130F1036490F243B191A781300DB009B189B00F9
S1130F20CB1804331B68BA6892000F2191400A0061
S1130F30D24313400E22BA181178BA689200914035
S1130F400A00110029483A19127819431300DB00EA
S1130F509B189B00C318043319602AE023490F240B
S1130F603B191A781300DB009B189B00CB1808333D
S1130F701B68BA681E498C46624492000F21914056
S1130F800A00D24313400E22BA181178BA681848DE
S1130F9084466244920091400A00110013483A19B1
S1130FA0127819431300DB009B189B00C318083305
S1130FB019600E23FB181B78002B13D17B68002BC0
S1130FC008D0BA680F23FB181B7811001800FFF72C
S1130FD031FF07E0BA680F23FB181B7811001800D3
S1130FE0FFF7FAFEC046BD4605B090BD0060004064
S1130FF0F8FFFF3F80B584B000AF786039607B684C
S1131000002B02D0012B03D008E0064BFB6002E06A
S1131010054BFB60C046FB683A681A60BD4604B0E5
S113102080BDC046080008400C00084080B584B06C
S113103000AF78607B681B78002B02D00123FB6033
S113104001E00023FB607B685B78002B03D0FB6826
S113105002221343FB607B689B78002B03D0FB6860
S113106004221343FB60034BFA681A60C046BD4672
S113107004B080BD0000084080B582B000AF02001B
S1131080FB1D1A70FB1D1B787F2B09D8FB1D1B78D9
S11310901A001F231A40044B012191400A001A60D0
S11310A0C046BD4602B080BD00E100E080B500AF9F
S11310B0034BDB6C1B0EDBB21800BD4680BDC04683
S11310C0B081E00F80B582B000AF02003960FB1D33
S11310D01A70FB1D1B78002B0DD0FB1D1B78012BF8
S11310E009D0FB1D1B78022B05D0FB1D1B78032B9D
S11310F001D0FB1D1B7801223B689A401000074970
S1131100FB1D1A781300DB009B189B00CB181833C7
S11311101860C046BD4602B080BDC04600600040B5
S113112090B583B000AF0C4B01221A64FC1DFFF78D
S1131130BDFF03002370FB1D1B78812B08D8074BD0
S1131140074A1A60074B1A68064B07490A401A6097
S1131150C046BD4603B090BD00000C4018600C4072
S113116005000004E4800C40FFFFFFFE80B582B060
S113117000AF7860034B7A689A61C046BD4602B0FE
S113118080BDC0460000084080B582B000AF7860E2
S1131190044BD969034B7A680A43DA61C046BD46F9
S11311A002B080BD0000084080B500AF0220FFF708
S11311B0DDFF04210520FFF785FFC046BD4680BD45
S11311C080B582B000AFFFF7ABFF01220121002000
S11311D0FFF77EFC1C4B02211800FFF753FB1B4B4F
S11311E001211800FFF708FA194B01211800FFF735
S11311F003FA164B08211800FFF746F93B1D154A60
S11312001188198092789A703B1D1800FFF70EFF21
S1131210F0239B0219000020FFF7ECFE0220FFF7E9
S1131220B3FF0C20FFF728FF0B4B01211800FFF739
S1131230E3F90023042204210520FFF729FE0120FD
S1131240FFF76EFDFBE7C04602001E008006120099
S1131250D0233E00841500000082040000224308CD
S11312608B4274D303098B425FD3030A8B4244D36A
S1131270030B8B4228D3030C8B420DD3FF220902AC
S113128012BA030C8B4202D31212090265D0030B6B
S11312908B4219D300E0090AC30B8B4201D3CB0361
S11312A0C01A5241830B8B4201D38B03C01A5241A3
S11312B0430B8B4201D34B03C01A5241030B8B42A5
S11312C001D30B03C01A5241C30A8B4201D3CB0290
S11312D0C01A5241830A8B4201D38B02C01A524175
S11312E0430A8B4201D34B02C01A5241030A8B4278
S11312F001D30B02C01A5241CDD2C3098B4201D390
S1131300CB01C01A524183098B4201D38B01C01A0D
S1131310524143098B4201D34B01C01A5241030984
S11313208B4201D30B01C01A5241C3088B4201D333
S1131330CB00C01A524183088B4201D38B00C01AE0
S1131340524143088B4201D34B00C01A5241411A07
S113135000D20146524110467047FFE701B5002014
S113136000F006F802BDC0460029F7D076E77047C2
S11313707047C0461C2101231B04984201D3000C72
S113138010391B0A984201D3000A08391B099842F4
S113139001D30009043902A2105C40187047C0460A
S11313A0040302020101010100000000000000002A
S11313B0084B10B50400002B02D0002100E000BF50
S11313C0054B1868836A002B00D09847200000F072
S11313D031F8C046000000008815000070B50026F2
S11313E00C4D0D4C641BA410A64209D1002600F03C
S11313F023F80A4D0A4C641BA410A64205D170BD03
S1131400B300EB5898470136EEE7B300EB58984722
S11314100136F2E77C0000207C0000207C000020E4
S11314208000002003001218934200D17047197005
S11314300133F9E7FEE7C046F8B5C046F8BC08BC7E
S11314409E467047F8B5C046F8BC08BC9E46704737
S113145001B40248844601BC604700BF6D0000200F
S1131460D4050000B0040000D4050000D405000039
S1131470E6040000D4050000D40500003205000095
S113148070050000A2050000D4050000D40500008A
S1131490D40500000E0500008006000026060000AA
S11314A02C060000200600008006000080060000D4
S11314B0320600003C0600004606000080060000DC
S11314C0520600005E080000D40600003C0700003D
S11314D088070000D40700005E080000060800002A
S11314E010080000A20A0000BE0800004E09000017
S11314F04E090000E0090000A20A0000A20A000050
S11315002E0A0000A60A0000A60A0000D208000065
S1131510E0080000EE080000FC080000A60A000035
S1131520A60A0000A60A0000A60A0000A60A0000F7
S11315300A090000A60A0000AA0A000062090000C5
S11315406809000078090000AA0A0000AA0A00003D
S113155088090000AA0A0000AA0A0000AA0A0000DA
S1131560AA0A0000AA0A00009A090000380B000029
S11315702A0B00000E0B0000000B00001C0B0000E7
S11315804A0B0000010001000C00002000000000D4
S10B15904CEBFF7F0100000099
S113159800366E0100800000809FD5000000000026
S11315A8000000000000000000000000000000002F
S11315B8000000000000000000000000000000001F
S11315C8000000000000000000000000000000000F
S11315D800000000000000000000000000000000FF
S11315E800000000000000000000000000000000EF
S11315F800000000000000000000000080B500AFFB
S113160830BF04231B68C046BD4680BDBD00000032
S10716189500000035
S9030155A6
