S00B00004F6566312E7333379E
S11300000020002085020000B1020000B1020000BF
S1130010B1020000B1020000B1020000B102000010
S1130020B1020000B1020000B1020000B102000000
S1130030B1020000B0020000B1020000B1020000F1
S1130040B1020000B1020000B1020000B1020000E0
S1130050B1020000B1020000B1020000B1020000D0
S1130060B1020000B1020000B1020000B1020000C0
S1130070B1020000B1020000B1020000B1020000B0
S1130080B1020000B1020000B1020000B1020000A0
S1130090B102000010B5064C2378002B07D1054BA4
S11300A0002B02D0044800E000BF0123237010BDE0
S11300B0680000200000000074040000044B10B528
S11300C0002B03D00349044800E000BF10BDC04624
S11300D0000000006C00002074040000164B002B8C
S11300E000D1144B9D46402292029A1A9246002156
S11300F08B460F461348144A121A00F09BF90F4B13
S1130100002B00D098470E4B002B00D098470020BE
S1130110002104000D000D48002802D00C4800E026
S113012000BF00F063F92000290000F001F900F09D
S113013047F9C0460000080000200020000000002D
S1130140000000006800002084000020000000007F
S11301500000000080B582B000AF02003960FB1DD2
S11301601A70FB1D1B78002B0DD0FB1D1B78012B77
S113017009D0FB1D1B78022B05D0FB1D1B78032B1C
S113018001D0FB1D1B7801223B689A4010000749EF
S1130190FB1D1A781300DB009B189B00CB1814334B
S11301A01860C046BD4602B080BDC0460060004035
S11301B080B582B000AF02003960FB1D1A70FB1DD0
S11301C01B78002B0DD0FB1D1B78012B09D0FB1DC8
S11301D01B78022B05D0FB1D1B78032B01D0FB1DC4
S11301E01B7801223B689A4010000749FB1D1A78CE
S11301F01300DB009B189B00CB1810331860C0461B
S1130200BD4602B080BDC0460060004080B584B0E9
S113021000AF78600023FB600123BB6028E07B68AB
S1130220BA681A40FB68DA401300012B0DD1144B55
S1130230FA68D200D05C124AFB68DB00D31804339E
S11302401B681900FFF7B4FF0CE00D4BFA68D200ED
S1130250D05C0B4AFB68DB00D31804331B6819001D
S1130260FFF778FFFB680133FB60BB685B00BB6092
S1130270FB68012BD3DD00231800BD4604B080BD0C
S113028060040000064880470649074A074B9B1A4A
S113029003DD043BC858D050FBDCFFF71FFF000010
S11302A0B502000080040000000000206800002067
S11302B0FEE7C04680B500AF024B034A9A60C046D1
S11302C0BD4680BD00ED00E00000000080B500AF39
S11302D0034BDB6C1B0EDBB21800BD4680BDC04671
S11302E0B081E00F90B583B000AF0C4B01221A64CB
S11302F0FC1DFFF7EBFF03002370FB1D1B78812B14
S113030008D8074B074A1A60074B1A68064B074977
S11303100A401A60C046BD4603B090BD00000C40C0
S113032018600C4005000004E4800C40FFFFFFFE51
S113033080B58AB000AFFFF7D5FF1C4B5A6C1B4B3E
S113034001210A435A641A4B01225A60C046184BD1
S11303505B6A184A9342FAD917217B1881221A70D2
S11303607B187B6214217B18134A1A807B183B622A
S1130370124B3B611023FB18FB613B1D00221A60EA
S11303803B1D01225A603B1D02229A603B1DBB614A
S1130390074B5B6A0122134003D00120FFF736FFAD
S11303A0F6E70020FFF732FFF2E7C04600800C407A
S11303B000000140E70300000180FFFF01B4C40412
S11303C0084B10B50400002B02D0002100E000BF50
S11303D0054B1868836A002B00D09847200000F072
S11303E031F8C046000000007004000070B500261B
S11303F00C4D0D4C641BA410A64209D1002600F03C
S113040023F80A4D0A4C641BA410A64205D170BD02
S1130410B300EB5898470136EEE7B300EB58984722
S11304200136F2E760000020600000206000002038
S11304306400002003001218934200D17047197021
S11304400133F9E7FEE7C046F8B5C046F8BC08BC7E
S11304509E467047F8B5C046F8BC08BC9E46704737
S11304600500000004000000050000000500000075
S10B0470000000200000000060
S10B047864FCFF7F0100000099
S11304800000000000000000000000000000000068
S11304900000000000000000000000000000000058
S11304A00000000000000000000000000000000048
S11304B00000000000000000000000000000000038
S11304C00000000000000000000000000000000028
S11304D00000000000000000000000000000000018
S10B04E0BD00000095000000BE
S903028575
