S00C00004578325F342E73333766
S11300000020002055010000810100008101000052
S113001081010000810100008101000081010000D4
S113002081010000810100008101000081010000C4
S113003081010000800100008101000081010000B5
S1130040B12C000081010000810100008101000049
S11300508101000081010000810100008101000094
S11300608101000081010000810100008101000084
S11300708101000081010000810100008101000074
S11300808101000081010000810100008101000064
S11300908101000010B5064C2378002B07D1054BD5
S11300A0002B02D0044800E000BF0123237010BDE0
S11300B0000300200000000074580000044B10B539
S11300C0002B03D00349044800E000BF10BDC04624
S11300D0000000000403002074580000164B002B9D
S11300E000D1144B9D46402292029A1A9246002156
S11300F08B460F461348144A121A03F08CFE0F4B1A
S1130100002B00D098470E4B002B00D098470020BE
S1130110002104000D000D48002802D00C4800E026
S113012000BF03F02BFE2000290003F037FD03F08D
S11301300FFEC04600000800002000200000000060
S11301400000000000030020C8060020000000009A
S113015000000000064880470649074A074B9B1ADF
S113016003DD043BC858D050FBDCFFF7B7FF0000A9
S1130170C90200008058000000000020180200207E
S1130180FEE7C04680B582B000AF00F01FF8030060
S11301907B60084B5B680F2213407A68DA401300D7
S11301A07B60054B7A681A607B681800BD4602B014
S11301B080BDC04600800C400800002080B500AF20
S11301C0014B1800BD4680BD00366E0180B582B07B
S11301D000AF334BDB6A334A13408022520193420F
S11301E015D080225201934204D8802212019342F6
S11301F011D017E080229201934204D08022D204CD
S113020093420CD00EE0284B1B687B6039E08023BE
S11302101B027B6035E0254B1B687B6031E0244B7F
S11302207B602EE01E4BDA68E023DB001340802263
S11302309200934218D080229200934206D8002B59
S113024018D080225200934211D016E0C0229200AE
S1130250934206D08022D20093420ED1154B7B608C
S11302600EE0154B7B600BE0144B7B6008E0144BF5
S11302707B6005E0134B7B6002E000237B60C0469B
S1130280C046074B1B689B0B072213400133190020
S1130290786803F0B3FC03001800BD4602B080BDCB
S11302A000800C40003C00040400002000000020FA
S11302B000366E01406F4001809FD500C0D8A70072
S11302C040B56400804F120080B500AF024B034A72
S11302D09A60C046BD4680BD00ED00E0000000000D
S11302E080B500AF80231B021800BD4680BD80B5D9
S11302F000AFFA239B001800BD4680BD80B500AF57
S1130300024B1B681800BD4680BDC0460400002097
S113031080B582B000AF114B7B60114B1B7801227A
S11303205340DBB2002B14D00D4B01221A700CE0A9
S11303307B681B68984703003B603B68002B01D037
S11303403B6807E07B6804337B607B681B68002B99
S1130350EED100231800BD4602B080BD0C00002081
S11303604803002080B584B000AF78603960104B3A
S11303701B7801225340DBB2002B02D00D4BFB60F3
S113038011E07B68002B0CDC7B682C225A430A4B5F
S1130390D1183B682C22180003F034FD0023FB60C5
S11303A001E0064BFB60FB681800BD4604B080BD4D
S11303B048030020050011801C0300200200118066
S11303C080B584B000AF7860124B1B780122534093
S11303D0DBB2002B02D0104BFB6016E00F4B1B6806
S11303E0002B10DC0D4B1B68591C0C4A11602C228D
S11303F05A430B4BD31879682C22180003F002FDE2
S11304000023FB6001E0074BFB60FB681800BD465E
S113041004B080BD48030020050011804C03002077
S11304201C0300200100118080B58CB000AF00F0E7
S1130430A5FA00F03FFA00F0BDFA002300220C21D7
S1130440042000F0C9FA002300220A21042000F04D
S1130450C3FA002300220A21002000F0BDFA002381
S113046000220821002000F0B7FA00230022032113
S1130470052000F0B1FA40220321052000F0F8FA2B
S11304800300FB62FB6A002B01D0FB6A35E03B00F2
S11304901C4A1A603B0001221A743B0000225A7461
S11304A03B0080225A603B008022DA603B005A689D
S11304B03B009A603B00144A5A613B00134A9A611C
S11304C03B00134ADA613B00124A1A623B00124AAB
S11304D05A623B00114A9A623B001800FFF770FF12
S11304E00300FB62FB6A002B06D13B0001211800CC
S11304F000F025F800F03CF8FB6A1800BD460CB08B
S113050080BDC046384E00003F050000BD05000018
S1130510250600009D0600003D06000021050000A0
S113052080B584B000AF78600023FB6000F026FA49
S113053000F0C0F9FB681800BD4604B080BD80B56A
S113054082B000AF78600A00FB1C1A70FB1C1B7899
S1130550002B04D00821002000F064FA03E00821F5
S1130560002000F072FA00231800BD4602B080BDDE
S113057080B582B000AF0A21002000F053FA0620B3
S113058000F008FA0C4B1B7804221343DBB29AB236
S1130590BB1D1A80BB1D0221180000F0B5F9022012
S11305A000F0F8F90A21002000F04FFA00231800A7
S11305B0BD4602B080BDC0465003002080B586B061
S11305C000AFF860B9607A603B60BB68DA087B68AA
S11305D053437B61BB68802B01D00E4B16E00E4B5E
S11305E01A687B69D2180D4B9A4204D93B680022E1
S11305F01A600B4B0AE0084B1A683B681A60064BFA
S11306001A687B69D218044B1A6000231800BD468F
S113061006B080BD0200118014000020D403002025
S11306200100118080B582B000AF78603960024B60
S11306301800BD4602B080BD0400118080B588B0AA
S113064000AFF860B9607A603B60BB68FB61FB682F
S11306501B7C012B04D11B23FB1800221A7003E01E
S11306601B23FB18FF221A7000237B610DE01B2360
S1130670FB181978FB691022180003F0CCFBFB6906
S11306801033FB617B6901337B617A693B689A4271
S1130690EDD300231800BD4608B080BD80B588B0F6
S11306A000AFF860B9607A603B60BB68BB61BB6A4D
S11306B00133BB620A21002000F0B4F9062000F0E7
S11306C069F9BB6A9BB21B029BB2012213439AB223
S11306D016217B181A807B180221180000F014F9E7
S11306E00023FB612BE0BB691021180000F00CF91A
S11306F0BB691033BB61FB6A013BFA699A4205D1BD
S11307001623FB18012252421A800FE0BB6A9AB2E8
S1130710FB699BB2D3189BB201339BB21B029BB201
S1130720FF2213439AB21623FB181A801623FB18D0
S11307300221180000F0E8F8FB690133FB61FA6953
S1130740FB6A9A42CFD3022000F024F90A21002048
S113075000F07BF900231800BD4608B080BD0000FE
S113076080B582B000AF02003960FB1D1A70FB1D1A
S11307701B78002B21D0FB1D1B78012B1AD0FB1DED
S11307801B78022B14D0FB1D1B78032B0ED0FB1DF2
S11307901B78042B07D0FB1D1B78052B01D13F23AD
S11307A00CE000230AE0F0239B0107E0F02305E0BE
S11307B0114B03E0D323DB0100E0104B3A681341F3
S11307C00122134006D1F7239A000D4B11001800A3
S11307D001F051F901223B689A4010000949FB1DC0
S11307E01A781300DB009B189B00CB181433186095
S11307F0C046BD4602B080BD1FEF000007070000E1
S1130800504E00000060004080B582B000AF02008E
S11308103960FB1D1A70FB1D1B78002B21D0FB1DBA
S11308201B78012B1AD0FB1D1B78022B14D0FB1D47
S11308301B78032B0ED0FB1D1B78042B07D0FB1D4C
S11308401B78052B01D13F230CE000230AE0F023A1
S11308509B0107E0F02305E0114B03E0D323DB0108
S113086000E0104B3A6813410122134005D10E4AAF
S11308700E4B1100180001F0FEF801223B689A406B
S113088010000B49FB1D1A781300DB009B189B001A
S1130890CB1810331860C046BD4602B080BDC046B8
S11308A01FEF0000070700000B040000504E00007B
S11308B00060004090B589B000AF0023FB613B1D90
S11308C00D4A13CA13C313CA13C30C4B01211800D6
S11308D001F0D8FC3B1D0A4A9A603B1D094A1900E5
S11308E0100002F0B3FF074B0A225A65FB69180097
S11308F0BD4609B090BDC046B44E000000320400AD
S1130900E0C8100000C0004080B584B000AF78603B
S113091039600023FB6021E03B68012B03D07B6836
S1130920012213400DD07B681B78134A1900100074
S113093003F058F83B68013B3B607B6801337B6004
S11309400CE07B681B880C4A1900100003F05FF868
S11309503B68023B3B607B6802337B603B68002B57
S1130960DAD1C046044B1B6920221340FAD0FB683D
S11309701800BD4604B080BD00C0004080B582B000
S113098000AF00237B6000F0DDFE7B681800BD46ED
S113099002B080BD80B584B000AF78600023FB60F6
S11309A07B68180000F0C8FFFB681800BD4604B05F
S11309B080BD000080B582B000AF00237B60054B92
S11309C00121180001F05EFC7B681800BD4602B0EE
S11309D080BDC0460082040090B587B000AFF860C7
S11309E0B9603B60FB1D1A7000237B61FB1D1B7803
S11309F0002B0FD113217B1804221A70C046FB6808
S1130A00D8B23C687B181A78B968230002F0F4FC69
S1130A107B6900E0024B1800BD4607B090BDC0469C
S1130A200100138080B584B000AF78603960002382
S1130A30FB607B68DBB23A6811001800FFF7E4FE44
S1130A40FB681800BD4604B080BD80B584B000AF1B
S1130A50786039600023FB607B68DBB23A68110080
S1130A601800FFF77DFEFB681800BD4604B080BD8A
S1130A7080B588B000AFF860B9607A600023FB618C
S1130A80A0239B03BB6101237B61154B012118004B
S1130A9001F0F8FB7A69BB691900002002F088FDB7
S1130AA0104B9B68104A1A400E4B802149000A43A0
S1130AB09A600C4B9A680B4B01210A439A60FB68BD
S1130AC0D8B2B9680023042202F096FC7B681800AF
S1130AD000F020F8FB691800BD4608B080BDC04690
S1130AE00062040000C00C40FFF8FFFF80B582B034
S1130AF000AF7860064B0121180001F0C3FB7B684E
S1130B000C21180001F0D4FDC046BD4602B080BDE2
S1130B10D0233E0090B585B000AF78600C243B191B
S1130B201C4A1188198092789A701B4B1800FFF7A1
S1130B30DDFF1A4B0221180001F098FA174B01212E
S1130B40180001F09FFB3B1900221A703B19002288
S1130B505A703B1901229A703B19180002F0F2FDF9
S1130B600E4B180001F0F0FB03007968180003F045
S1130B7045F80300013B1B021B0A1900002002F088
S1130B8087FD02F005FE012002F0B0FDC046BD461F
S1130B9005B090BDCC4E000002001E00800612007D
S1130BA080B582B000AF786000231800BD4602B063
S1130BB080BD80B582B000AF7860FEE780B582B0BA
S1130BC000AF786039603B68802292015A6000234C
S1130BD01800BD4602B080BD80B582B000AF786019
S1130BE001231800BD4602B080BD80B584B000AFBB
S1130BF0F860B9607A6000231800BD4604B080BD77
S1130C0080B586B000AFF860B9607A6000237B617C
S1130C100FE000F08FF803003B613B6901330ED015
S1130C20BB685A1CBA603A69D2B21A707B69013344
S1130C307B617B685A1E7A60002BEAD100E0C046D3
S1130C407B69002B02DC01235B4200E07B69180016
S1130C50BD4606B080BD000080B584B000AF7860AA
S1130C600A4B1B68002B02D1084B094A1A60074B38
S1130C701B68FB60054B1A687B68D218034B1A602B
S1130C80FB681800BD4604B080BDC046D4030020F4
S1130C90C806002080B586B000AFF860B9607A60FD
S1130CA000237B6109E0BB685A1CBA601B781800FA
S1130CB000F048F87B6901337B617A697B689A426A
S1130CC0F1DB7B681800BD4606B080BD80B58EB0F0
S1130CD000AF0823FB1819000020FFF743FB0300B3
S1130CE07B637B6B002B1BD13B0000221A603B0013
S1130CF000221A713B0001225A710C4A3B00110078
S1130D00180000F03DF803007B637B6B002B07D1D8
S1130D10074B1B68986800230222002103F09EF809
S1130D207B6B1800BD460EB080BDC046D8030020C2
S1130D303000002080B500AF01235B421800BD469F
S1130D4080BD000080B582B000AF0200FB1D1A70A8
S1130D500A4B1B68002B0AD0084B1A68FB1D1B7832
S1130D601900100000F0EEF8FB1D1B7801E00123D0
S1130D705B421800BD4602B080BDC046D8030020C7
S1130D8090B587B000AF7860396000237B610023A1
S1130D903B6116E0674A3B69552158204343D31809
S1130DA05B181B7801225340DBB2002B06D03B6951
S1130DB058225A435F4BD3187B6105E03B690133EA
S1130DC03B613B69002BE5DD7B69002B01D15A4B6C
S1130DD0ABE07B681A687B69043319001000FFF7E5
S1130DE0C1FA0300BB60BB68002B01D0BB689CE068
S1130DF07B695B7D002B21D17B69DC697B69181DD4
S1130E007B6999687B693C330822A0470300BB6077
S1130E10BB68002B01D0BB6887E07B699C6A7B6957
S1130E20181D7B69D96B7B699A680823A047030066
S1130E30BB60BB68002B04D0BB6876E07B690022F2
S1130E40DA633E4B3A691201D2587B691B69DB08AD
S1130E509A4201D93A4B68E0384A3B691B01D318DE
S1130E6004331A687B699B68DB089A4201D9344BC6
S1130E705BE0324B3A691201D2587B695A632F4ABC
S1130E803B691B01D31804331A687B691A632B4A24
S1130E903B691B01D31808331A687B691A64274A13
S1130EA03B691B01D3180C331A687B695A647B684D
S1130EB01A687B691A607B6819797B6938229954AE
S1130EC07B6859797B69392299540023FB600FE0D0
S1130ED07B69196C7B691B6BFA685A437B69586C94
S1130EE0FB689B00C3188A181A60FB680133FB6017
S1130EF07B695B6BFA689A42EAD37B6948220021DA
S1130F0099547B694922002199547B694A22002122
S1130F1099547B69180000F08FF87B6955220121F0
S1130F2099543B687A691A6000231800BD4607B0DB
S1130F3090BDC046DC03002005001280180000208C
S1130F400200128080B584B000AF78600A00FB1CF8
S1130F501A707B68FB60FB6855229B5C012253403E
S1130F60DBB2002B01D0334B60E0FB685B7D002BD0
S1130F7004D1FB6854220121995403E0FB685422F4
S1130F8002219954FB6838229B5C002B0FD0FB682C
S1130F90DB6C002B17D1FB681A6DFB685B6B013BA4
S1130FA09A4210D1FB685422002199540BE0FB684B
S1130FB0DB6C002B07D1FB681B6D002B03D1FB6896
S1130FC0542200219954FB1C1B780C2B0DD1FB6877
S1130FD0180000F031F8FB68542200219954FB6892
S1130FE0180000F0F1FA030020E0FB6839229B5C52
S1130FF0002B08D0FB1C1B780A2B04D1FB680D21A5
S1131000180000F05BF9FB1C1A78FB68110018004B
S113101000F054F9FB6854229B5C032B05D0FB6859
S1131020180000F0D1FA030000E000231800BD46C8
S113103004B080BD0600128080B582B000AF786035
S11310407B685B6C002B14D07B68186C7B685A6BD4
S11310507B681B6B53431A00002102F0DCFE7B68A3
S11310600022DA647B6800221A657B68542200211E
S11310709954C046BD4602B080BD000080B584B01E
S113108000AF78600023FB6014E07B685A6CFB6857
S11310909B00D31818687B685A6CFB6801339B006B
S11310A0D31819687B681B6B1A0002F0ABFEFB684F
S11310B00133FB607B685B6B013BFA689A42E4D3C3
S11310C07B685A6C7B685B6B0D498C4663449B0060
S11310D0D31818687B681B6B1A00002102F09BFE72
S11310E07B680022DA647B685B6B5A1E7B681A6536
S11310F07B68542200219954C046BD4604B080BD8B
S1131100FFFFFF3F80B586B000AF786039600F23E2
S1131110FB1800221A703B681B2B0FD1644B04226E
S11311200021180002F077FE3B68DAB2604B1A70B7
S11311307B685422032199540123B4E05C4B1B784F
S11311401B2B01D00023AEE0594B7B617B6901333B
S11311507B617B691B78002BF8D13B68DAB27B6931
S11311601A70534B180002F025FF0300BB600023E4
S11311703B6171E03B699A004E4BD118BA684C4B05
S1131180180002F01EFF031E63D10F23FB18012277
S11311901A707B685422032199543B699A00454B89
S11311A0D318180002F006FF0200BB68934257D11F
S11311B03B69052B41D83B699A003F4BD3181B6808
S11311C09F467B6800221A657B680022DA6434E05B
S11311D07B681B6D002B29D07B681B6D5A1E7B68B6
S11311E01A6523E07B681A6D7B685B6B013B9A424E
S11311F01ED27B681B6D5A1C7B681A6518E07B68DD
S1131200DA6C7B681B6B013B9A4213D27B68DB6C04
S11312105A1C7B68DA640DE07B68DB6C002B0BD016
S11312207B68DB6C5A1E7B68DA6405E0C04604E028
S1131230C04602E0C04600E0C0461D4B0422002127
S1131240180002F0E8FD7B6854220321995401231D
S113125029E03B6901333B613B69052B8ADD00E0F2
S1131260C0460F23FB181B7801225340DBB2002B2E
S113127007D00F4B04220021180002F0CCFD0023FC
S113128011E0BB68032B0BD1094B04220021180089
S113129002F0C1FD7B68542203219954012302E02A
S11312A00F23FB181B781800BD4606B080BDC0464E
S11312B03404002008520000F051000080B582B0D0
S11312C000AF786039603B680A2B08D00D2B02D040
S11312D0082B27D03BE07B680022DA648CE07B6833
S11312E01B6D5A1C7B681A657B680022DA647B6874
S11312F01A6D7B685B6B9A4200D27AE07B68382275
S11313009B5C002B09D07B681800FFF7B7FE7B6855
S11313105B6B5A1E7B681A656BE07B681800FFF7ED
S11313208BFE66E07B681B7D002B10D07B681B7DE9
S1131330012B0CD07B684822FF2199547B684922F9
S1131340002199547B684A220021995454E03A6858
S11313507B6811001800FFF7D5FE031E4BD102F085
S113136031FD02003B680133D3181B781A00972320
S1131370134001D120233B607B68DA6C7B681B6BD4
S11313809A4207D37B680022DA647B681B6D5A1C7F
S11313907B681A657B681A6D7B685B6B9A4212D313
S11313A07B6838229B5C002B09D07B681800FFF710
S11313B065FE7B685B6B5A1E7B681A6503E07B687D
S11313C01800FFF739FE3B68DAB27B68596C7B681A
S11313D01B6D9B00CB1819687B68DB6CCB18203A1B
S11313E0D2B21A707B68DB6C5A1C7B68DA64C04624
S11313F002E0C04600E0C046BD4602B080BD000029
S1131400B0B58EB002AF786039607B68DB6B7B620D
S11314100023BB62BAE00023FB6235E07B685A6CB0
S11314203B689B00D3181A68FB6AD2180F217B18FB
S113143012781A707B181A78BB6A64214B43D2184D
S11314400E23FB185E498A5C1A707B681B7D002B97
S113145003D014DB022B12DC07E07A6AFB6AD31890
S11314600E22BA1812781A700BE07A6AFB6AD31843
S11314700E22BA181278D243D2B21A7001E0514B3C
S11314809AE0FB6A0133FB627B681B6BFA6A9A423F
S1131490C4D37B681B7D022B6FD17B6848229B5C85
S11314A0DB09DBB25AB27B6849215B5C9B115BB2FE
S11314B002210B405BB213435AB27B684A215B5C46
S11314C05B115BB204210B405BB213435AB2172386
S11314D0FB181A707B6A3B617B689B68DB08013BE5
S11314E0FB6147E000233B620023BB611CE0FB6916
S11314F03A69D3181B781A00BB691A4113000122F8
S1131500134003D11723FB181A7800E00722B969A6
S11315100B005B005B189A4013001A003B6A1343EC
S11315203B62BB690133BB61BB69072BDFDDFA6931
S113153013005B009B181A003B699B183A6AD2B2ED
S11315401A703B6A190AFA6913005B009B1801338D
S11315503A69D318CAB21A703B6A190CFA691300B3
S11315605B009B1802333A69D318CAB21A70FB693C
S1131570013BFB61FB69002BB4DA7B68DB68DB08A9
S11315807A6AD3187B62BB6A0133BB62BB6A072BDE
S113159000D840E77B685C6A7B68181D7B68D96B60
S11315A07B681B6BDD003B68DB0008220192009323
S11315B02B000022A04703001800BD460CB0B0BDAC
S11315C0D04E00000400128090B587B002AF78605E
S11315D07B6854229B5C012B00D174E0022B00D168
S11315E080E0002B00D07FE07B685B7D002B66D120
S11315F00023FB6008E0FA687B6811001800FFF71D
S1131600FFFEFB680133FB607B685B6BFA689A4200
S1131610F1D37B685B6BDA007B681B699A4250D21A
S11316207B681B7D012B0DD0022B15D0002B20D104
S11316307B68D86B7B689B68DB081A00002102F08A
S1131640EAFB18E07B68D86B7B689B68DB081A00B0
S1131650FF2102F0E0FB0EE07B68D86B7B689A68A0
S113166013005B009B18DB081A00FF2102F0D3FB78
S113167001E0204B39E07B685B6BDB00FB6018E02A
S11316807B685C6A7B68181D7B68D96B7B689A6889
S113169001230193FB68009313000022A047030079
S11316A0BB60BB68002B01D0BB681EE0FB68013344
S11316B0FB607B681B69FA689A42E1D301E00D4B39
S11316C013E0C04610E07B685B7D002B08D17B688B
S11316D01A6D7B6811001800FFF792FE030004E006
S11316E0044B02E0034B00E000231800BD4605B0A4
S11316F090BDC0460400128080B582B000AF0200E5
S1131700FB1D1A70FB1D1B787F2B0AD8FB1D1B7851
S11317101A001F231340054901229A40C0235B008D
S1131720CA50C046BD4602B080BDC04600E100E0DC
S113173080B500AF024B5B681800BD4680BDC04653
S113174000000840B0B58AB000AF2723FB18002280
S11317501A702623FB1800221A702523FB18002276
S11317601A702423FB1800221A702323FB1800226A
S11317701A703B006A4A1188198092789A70002383
S1131780FB610023BB6100237B6100233B61654B4C
S11317901B6C0422134008D1634B0121180000F094
S11317A071FD2723FB1801221A700F257C195F4B4A
S11317B0180000F085FE030023707B191B78032BAF
S11317C003D02523FB1801221A70564BDB6A4022F2
S11317D0134003D12423FB1801221A70534B032115
S11317E0180000F065FF524B180000F0ADFB030039
S11317F0BB6080235B004E4A1900100000F036FCE9
S1131800484B9B6D0122134008D1494B012118001C
S113181000F038FD2623FB1801221A7001F028F984
S113182003007B60434B1B68012213401BD0414BD8
S11318301B68FB613F4B9B68BB613E4BDB687B6174
S11318403C4BDB693B613B4B00221A60394B002265
S1131850DA61384B07229A610C20FFF74DFF2323EE
S1131860FB1801221A703B0000229A703B001800FA
S113187001F068FF00F07CF87B68180001F006F9BD
S11318802323FB181B78002B18D0BB68284A1900A7
S1131890100000F0EBFB012001F03CFF254BBA697E
S11318A09A60244B7A69DA60224BFA691A60214BF8
S11318B03A69DA61002001F02DFF02E0002001F016
S11318C015FF2623FB181B78002B04D0184B00218E
S11318D0180000F0D7FC2523FB181B78002B07D039
S11318E00F23FB181B78114A1900100000F0E0FECA
S11318F02423FB181B78002B04D000220021012094
S113190001F02AF82723FB181B78002B04D0064B80
S11319100021180000F0B6FCC046BD460AB0B0BDB8
S11319202052000000800C40D0233E0002001E0024
S1131930800612000000084080B582B000AF7860D5
S11319407B680A49002B0CD0013B8822120200322A
S113195053430A68D80AD20A5043800901D0013897
S1131960FDD8C046BD4602B080BDC0462800002058
S113197080B584B000AF0823BB60344B8022520191
S11319801A601CE000F064F803007B60C04600F0BD
S11319905FF802007B689342F9D000F059F8030025
S11319A07B602A4B1B68180000F05AF800F050F8CE
S11319B002007B68D31A7B607B68002B06D1234B23
S11319C01B685B00214A1360DCD100E0C0461F4B5A
S11319D01B685A081D4B1A601C4B1B68FB6026E0F1
S11319E01A4B1A68FB681A43184B1A6000F030F857
S11319F003007B60C04600F02BF802007B68934232
S1131A00F9D000F025F803007B60104B1B68180028
S1131A1000F026F800F01CF802007B68934206D020
S1131A20FB68DA43094B1B681A40084B1A60BB6811
S1131A305A1EBA60002B05D0FB685B08FB60FB688C
S1131A40002BCDD1C046BD4604B080BD2800002087
S1131A5080B500AFFFF76CFE03001800BD4680BDE3
S1131A6080B582B000AF78607B68013BFDD8C0468A
S1131A70BD4602B080BD80B582B000AF78603960E9
S1131A80FEE780B586B000AFF860B9607A60FB68A5
S1131A901B687B610122BB689A401300DB431A0078
S1131AA07B691A407B6801211940BB6899400B008F
S1131AB01A43FB681A60C046BD4606B080BD80B5B7
S1131AC082B000AF786039607B681A683B68DA409E
S1131AD01300012213401800BD4602B080BD00006F
S1131AE080B582B000AF78607B681F2B06D996233F
S1131AF05A00064B11001800FFF7BDFF01227B6856
S1131B009A4013001800BD4602B080BD2452000064
S1131B1080B584B000AF78607B68002B04D07A680D
S1131B2080231B029A4205D9094A0A4B1100180066
S1131B30FFF7A1FF786802F0EDF80300DBB21A00AA
S1131B401F239B1AFB60FB681800BD4604B080BDD0
S1131B50C20A00008C52000080B500AF034BDB6C5E
S1131B601B0EDBB21800BD4680BDC046B081E00F3D
S1131B7080B582B000AF254B5A69E023DB001340E7
S1131B808022920093421ED080229200934206D873
S1131B90002B26D08022520093421FD027E0C0227F
S1131BA09200934204D0E022D20093421CD01EE063
S1131BB0FFF7D2FF0300122B02D9154B7B601FE005
S1131BC0144B7B601CE0FFF7C7FF0300122B02D904
S1131BD0114B7B6014E0114B7B6011E0104B7B6078
S1131BE00EE0104B7B600BE00F4B7B6008E00023A2
S1131BF07B600E4A0E4B11001800FFF73CFFC046F5
S1131C007B681800BD4602B080BDC04600800C4011
S1131C10804F120040420F0040B56400C0CF6A00FC
S1131C20C0D8A700809FD500406F4001220D00005E
S1131C30F052000090B583B000AFFC1C114B1800AB
S1131C4000F03EFC03002370FB1C1B78072B06D01E
S1131C50092B09D1FEF7BAFA03007B600DE0FFF708
S1131C6087FF03007B6008E000237B60064A074B84
S1131C7011001800FFF7FFFEC0467B681800BD4640
S1131C8003B090BD06000E005C0D0000F052000091
S1131C9080B584B000AF786039600F4B5B68072271
S1131CA01340FB607B680D4A934202D80023FB601B
S1131CB005E07B680A4A934201D80123FB60064B86
S1131CC05B68072293431900034BFA680A435A607E
S1131CD0C046BD4604B080BD00000C400024F400A2
S1131CE00048E80180B582B000AF0D4BDA6BFB1DF4
S1131CF0511E8A411A700A4B0A4ADA63FEF75EFAE9
S1131D00030000211800FFF7C3FFFB1D1B78002B05
S1131D1002D0034B0022DA63C046BD4602B080BD48
S1131D2000000C40711B000090B585B000AF7860D6
S1131D3039600D4BDA6B0F243B19511E8A411A701E
S1131D40094B0A4ADA633A687B6811001800FFF706
S1131D509FFF3B191B78002B02D0034B0022DA6350
S1131D60C046BD4605B090BD00000C40711B00008C
S1131D7080B584B000AF78600023BB607B683F4AC5
S1131D8093420CD03E4A934209D03E4A934206D035
S1131D903D4A3E4B11001800FFF76DFE00E0C046BF
S1131DA07B68180000F08CFB0300FB607B68334AFF
S1131DB093420BD0324A93420FD0324A934213D10A
S1131DC0334B9B6A03221340FB6014E0304B9B6A45
S1131DD09B0803221340FB600DE02D4B9B6A1B09FB
S1131DE003221340FB6006E02A4A284B1100180026
S1131DF0FFF741FEC046FB68012B05D014D3022B2C
S1131E0007D0032B0AD02AE0FEF76AFA0300BB606E
S1131E102FE0FEF773FA0300BB602AE0FEF7B2F985
S1131E2003005B08BB6024E00023BB607B68154AA9
S1131E30934203D07B68114A934219D1144B9A6A96
S1131E407B6810498B4201D1102300E01423DA404F
S1131E50131E0DD0FEF74BFA0300BB6008E000230D
S1131E60BB600D4A094B11001800FFF704FE00E0A7
S1131E70C046BB681800BD4604B080BD0300200006
S1131E800400220002001E009A0F0000F05200001D
S1131E9000800C40C90F0000F40F000080B582B030
S1131EA000AF7860074B5B6D0122134006D1C0463A
S1131EB0044B1B6D7A681340FAD100E0C046BD465E
S1131EC002B080BD00800C4090B583B000AFFC1C14
S1131ED0164B180000F0F4FA03002370FB1C1B7867
S1131EE0032B0DD002DC022B05D017E0092B10D0F8
S1131EF00A2B0AD012E0FEF701FA03007B6010E01F
S1131F00FEF7EEF903007B600BE0094B1B687B6076
S1131F1007E0FEF75BF903007B6002E000237B60CF
S1131F20C0467B681800BD4603B090BD0733260049
S1131F302C00002080B500AFC046BD4680BD80B5F2
S1131F4000AFC046BD4680BD80B584B000AF7860A8
S1131F507B681B090F221340BB60BB680D2B67D83D
S1131F60BB689A00394BD3181B689F46384B1B68D3
S1131F709B0B072213400133FB6062E0344B9B68E8
S1131F800F221340FB60FB681800FFF7A9FD030054
S1131F90FB6056E02E4B5B680F221340FB60FB682E
S1131FA01800FFF79DFD0300FB604AE0284B5B68C7
S1131FB01B0A01221340FB60FB6801331800FFF782
S1131FC08FFD0300FB603CE07B68224A93420BD107
S1131FD01F4B9B6E0F221340FB60FB681800FFF73A
S1131FE07FFD0300FB6008E00123FB601A4A1B4BE2
S1131FF011001800FFF73FFDC04622E07B68184A35
S113200093420BD1124B1B6F03221340FB60FB68FE
S11320101800FFF765FD0300FB6008E00123FB6087
S1132020104A0E4B11001800FFF725FDC04608E0CA
S11320300123FB600C4A094B11001800FFF71BFD3C
S1132040C046FB681800BD4604B080BD5453000070
S113205000800C4080061200B8120000F05200000C
S113206090071A00D1120000D812000080B584B085
S113207000AF786039607B681B090F221340FB6056
S1132080FB680D2B00D9D3E0FB689A006E4BD31884
S11320901B689F463B68002B02D03B68082B05D980
S11320A06A4A6B4B11001800FFF7E5FCFFF71AFEB4
S11320B0684B1B68684A134019003B68013B9A034C
S11320C0644B0A431A60FEF75DF80300BB60BB680B
S11320D000211800FFF728FEB1E03B68002B04D074
S11320E03A6880239B009A4205D95C4A584B1100F8
S11320F01800FFF7C0FC3B681800FFF709FD030058
S11321003B60544B9B680F2293431900514B3A6830
S11321100A439A6093E03B681800FFF7F9FC030058
S1132120013B3B604B4B5B684D4A134019003B68D5
S11321301A02484B0A435A6081E03B68002B04D0E2
S11321403A6880239B009A4205D9464A404B1100C5
S11321501800FFF790FCFFF7C5FD3B681800FFF778
S1132160D7FC03003B603B4B5B680F229343190091
S1132170384B3A680A435A60FEF704F80300BB6020
S1132180BB6800211800FFF7CFFD58E07B68364A92
S113219093421DD13A6880231B029A4205D9334ADF
S11321A02B4B11001800FFF766FC0420FFF776FEA6
S11321B03B681800FFF7ACFC03003B60254B9B6EAB
S11321C00F2293431900234B3A680A439A6606E0A8
S11321D0274A1F4B11001800FFF74DFCC0462EE0A4
S11321E07B68244A93421BD13B68082B05D9224AB9
S11321F0174B11001800FFF73EFC4020FFF74EFE7E
S11322003B681800FFF784FC03003B60114B1B6F15
S11322100322934319000F4B3A680A431A6706E0F6
S1132220164A0B4B11001800FFF725FCC04606E0C8
S1132230134A074B11001800FFF71DFCC046C046A7
S1132240BD4604B080BDC0468C5300000513000099
S1132250F052000000800C40FF3FFEFF1813000006
S1132260FFFEFFFF2E130000800612004C13000037
S11322708713000090071A0090130000AD130000AC
S1132280B313000080B586B000AF78600A00FB1C71
S11322901A7000233B617B681B0A0F2213400A2B30
S11322A020D89A001E4BD3181B689F461D4B7B6198
S11322B01FE01D4B7B611CE01C4B7B6119E01C4B38
S11322C07B6101233B6114E01A4B7B6110233B616A
S11322D00FE0194B7B6180235B003B6109E0174BE6
S11322E07B6106E0164A174B11001800FFF7C3FB89
S11322F012E07B681B0B1F221340FB603B69002B21
S113230003D03B691800FFF7C9FDFB1C1A78F96874
S11323107B691800FFF7B5FBBD4606B080BDC0461B
S1132320C453000040800C4008800C4044800C40A2
S113233058800C4060800C4064800C4078800C40D5
S113234039140000F052000090B585B000AF7860F9
S11323507A68F8239B03134090225203934253D08C
S113236090225203934217D88022D202934232D051
S11323708022D202934206D8002B27D080229202D8
S1132380934235D083E0E0221203934261D080224D
S11323905203934262D07AE080229203934242D065
S11323A080229203934208D8D0225203934241D010
S11323B0F0225203934220D069E098229203934280
S11323C051D0F8229203934252D060E0FDF7FEFE12
S11323D00300FB6064E0FDF7F9FE0300FB60334B90
S11323E09B680F221340FA68DA401300FB6057E041
S11323F0FDF7C8FE0300FB6052E02D4B1800FFF709
S1132400B7FC0300FB604BE0294B1800FFF7B0FC5E
S11324100300FB60254B9B6E0F221340FA68DA40E1
S11324201300FB603CE0234B1800FFF7A1FC030002
S1132430FB6035E01F4B1800FFF79AFC0300FB60BC
S11324401A4B1B6F03221340FA68DA401300FB6037
S113245026E0FFF7EFFB0300FB6021E0FFF788FBBA
S11324600300FB601CE0FFF72FFD0300FB6017E097
S1132470FDF788FE04007B681800FFF765FD030084
S11324801900200001F0BAFB0300FB6008E0002300
S1132490FB60094A094B11001800FFF7ECFAC0462B
S11324A0FB681800BD4605B090BDC04600800C40D6
S11324B002001E000300200069150000F052000015
S11324C080B584B000AF78600F23FB1801221A7026
S11324D07B680F221340BB60BB68072B00D9CAE09E
S11324E0BB689A006D4BD3181B689F466C4BDB6A24
S11324F06C4A134080225201934216D0802252012A
S1132500934204D880221201934213D01CE080220B
S11325109201934204D08022D20493420FD013E05C
S11325200F23FB1802221A7013E00F23FB18032257
S11325301A700EE00F23FB1804221A7009E00F230F
S1132540FB180B221A7004E00F23FB1805221A70E3
S1132550C0469BE0524B9B6A03221340022B08D0D7
S1132560032B0BD0012B0ED10F23FB1803221A705F
S113257015E00F23FB1802221A7010E00F23FB183A
S113258006221A700BE0464B9A6A80235B021340C2
S113259004D00F23FB180C221A7000E0C04675E02B
S11325A03F4B9B6A0C221340082B08D00C2B0BD0FA
S11325B0042B0ED10F23FB1803221A7015E00F23EE
S11325C0FB1802221A7010E00F23FB1806221A705F
S11325D00BE0334B9A6A80235B03134004D00F2330
S11325E0FB180C221A7000E0C0464FE02C4B9B6A8B
S11325F030221340102B02D0202B05D009E00F23EA
S1132600FB1803221A7009E00F23FB1802221A7028
S113261004E00F23FB1801221A70C04636E00F2392
S1132620FB1807221A7031E01D4BDA6AE023DB0243
S1132630134080229202934212D08022D20293420B
S113264004D080225202934205D00EE00F23FB18DF
S11326500A221A700EE00F23FB1802221A7009E0F6
S11326600F23FB1803221A7004E00F23FB18012226
S11326701A70C0460AE00F23FB1800221A700A4A97
S11326800A4B11001800FFF7F6F9C0460F23FB1898
S11326901B781800BD4604B080BDC046F05300004E
S11326A000800C40003C000489190000F052000036
S11326B080B588B000AF78600A00FB1C1A70032351
S11326C0FB611B23FB1803221A7000233B617B6808
S11326D00F221340FB60FB68072B00D916E1FB684F
S11326E09A008F4BD3181B689F46FB1C1B780C2B3E
S11326F02ED89A008B4BD3181B689F460423FB618A
S11327001B23FB1800221A7029E00323FB611B23FF
S1132710FB1801221A7022E00223FB611B23FB1821
S113272002221A701BE00123FB611B23FB18032206
S11327301A7014E00523FB611B23FB1805221A7091
S11327400DE0794A794B11001800FFF794F9E4E0A1
S1132750774A764B11001800FFF78DF9DDE01B2353
S1132760FB181B7801220121180000F0F5F8FFF78F
S1132770B9FAFFF7DFFB6F4BFA695A62FDF702FD06
S11327800300BB60BB6800211800FFF7CDFAFFF718
S1132790D6FBC2E0FB1C1B780C2B25D89A00664B99
S11327A0D3181B689F4600237B6124E0012201218A
S11327B0002000F0D1F802237B611CE001220121FA
S11327C0012000F0C9F801237B6114E05B4B012276
S11327D002211800FFF755F903237B610BE0002366
S11327E07B6101233B6106E0554A504B1100180000
S11327F0FFF741F991E0FB68022B0CD14D4B9B6A2A
S1132800504A1A407B691A4311003B691A04494B28
S11328100A439A6281E0474B9B6A4B4A1A407B69A0
S11328209B001A4311003B691A05424B0A439A6202
S113283073E0FB1C1B78022B06D0032B0CD0012B5E
S113284012D100237B6116E001220121002000F057
S113285083F802237B610EE001220121012000F0B4
S11328607BF801237B6106E0384A304B11001800E5
S1132870FFF701F951E02F4B9B6A30229343190073
S11328807B691A012B4B0A439A6246E0FB1C1B78B6
S1132890032B13D00A2B21D0022B2FD1012201218B
S11328A0002000F059F8234B40225A62C046214BC5
S11328B0DA6A80235B021340F9D026E00122012169
S11328C0012000F049F81B4B60225A62C046194BA4
S11328D0DA6A80239B021340F9D016E00122012119
S11328E0052000F039F8134B80225A62C046114B80
S11328F0DA6A8023DB021340F9D006E0144A0B4B5A
S113290011001800FFF7B7F807E006E0114A074B7B
S113291011001800FFF7AFF8C046BD4608B080BDEF
S113292010540000305400004A1A0000F052000015
S11329304F1A000000800C406454000040800C409A
S1132940F81A0000FCFFFEFFF3FFEFFF291B000055
S1132950921B0000881C000090B587B000AF0400F3
S113296008001100FB1D221C1A70BB1D021C1A70EA
S11329707B1D0A1C1A70FB1D1B78052B32D89A008C
S1132980294BD3181B689F4601233B610223FB603C
S113299001237B612DE004233B610823FB600323B7
S11329A07B6126E010233B612023FB6005237B61D0
S11329B01FE040233B618023FB6007237B6118E019
S11329C080235B003B6180239B00FB6009237B61C8
S11329D00FE08023DB003B6180231B01FB60162397
S11329E07B6106E0114A124B11001800FFF743F80F
S11329F017E0BB1D1B78002B10D00E4B3A691A62EE
S1132A007B1D1B78002B0CD0C0467B690A4A190039
S1132A101000FFF754F8031EF7D002E0054BFA68E4
S1132A201A62BD4607B090BD985400008E20000085
S1132A30F052000000800C402C800C4080B582B025
S1132A4000AFEFF310833B603B687B6072B67B683A
S1132A501800BD4602B080BD80B582B000AF78607A
S1132A607B68002B00D162B6C046BD4602B080BD73
S1132A7080B582B000AFEFF310833B603B687B60AE
S1132A8072B67B681800BD4602B080BD80B582B0C6
S1132A9000AF78607B68002B00D162B6C046BD46AB
S1132AA002B080BD80B582B000AF0200FB1D1A7079
S1132AB0FB1D1B787F2B09D8FB1D1B781A001F23D5
S1132AC01A40044B012191400A001A60C046BD46D9
S1132AD002B080BD00E100E080B582B000AF02002A
S1132AE0FB1D1A70FB1D1B787F2B0ED8FB1D1B785A
S1132AF01A001F231340074901229A401300802221
S1132B008B50BFF34F8FBFF36F8FC046BD4602B0EB
S1132B1080BDC04600E100E080B582B000AF020095
S1132B20FB1D1A70FB1D1B787F2B0AD8FB1D1B781D
S1132B301A001F231340054901229A40C0235B0059
S1132B40CA50C046BD4602B080BDC04600E100E0A8
S1132B5080B586B000AFF860B9607A60FB681B6826
S1132B607B610122BB689A401300DB431A007B6936
S1132B701A407B6801211940BB6899400B001A4335
S1132B80FB681A60C046BD4606B080BD90B589B0EA
S1132B9000AF78600C0010001900FB1C221C1A7096
S1132BA0BB1C021C1A707B1C0A1C1A707B681A015D
S1132BB03D4B9B68D318BB61BB1C1B78002B02D018
S1132BC0BB69FB6105E07B681A01374BDB68D318EE
S1132BD0FB61BB69DB687B617B69002B03D0BB1C99
S1132BE01A787B691A727B6B002B14D0FB699B6883
S1132BF09B0E032213403B613B69032B03D1FB690A
S1132C007A6B1A6007E0BA6B3B699A407B6BD31806
S1132C101A00FB691A603B6B002B14D0FB699B689C
S1132C209B0F032213403B613B69032B03D1FB69D8
S1132C303A6B5A6007E0BA6B3B699A403B6BD31816
S1132C401A00FB695A6001227B689A401300FB60FA
S1132C507B1C1B78002B03D0134BFA689A6102E0AB
S1132C60114BFA68DA61BB1C1B78002B03D00E4BA6
S1132C70FA685A6302E00C4BFA681A63FB699B68B2
S1132C800A4A1340BB60BB6B1B01BA681343BB60A9
S1132C90FB1C1B78BA681343BB60FB69BA689A6073
S1132CA0C046BD4609B090BD00200C4008C0FFFFDF
S1132CB090B58BB000AF364A80235B01D358BB611B
S1132CC0334A344BD258BB691340BB61BB69002BF8
S1132CD007DA1823FF331A002F4B11001800FEF7F0
S1132CE0CAFE2B4B9B6B7B61BB697A6913403B62C9
S1132CF00023FB6145E000237B6237E03B6A01224D
S1132D0013402DD0224B9B683B6101227B6A9A4081
S1132D101300FB601E49214AFB688B507B6A1B0130
S1132D203A69D318DB68BB60BB68002B18D0BB685A
S1132D301B7A7B60BB681B7A01225340DAB2BB6802
S1132D401A72BB681B68002B0AD0BB681C68786ABF
S1132D507B685A1E9341D9B2BB685B681A00A047CE
S1132D603B6A5B083B627B6A01337B623B6A002BF4
S1132D70C4D17B69DA43BB6913403B62FB6901330D
S1132D80FB61FB69012BB6DDC046BD460BB090BDAF
S1132D9000200C400C100000B0540000081000008B
S1132DA080B58AB004AFF8607A603B600B23FB18EF
S1132DB00A1C1A70FB68052B06D9B8235A00174B56
S1132DC011001800FEF757FE3B6A154A934207D9D3
S1132DD07223FF331A00114B11001800FEF74BFE4B
S1132DE00B23FB181A78F8683B6A02933B6801933B
S1132DF07B68009300230221FFF7C8FE0122FB68D1
S1132E009A4013007B61074B7A699A62054B7A6991
S1132E105A61C046BD4606B080BDC046B0540000ED
S1132E20FF03000000200C4080B584B000AF786040
S1132E3039607B68052B05D9274A284B11001800F7
S1132E40FEF719FE3B68002B05D1254A234B1100E0
S1132E501800FEF710FE234B9B68FB603B689968E3
S1132E607B681B01FA68D3180A00DA603B681B7898
S1132E70002B05D001227B689A401A4B9A6304E028
S1132E8001227B689A40174BDA6316493B685A68FB
S1132E907B688820C000844663449B005A503B688A
S1132EA05B78002B0ED001227B689A4013000D4AF8
S1132EB019000D4BD1507B680C4801221900FFF713
S1132EC047FE05E07B68094800221900FFF740FE31
S1132ED0C046BD4604B080BD9E020000B054000050
S1132EE09F02000000200C40081000000C300C4031
S1132EF080B586B000AFF8607A600B23FB180A1C1B
S1132F001A70FB68052B06D9B9239A001E4B1100D1
S1132F101800FEF7B0FD7B68002B05D11B4A1A4B45
S1132F2011001800FEF7A7FD0B23FB181B78002BDC
S1132F3003D0174B9B687B6102E0154BDB687B6118
S1132F40FB681B017A69D3187B617B681B789A073D
S1132F507B689B781B071A437B685B789B061A4344
S1132F607B689B781B0613431A007B681B799B04C0
S1132F7013437A68D27892031A437B699A60C046F5
S1132F80BD4606B080BDC046B0540000E502000056
S1132F9000200C4080B582B000AF78607B68002BC5
S1132FA005D1194A194B11001800FEF764FD7B681E
S1132FB05B681A00FF23134005D0154A134B110018
S1132FC01800FEF758FD134B01211800FFF75AF9BA
S1132FD000F026F80020FFF79FFD0020FFF762FDB8
S1132FE00D490E4A80231B068B507B685A680A4B96
S1132FF09A607B681B785A01074B01210A435A6087
S1133000C046BD4602B080BDDF030000B0540000DE
S1133010E50300000013020000200C400C10000027
S113302080B582B000AF0020FFF756FD194B002297
S11330305A60184B3F22DA61164B3F225A62154BF5
S11330403F22DA62134B3F225A63124B3F22DA6368
S1133050104B0122DA640F4A0F4B0021D1500D4A64
S11330600E4B0F49D15000237B600BE0094A7B686B
S11330708821C9008C4663449B00002199507B68D9
S113308001337B607B68052BF0DDC046BD4602B092
S113309080BDC04600200C400C1000000810000049
S11330A03F00008080B500AFFDF76CF8C046BD4618
S11330B080BD000080B500AF034A84230021D150B5
S11330C0C046BD4680BDC04600800C4080B500AF00
S11330D0034A84230349D150C046BD4680BDC0463F
S11330E000800C400E58000080B584B000AF020090
S11330F0FB1D1A70FB1D1B78002B0BD1304BDA6AB9
S1133100304B1A601120FFF7DBF903001A002E4B35
S11331101A7050E02A4A8423D35801221340FB60DA
S1133120FFF7D4FF0023BB60264B1B68012213402A
S1133130BA681343BB60234B1B6810221340BA6860
S11331401343BB601F4B1B6840221340BA681343F0
S1133150BB601C4B1B6804221340BA681343BB605A
S1133160184B1A6880235B001340BA681343BB6092
S1133170144B1B68DA0A8023DB001340BA6813433C
S1133180BB600F4BBA681A620F4B1B78052B05D036
S11331900D4B1B7819001120FFF78AFA094B1B68A5
S11331A00122134002D1064B02221A62FB68002B53
S11331B001D0FFF77FFFC046BD4604B080BDC046C6
S11331C000800C40380400203C04002080B500AF8F
S11331D001231800BD4680BD80B500AFC046BD4682
S11331E080BD80B500AFC046BD4680BDB0B586B0D9
S11331F000AF0200FB1D1A70FB1D1B78002B02D0D0
S11332000020FFF771FF244B1A69234B04210A4362
S11332101A6117257C19FFF7D9FF030023707B1966
S11332201B78002B0BD01D4B1B681D4A1A4008202D
S11332303B181A6019493B181B6880228B50FFF712
S1133240CBFFFFF7FBFB03003B6101F0EDFD3B69A6
S11332501800FFF701FCFFF7C4FF1723FB181B78C6
S1133260002B04D00D4A0823FB181B681360FB1DB8
S11332701B78002B02D00120FFF736FFFB1D1B78C3
S113328001225340DBB2002B01D0FFF70BFFC046F5
S1133290BD4606B0B0BDC04600ED00E000E100E070
S11332A094A3F7FF80B582B000AF02003960FB1D24
S11332B01A70FB1D1B78002B21D0FB1D1B78012BE2
S11332C01AD0FB1D1B78022B14D0FB1D1B78032B7B
S11332D00ED0FB1D1B78042B07D0FB1D1B78052B80
S11332E001D13F230CE000230AE0F0239B0107E017
S11332F0F02305E0114B03E0D323DB0100E0104B86
S11333003A6813410122134006D1F7239A000D4B6A
S113331011001800FEF7AFFB01223B689A40100031
S11333200949FB1D1A781300DB009B189B00CB187E
S113333014331860C046BD4602B080BD1FEF0000C4
S113334007070000C45400000060004080B582B04C
S113335000AF02003960FB1D1A70FB1D1B78002BA7
S113336021D0FB1D1B78012B1AD0FB1D1B78022BCF
S113337014D0FB1D1B78032B0ED0FB1D1B78042BD4
S113338007D0FB1D1B78052B01D13F230CE0002344
S11333900AE0F0239B0107E0F02305E0114B03E072
S11333A0D323DB0100E0104B3A68134101221340A0
S11333B005D10E4A0E4B11001800FEF75CFB0122EA
S11333C03B689A4010000B49FB1D1A781300DB0080
S11333D09B189B00CB1810331860C046BD4602B042
S11333E080BDC0461FEF0000070700000B0400006B
S11333F0C45400000060004090B585B000AFB960CF
S113340011007B600F243B19021C1A700E23FB1859
S11334100A1C1A703B191B78002B26D00F23FB18AB
S11334201B78012B1ED00F23FB181B78022B17D0FF
S11334300F23FB181B78032B10D00F23FB181B78CA
S1133440042B08D00F23FB181B78052B01D13F2335
S11334500CE000230AE0F0239B0107E0F02305E0E1
S11334604E4B03E0D323DB0100E04D4BBA6813411C
S11334700122134007D11C23FF331A00494B1100CA
S11334801800FEF7F8FA0E23FB181B78002B13D054
S11334907B68002B08D0BA680F23FB181B78110037
S11334A01800FFF753FF07E0BA680F23FB181B78D7
S11334B011001800FFF7F6FEBB68072B25D83A4920
S11334C00F243B191A781300DB009B189B00CB18C0
S11334D004331B68BA6892000F2191400A00D2435A
S11334E013400E22BA181178BA68920091400A006B
S11334F011002D483A19127819431300DB009B1868
S11335009B00C318043319602AE027490F243B1990
S11335101A781300DB009B189B00CB1808331B6838
S1133520BA6822498C46624492000F2191400A00F5
S1133530D24313400E22BA181178BA681B48844645
S11335406244920091400A00110017483A19127817
S113355019431300DB009B189B00C3180833196040
S11335600E23FB181B78002B13D17B68002B08D08B
S1133570BA680F23FB181B7811001800FFF7E6FE4A
S113358007E0BA680F23FB181B7811001800FFF737
S113359089FEC046BD4605B090BDC0461FEF000081
S11335A0070700002855000000600040F8FFFF3FB7
S11335B080B584B000AFF860B9607A60BA687B689F
S11335C01A43FB680021180000F004F8C046BD4609
S11335D004B080BD80B586B000AFF8607A600B207F
S11335E03B180A1C1A707B68174A13407B613B180E
S11335F01B78002B13D1FB68052B06D9CC235A006A
S1133600124B11001800FEF736FA11497B6980222B
S113361052051A43FB6804339B005A500FE0FB68C1
S1133620052B06D9CF235A00084B11001800FEF7CA
S113363022FA0749FB6804339B007A695A50C04652
S1133640BD4606B080BDC04607003F008C55000053
S113365000C00C4080B586B000AFF860B9607A60F5
S1133660FB681B687B610122BB689A401300DB4343
S11336701A007B691A407B6801211940BB68994094
S11336800B001A43FB681A60C046BD4606B080BDF5
S113369080B584B000AF786039607B68012B04D9B1
S11336A00F4BA9211800FEF7E6F93B681B0E1B0619
S11336B004D00B4BAE211800FEF7DDF97B68002B1C
S11336C002D0012B03D008E0064BFB6002E0064B5E
S11336D0FB60C046FB683A681A60BD4604B080BD12
S11336E0F0550000080008400C00084080B582B086
S11336F000AF0200FB1D1A70FB1D1B7804481A0062
S11337000021FFF7A7FFC046BD4602B080BDC046FA
S11337100000084080B582B000AF0200FB1D1A70A3
S1133720FB1D1B78002B03D0054B01221A6202E01B
S1133730034B00221A62C046BD4602B080BDC0469B
S11337400000084080B584B000AF78607B681B78C7
S1133750002B02D00123FB6001E00023FB607B68A7
S11337605B78002B03D0FB6802221343FB607B6869
S11337709B78002B03D0FB6804221343FB60034BAC
S1133780FA681A60C046BD4604B080BD0000084017
S113379080B500AF0020FFF7A9FF0120FFF7A6FFC7
S11337A0C046BD4680BD80B582B000AF78600A00D7
S11337B0FB1C1A70FB1C1B7810221343DBB21A008B
S11337C07B689A65C046BD4602B080BD80B586B0B0
S11337D000AFF860B9607A607B68002B05D1164AA7
S11337E0164B11001800FEF746F9BB68002B05D1F3
S11337F0134B1800FEF7A8FD0300BB60BB685A1EFC
S11338007B685B001900100000F0F8F903007B618D
S11338107B691B027B617B690A4A134005D00A4A13
S1133820064B11001800FEF726F9FB687A695A6105
S1133830C046BD4606B080BD6E020000545600006E
S1133840408104000700E0FF8B02000080B582B0D5
S113385000AF786039607B68344A93420AD07B6851
S1133860334A934206D0CD239A00324B11001800FC
S1133870FEF701F97B68180000F05EF87B681A68AF
S11338803B681B8A01210B439BB219003B689B7B5D
S1133890002B02D08023DB0000E000230B431A43FB
S11338A07B681A607B681A683B681B7D002B02D01A
S11338B080239B0500E000231A437B681A603B6861
S11338C09B7C002B06D03B68DA7C7B6811001800D7
S11338D0FFF769FF3B681B7B1A0080235B011A43D7
S11338E07B685A603B6859683B689A687B68180033
S11338F0FFF76CFF3B685B7B002B02D07B681022D8
S1133900DA603B685B7D002B06D07B681B688022F5
S113391052021A437B681A603B681B781A007B6862
S1133920DA60C046BD4602B080BDC04600C000405B
S113393000C400405456000080B582B000AF7860E7
S11339407B68214A934209D07B68204A934205D080
S11339501F4A204B11001800FEF78DF87B681E4AA1
S1133960DA607B6800221A607B681C4A5A607B68B4
S113397000229A607B6800225A617B680022DA6424
S11339807B68174A9A647B6800225A657B680E4AF2
S1133990934203D07B680D4A934202D17B68002294
S11339A01A657B6800229A657B68074A934203D0B4
S11339B07B68064A934202D17B680022DA65C046DE
S11339C0BD4602B080BDC04600C0004000C40040F7
S11339D00604000054560000AA0E00000510000062
S11339E0F91F000080B582B000AF78600A00FB1CAC
S11339F01A70C0467B681B6940221340FAD0FB1C36
S1133A001A787B685A63C046BD4602B080BD80B553
S1133A1082B000AF78600A00BB1C1A80C0467B6885
S1133A201B6940221340FAD0BB1C1A887B68DA63F6
S1133A30C046BD4602B080BD80B500AF034BDB6C11
S1133A401B0EDBB21800BD4680BDC046B081E00F3E
S1133A5090B583B000AF0C4B01221A64FC1DFFF734
S1133A60EBFF03002370FB1D1B78812B08D8074B49
S1133A70074A1A60074B1A68064B07490A401A603E
S1133A80C046BD4603B090BD00000C4018600C4019
S1133A9005000004E4800C40FFFFFFFE80B500AF8A
S1133AA0044B1A69034B04218A431A6130BFC04690
S1133AB0BD4680BD00ED00E080B584B000AFF86085
S1133AC07A600B23FB180A1C1A70084B00221A7028
S1133AD0074B180000F0A8F9064A074B110018001C
S1133AE000F0A2F9C046BD4604B080BDC006002067
S1133AF0C45600006C040020CC56000080B59AB077
S1133B0002AF18203B18214A1A603B1800225A6061
S1133B100C217B1800221A707B1801225A707B1822
S1133B2000225A607B183A189A607B18190000200A
S1133B30FFF77AF93B1D00221A703B1D00225A70D0
S1133B403B1D00229A703B1D0022DA703B1D0022AF
S1133B501A713B1D1A0001210020FFF7C9F90C4B13
S1133B6001221A700B490C4A072300930B00012110
S1133B700020FFF715F901E0FFF790FF044B1B78D5
S1133B80002BF9D1C046BD4618B080BDB93A00003B
S1133B90C0060020BC5600006C04002080B582B032
S1133BA000AFFFF755FFFCF7B3FB114B19000020E2
S1133BB0FCF7D8FB031E00D0FEE7FDF787F8031ED1
S1133BC000D0FEE70B4B01211800FEF75BFB3B0026
S1133BD000221A703B00084A5A603B001800FFF7A5
S1133BE0D9F9FFF78BFF0120FFF700FBFBE7C04685
S1133BF040040020001302000006002000224308B5
S1133C008B4274D303098B425FD3030A8B4244D3A0
S1133C10030B8B4228D3030C8B420DD3FF220902E2
S1133C2012BA030C8B4202D31212090265D0030BA1
S1133C308B4219D300E0090AC30B8B4201D3CB0397
S1133C40C01A5241830B8B4201D38B03C01A5241D9
S1133C50430B8B4201D34B03C01A5241030B8B42DB
S1133C6001D30B03C01A5241C30A8B4201D3CB02C6
S1133C70C01A5241830A8B4201D38B02C01A5241AB
S1133C80430A8B4201D34B02C01A5241030A8B42AE
S1133C9001D30B02C01A5241CDD2C3098B4201D3C6
S1133CA0CB01C01A524183098B4201D38B01C01A44
S1133CB0524143098B4201D34B01C01A52410309BB
S1133CC08B4201D30B01C01A5241C3088B4201D36A
S1133CD0CB00C01A524183088B4201D38B00C01A17
S1133CE0524143088B4201D34B00C01A5241411A3E
S1133CF000D20146524110467047FFE701B500204B
S1133D0000F006F802BDC0460029F7D076E77047F8
S1133D107047C0461C2101231B04984201D3000CA8
S1133D2010391B0A984201D3000A08391B0998422A
S1133D3001D30009043902A2105C40187047C04640
S1133D400403020201010101000000000000000060
S1133D50084B10B50400002B02D0002100E000BF86
S1133D60054B1868836A002B00D098472000FCF7A5
S1133D7020FFC04600000000D056000070B50026A9
S1133D800C4D0D4C641BA410A64209D1002601F071
S1133D903DF80A4D0A4C641BA410A64205D170BD1F
S1133DA0B300EB5898470136EEE7B300EB58984759
S1133DB00136F2E710020020100200201002002059
S1133DC014020020044B1B681B6A002B00D1034B18
S1133DD0EC3318687047C04630000020940000207F
S1133DE082B0002900D101A9101E06D0002B06D0F4
S1133DF013780B601078431E984102B0704702207C
S1133E004042FAE7002310B59A4200D110BDCC5CC1
S1133E10C4540133F8E703001218934200D17047E9
S1133E2019700133F9E700000FB40B4B13B51C688C
S1133E30002C05D0A369002B02D1200000F0D6F994
S1133E4005AB049AA1682000019300F0A9FB16BCFD
S1133E5008BC04B01847C04630000020F0B51D006F
S1133E604F4B85B01E6804000F000092002E05D051
S1133E70B369002B02D1300000F0B8F9494B9C42E1
S1133E8050D17468009B022B05D0012B00D984E02B
S1133E90002D00DA81E02100300000F039F9616B77
S1133EA0002908D023004433994202D0300000F0A6
S1133EB0A7FA002363630023A3616360A3891B063D
S1133EC003D52169300000F09BFAA389364A1340D8
S1133ED0A381009B022B5AD003AB02AA210030001D
S1133EE000F018FAA3891843A081002D24D1029D63
S1133EF0280000F07BFA0195071E42D1029B019332
S1133F00AB4239D1012040420223A2891343A38149
S1133F100023A360230047332360236101236361EB
S1133F2005B0F0BD214B9C4201D1B468AAE7204BF7
S1133F309C42A7D1F468A5E7002FD9D0B369002B20
S1133F4002D1300000F052F9009B012B03D1A38968
S1133F50009A1A43A2810820A3892760276165611A
S1133F60184018D0012018400023984211D06D4207
S1133F70A360A5611800D3E7019800F037FA071E83
S1133F80C0D08023A289019D1343A381D6E70020DA
S1133F90BAE7A560C4E7A060C2E701204042BFE7DA
S1133FA030000020005800005CF3FFFF20580000A0
S1133FB0E05700000023C25C0133002AFBD1581EE5
S1133FC07047002330B59A420AD0013AC45CCD5CF4
S1133FD0AC4204D1934202D00133002CF6D1631BCE
S1133FE0180030BD0B1E04D0FF2A04D98A230360B5
S1133FF08B3B180070470A700123FAE7F7B58A89EA
S113400005000C00130760D44B68002B04DC0B6C18
S1134010002B01DC0020FEBDE76A002FFAD000234C
S11340202E682B6080235B01216A1A4034D0606DB6
S1134030A3895B0706D56368C01A636B002B01D0A4
S1134040236CC01A0200216A00232800E76AB847DB
S1134050A189431C06D12B681D2B30D82B4ADA408A
S1134060D3072CD50023636023692360CB0405D5D3
S1134070431C02D12B68002B00D16065616B2E605C
S11340800029C7D023004433994202D0280000F00D
S1134090B7F900206063BEE701232800B847431C3A
S11340A0C6D12B68002BC3D01D2B01D0162B01D1F8
S11340B02E60AFE74023A2891343A381ABE74023DB
S11340C00B430120A3814042A5E70F69002FA1D033
S11340D00B680F60DB1B01930023920700D14B692F
S11340E0A360019B002B00DC94E7019B3A00216A4A
S11340F02800A66AB047002803DC4023A2891343A2
S1134100DFE7019B3F181B1A0193EAE701004020F7
S11341100B6970B505000C00002B01D1002070BDA7
S1134120002804D08369002B01D100F05FF80B4B09
S11341309C4209D16C680C22A35E002BEED02100B6
S11341402800FFF75BFFEAE7054B9C4201D1AC680E
S1134150F1E7044B9C42EED1EC68ECE70058000018
S113416020580000E0570000002310B5040003604D
S11341704360836081814366C281036143618361DB
S1134180190008225C30FFF746FE054B2462636287
S1134190044BA362044BE362044B236310BDC0468B
S11341A0DD4A0000054B00003D4B0000694B000058
S11341B010B5024900F08CF810BDC0461141000052
S11341C070B568254A1E55430E002900743100F06D
S11341D061F9041E08D000212A00016046600C30F9
S11341E0A0606832FFF717FE200070BD836913B525
S11341F00400002B28D18364C3640365134B144A61
S11342001B6882620193984201D1012383612000DB
S113421000F020F86060200000F01CF8A06020008E
S113422000F018F80022E06004216068FFF79CFFAA
S113423001220921A068FFF797FF02221221E068FA
S1134240FFF792FF0123A36113BDC046D0560000BF
S1134250B1410000F8B51C4B07001E68B369002B80
S113426002D13000FFF7C2FF4836B4687368013BDF
S113427004D53368002B07D03668F6E70C22A55E18
S1134280002D0DD06834F2E704213800FFF798FFC1
S113429030600028F0D10C2304003B602000F8BDFE
S11342A020000A4B656625606560A560E3602561B2
S11342B06561A561082229005C30FFF7ACFD6563E8
S11342C0A563A564E564E9E7D05600000100FFFF9B
S11342D0F7B504000700002601914834002C01D1F1
S11342E03000FEBD6368A5680093009B013B00930A
S11342F001D52468F2E7AB89012B08D90E22AB5E05
S1134300013304D029003800019B984706436835DF
S1134310EBE7000070B50E001D000E23C95E96B0D9
S11343201400002907DA00232B60B3891B0611D47B
S11343308023DB000FE06A4600F00EFD0028F2DB6C
S1134340F022019B12021340054A9B185A42534122
S11343502B60EDE740230020236016B070BDC046FB
S113436000E0FFFFF7B502268B8905000C003342FD
S113437006D0230047332360236101236361F7BD23
S113438001AB6A46FFF7C6FF00990700280000F05A
S113439081F8002808D10C22A35E9A05EFD40322E9
S11343A093431E43A681E4E70F4BAB628023A289AB
S11343B020601343A381009B20616361019B002B58
S11343C00DD00E23E15E280000F0D8FC002806D0B2
S11343D00322A38993431A0001231343A381A089D1
S11343E03843A081CBE7C046B141000010B5034B70
S11343F00100186800F04EF810BDC04630000020DF
S113440070B50500002910D00C1F2368002B00DABA
S1134410E418280000F0E3FC1D4A1368002B05D1C2
S113442063601460280000F0DBFC70BDA34209D96E
S1134430216860188342F3D118685B6841182160D1
S1134440EEE713005A68002A01D0A242F9D919688C
S11344505818A0420BD120680918581819608242D4
S1134460E0D110685268411819605A60DAE7A04236
S113447002D90C232B60D5E721686018824203D14E
S1134480106852684118216062605C60CAE7C046E7
S113449078040020032370B5CD1C9D430835060025
S11344A00C2D1ED20C25A9421DD8300000F097FC1B
S11344B0254A14682100002919D1244C2368002BB3
S11344C003D1300000F0F8FA20602900300000F039
S11344D0F3FA431C2BD10C233000336000F080FC32
S11344E003E0002DDFDA0C233360002070BD0B687D
S11344F05B1B19D40B2B03D90B60CC18256003E08C
S11345004B688C420DD11360300000F069FC200030
S113451007220B30231D9043C31AE7D05A42E250BE
S1134520E4E763600C00EFE70C004968C3E703238A
S1134530C41C9C43A042E1D0211A300000F0BCFA14
S1134540431CDBD1C7E7C046780400207C0400206C
S1134550936810B5013B9360002B04DA9469A3427D
S113456007DB0A2905D01368581C1060197008006D
S113457010BD00F0FFFA0100F9E7F8B506000F00DE
S11345801400D518AC4201D1002007E021783A008C
S11345903000FFF7DDFF0134431CF3D1F8BD000008
S11345A0F0B59FB002900F0016000593002805D0C7
S11345B083690493002B01D1FFF718FE7B4B9F42C4
S11345C05BD1029B5F68BB891B0762D53B69002BEB
S11345D05FD0002306AC6361203363761033A37687
S11345E035002B78002B01D0252B5CD1AB1B049319
S11345F00CD0320039000298FFF7BFFF431C00D1F2
S1134600C4E06269049B9446634463612B78002B85
S113461000D1BBE0012200235242626002A954325D
S113462052186E1C2360E360A3601370A365317895
S113463005225F4800F0C8FB751C002835D12268AC
S1134640D30604D5532302A95B182021197013073C
S113465004D5532302A95B182B21197033782A2B14
S11346602CD0350000210A20E3682A786E1C303AE9
S1134670092A64D900292ED026E04E4B9F4202D14C
S1134680029B9F689FE74C4B9F429CD1029BDF6833
S113469099E73900029800F0D7FA002899D0012050
S11346A040421FB0F0BD01359BE7414B2268C01A60
S11346B001238340134323602E00B8E7059B191D93
S11346C01B680591002B01DB099304E05B42E36066
S11346D00223134323602B782E2B0AD16B782A2BC9
S11346E035D1059B02351A1D1B680592002B2BDB67
S11346F00793324E29780322300000F065FB00282E
S113470006D04023801B8340226801351343236075
S1134710297806222A486E1C217600F055FB0028D1
S11347203AD0284B002B25D10722059B073393430E
S1134730083305936369039A9B18636150E7434305
S113474001219B18350090E701235B42D0E7002349
S11347500A201A000135636029786E1C3039092952
S113476003D9002BC5D00792C3E742430123521853
S11347703500F1E705AB00933A00134B2100029892
S113478000E000BF0390039B0133D3D1BB895B06D8
S113479000D584E70B9884E705AB00933A000A4BF5
S11347A02100029800F080F8ECE7C04600580000B1
S11347B04058000020580000E05700004658000010
S11347C04A580000000000007B450000F7B51500C2
S11347D001938A680B6900900C00934200DA13007D
S11347E022002B6043321278002A01D001332B605F
S11347F023689B0602D52B6802332B6006272368A7
S11348001F4027D0230043331B785A1E934122684C
S1134810920630D42200019943320098089EB04792
S1134820431C25D0062320682A68E168034000253C
S1134830042B03D18D1AEB43DB171D40A3682269B7
S1134840934201DD9B1AED180027BD4220D10020C0
S113485010E00137E3682A689B1ABB42D2DD2200CC
S11348600123193201990098089EB047431CF0D1E6
S113487001204042FEBD3020E11843310870210080
S11348805A1C45310978A218433202331170C1E72A
S1134890220001231A3201990098089EB047431C54
S11348A0E6D00137D1E70000F0B589B004920A00E0
S11348B043320593039002920A7E0C000E9B6E2AEB
S11348C000D186E01FD8632A33D008D8002A00D14B
S11348D08CE0582A4DD0250042352A7030E0642AF5
S11348E001D0692AF7D1196825680A1D280629D537
S11348F008681A60002803DA2D23029A40421370D4
S11349006B4E0A274FE0732A74D008D86F2A1FD041
S1134910702AE0D1202209680A43226003E0752A44
S113492016D0782AD7D12200782145321170614EF1
S113493022E025001A684235111D196013682B7096
S1134940012365E008681A606906D3D500B2D1E78F
S113495019682568081D186008682E0605D5544E88
S113496008276F2A1BD00A2719E06D06F7D580B2F5
S1134970F5E745314E4E0A7018682268011D00683B
S11349801960150621D5D30702D520231A432260C6
S11349901027002803D1202322689A432260230091
S11349A0002243331A706368A360002B58DB04228F
S11349B0216891432160002854D1029D002B5AD0D4
S11349C02500337842352B7055E05506DBD580B28F
S11349D0D9E71A680D68101D4969186013682E0616
S11349E001D5196002E06D06FBD519800023029DF4
S11349F023614FE01A68111D19601568002162686F
S1134A00280000F0E1F9002801D0401B60606368D1
S1134A1023610023029A13703CE023692A0004995D
S1134A200398059DA847431C3ED023689B0715D4D3
S1134A30079BE068984239DA180037E02200012326
S1134A40193204990398059EB047431C2CD00135B4
S1134A50E368079A9B1AAB42F0DCE9E70025F7E725
S1134A600028ADD0029D3900FFF74EF9735C013D7B
S1134A702B700028F7D1082F09D12368DB0706D54E
S1134A8063682269934202DC3023013D2B70029B50
S1134A905B1B2361059B07AA00932100049B0398D9
S1134AA0FFF794FE431CB8D10120404209B0F0BD89
S1134AB05158000062580000002370B5064C0500F0
S1134AC008002360FCF7C8F8431C03D12368002BBB
S1134AD000D02B6070BDC046C406002070B50C0029
S1134AE00E25495F00F07EF9002803DB636D1B1877
S1134AF0636570BDA389024A1340A381F9E7C046E8
S1134B00FFEFFFFFF8B51F008B8905000C001600AE
S1134B10DB0505D50E23C95E0022022300F040F90F
S1134B20A389054A28001340A38132000E23E15EC5
S1134B303B0000F075F8F8BDFFEFFFFF70B50C0007
S1134B400E25495F00F02CF9A389421C03D1054AC4
S1134B501340A38170BD802252011343A381606579
S1134B60F8E7C046FFEFFFFF10B50E23C95E00F063
S1134B70E1F810BDF8B505000E001400002804D0BB
S1134B808369002B01D1FFF731FB224B9C422DD1CD
S1134B906C68A369A360A3891B0731D52369002B23
S1134BA02ED023682269F7B2981A6369F6B2834259
S1134BB005DC21002800FFF7ABFA002826D1A36802
S1134BC00130013BA36023685A1C22601F70636993
S1134BD0834204D0A389DB071AD50A2E18D12100F9
S1134BE02800FFF795FA002812D00FE00A4B9C42E8
S1134BF001D1AC68CDE7094B9C42CAD1EC68C8E747
S1134C002100280000F020F80028CAD001267642AE
S1134C103000F8BD0058000020580000E0570000A4
S1134C2070B50500080011000022064C22601A002D
S1134C30FCF730F8431C03D12368002B00D02B6011
S1134C4070BDC046C4060020364B70B51D68060012
S1134C500C00002D05D0AB69002B02D12800FFF712
S1134C60C5FA314B9C420FD16C680C23E25E93B2BF
S1134C7019072DD4D90611D4092301203360373301
S1134C801343A381404270BD284B9C4201D1AC68C0
S1134C90EBE7274B9C42E8D1EC68E6E75B0713D5CA
S1134CA0616B002908D023004433994202D03000BC
S1134CB0FFF7A6FB002363632422A3899343A38104
S1134CC000236360236923600823A2891343A3811B
S1134CD02369002B0BD1A0218022A3898900920093
S1134CE00B40934203D021003000FFF73BFB01232C
S1134CF0A289134011D00023A36063695B42A361BE
S1134D00002023698342BED10C23E25E1306BAD588
S1134D1040231343A3810138B5E7920700D46369A4
S1134D20A360EDE730000020005800002058000088
S1134D30E0570000002370B5064C0500080023600E
S1134D40FBF72EFF431C03D12368002B00D02B60FC
S1134D5070BDC046C4060020002370B5064C050093
S1134D60080011002360FBF729FF431C03D12368CB
S1134D70002B00D02B6070BDC4060020002370B54A
S1134D80064C050008002360FBF726FF431C03D1F3
S1134D902368002B00D02B6070BDC046C4060020E1
S1134DA070B50500080011000022064C22601A00AC
S1134DB0FBF71BFF431C03D12368002B00D02B609F
S1134DC070BDC046C4060020C9B28218904201D109
S1134DD00020704703788B42FBD00130F6E7704720
S1134DE07047000070B50500080011000022064C51
S1134DF022601A00FBF704FF431C03D12368002B35
S1134E0000D02B6070BDC046C4060020F8B5C04673
S1134E10F8BC08BC9E467047F8B5C046F8BC08BC50
S1134E209E4670470000000001B40248844601BC5D
S1134E30604700BF010200205368617270204C5328
S1134E4030313342374448303320233100000000EE
S1134E50633A5C73696C69636F6E6C6162735C73F3
S1134E60696D706C696369747973747564696F5C76
S1134E7076345C646576656C6F7065725C73646BC4
S1134E80735C6765636B6F5F73646B5F7375697481
S1134E90655C76322E375C706C6174666F726D5C23
S1134EA0656D6C69625C696E635C656D5F67706992
S1134EB06F2E6800050000000000000040420F0053
S1134EC005010000000000000000000001000100D6
S1134ED000186C6C10CE3808600C00000000000054
S1134EE07C307C7CC6FE7CFE7C7C000070001C7CDC
S1134EF07C7C7E7C7EFEFE7CC63C78C606C6C67C78
S1134F007E7C7E7C7EC6C6C6C6C6FE7C007C100047
S1134F100C00060060003800060000060C000000CB
S1134F2000000000000000000000003018188C0091
S1134F300000000000186CFEFC6A2C1830186C1875
S1134F40000000C0C638C6C6C606C6C0C6C6181805
S1134F50387C38C6C6C6C6C6C60606C6C618306677
S1134F6006EECEC6C6C6C6C618C6C6C6C6C6C00CDB
S1134F70066038000C00060060000C0006183006BD
S1134F800C000000000000001800000000000018E1
S1134F901830D60000000000001848FE162E2C1809
S1134FA01830381800000060C63060C0C6060660BD
S1134FB0C6C618181C7C70C6F6C6C606C606060603
S1134FC0C618303606FEDEC6C6C6C60618C6C6C62F
S1134FD06CC6600C0C606C00043C3E3C7C3C3C3C6D
S1134FE03E0000660C6E3E3C3E3C363C186666C68F
S1134FF066667E1818306200000000000018006C1D
S11350007C10DC001830FE7E1C7E0030C630307010
S1135010FE7E7E307CFC00000E00E070F6FE7E0614
S1135020C61E1EF6FE18301E06D6F6C67EC67E7C4A
S113503018C6C6D638FC300C1860C6000060660678
S113504066660C66661830360CD6666666666E064C
S11350507C6666C63C66300C006000000000000000
S1135060000000FED0E866001830387E1C7E1C1854
S1135070C63018C0C0C0C618C6C018181C7C703012
S113508076C6C606C60606C6C618303606C6E6C6C0
S113509006B6C6C018C6C6FE6CC0180C3060000048
S11350A0007C6606667E0C7C6618301E0CD666662E
S11350B03E56063C186666D6187C18181830000050
S11350C000000000001800FE7EAC660030186C186A
S11350D018001C0CC6300CC6C0C6C60CC6C61818B0
S11350E0387C380006C6C6C6C60606C6C618366666
S11350F006C6C6C60666C6C618C66CEEC6C00C0C86
S1135100606000FE0066660666060C606618363649
S11351100CC666660626066018663CD63C600C180B
S113512018300000000000000018006C10E6DC00DD
S1135130600C00180C001C067C78FE7CC07C7C068D
S11351407C7C000C70001C307CC67E7C7EFE06FCE1
S1135150C63C1CC6FEC6C67C06DCC67C187C38C6AB
S1135160C67EFE7CC07C00FE007C3E3C7C3C0C3E4B
S113517066701C6638C6663C065C063E707C18FC8D
S1135180663E7E3018180000000000000000000099
S1135190000000000000000000000000000000000B
S11351A000000000000000000000000000000000FB
S11351B000000000000000000000000000000000EB
S11351C000000000000000000000000000000000DB
S11351D000000000000000000000000000000000CB
S11351E000000000000000000000000000000000BB
S11351F0C2110000C2110000D0110000E41100002F
S1135200FE110000181200001B5B48001B48000040
S11352101B4100001B4200001B4300001B44000014
S113522001000100633A5C73696C69636F6E6C61C1
S113523062735C73696D706C696369747973747596
S113524064696F5C76345C646576656C6F706572F6
S11352505C73646B735C6765636B6F5F73646B5FD4
S113526073756974655C76322E375C706C61746634
S11352706F726D5C656D6C69625C696E635C656DB3
S11352805F636F6D6D6F6E2E68000000633A5C7330
S1135290696C69636F6E6C6162735C73696D706C69
S11352A0696369747973747564696F5C76345C647A
S11352B06576656C6F7065725C73646B735C67654F
S11352C0636B6F5F73646B5F73756974655C76326F
S11352D02E375C706C6174666F726D5C656D6C69A1
S11352E0625C696E635C656D5F636D752E6800005A
S11352F0433A2F53696C69636F6E4C6162732F5329
S1135300696D706C696369747953747564696F2F1E
S113531076342F646576656C6F7065722F73646B79
S1135320732F6765636B6F5F73646B5F7375697409
S1135330652F76322E372F706C6174666F726D2F05
S1135340656D6C69622F7372632F656D5F636D7534
S11353502E630000302000006C1F0000302000008D
S1135360302000007C1F00003020000030200000AE
S1135370941F0000C81F0000FC1F00003020000024
S11353803020000030200000AC1F0000302200005C
S1135390942000003022000030220000DA200000B7
S11353A030220000302200003A2100008C2100004D
S11353B0E0210000302200003022000030220000F2
S11353C016210000E4220000B2220000B8220000EE
S11353D0AC220000E4220000E4220000BE2200000F
S11353E0C8220000D2220000E4220000DE220000D5
S11353F076260000EC24000054250000A0250000BF
S1135400EC250000762600001E2600002826000059
S11354100C290000EA2600009427000094270000CD
S1135420322800000C2900000C2900008C28000000
S11354305027000050270000FC2600000A27000027
S113544018270000262700005027000050270000DE
S11354505027000050270000502700003427000088
S113546042270000E8270000A6270000AC27000020
S1135470BC270000E8270000E8270000CC27000034
S1135480E8270000E8270000E8270000E8270000DC
S1135490E8270000DE270000C0290000B229000030
S11354A09629000088290000A4290000D2290000C0
S11354B02E2E2F656D6C69622F656D5F646D612E94
S11354C063000000633A5C73696C69636F6E6C61BE
S11354D062735C73696D706C6963697479737475F4
S11354E064696F5C76345C646576656C6F70657254
S11354F05C73646B735C6765636B6F5F73646B5F32
S113550073756974655C76322E375C706C61746691
S11355106F726D5C656D6C69625C696E635C656D10
S11355205F6770696F2E6800433A2F53696C696333
S11355306F6E4C6162732F53696D706C696369742B
S11355407953747564696F2F76342F646576656C4E
S11355506F7065722F73646B732F6765636B6F5F16
S113556073646B5F73756974652F76322E372F7091
S11355706C6174666F726D2F656D6C69622F7372E6
S1135580632F656D5F6770696F2E6300433A2F5315
S1135590696C69636F6E4C6162732F53696D706CD3
S11355A0696369747953747564696F2F76342F64F1
S11355B06576656C6F7065722F73646B732F6765A6
S11355C0636B6F5F73646B5F73756974652F763299
S11355D02E372F706C6174666F726D2F656D6C69F8
S11355E0622F7372632F656D5F7072732E63000098
S11355F0433A2F53696C69636F6E4C6162732F5326
S1135600696D706C696369747953747564696F2F1B
S113561076342F646576656C6F7065722F73646B76
S1135620732F6765636B6F5F73646B5F7375697406
S1135630652F76322E372F706C6174666F726D2F02
S1135640656D6C69622F7372632F656D5F7274632D
S11356502E630000433A2F53696C69636F6E4C618B
S113566062732F53696D706C6963697479537475CF
S113567064696F2F76342F646576656C6F7065721C
S11356802F73646B732F6765636B6F5F73646B5FFA
S113569073756974652F76322E372F706C6174665A
S11356A06F726D2F656D6C69622F7372632F656DF8
S11356B05F75736172742E63000000005445535487
S11356C0494E47000A414E540A0000002573000069
S11356D0340000204300504F534958002E0000204E
S11356E0202020202020202028282828282020208E
S11356F0202020202020202020202020202020883E
S113570010101010101010101010101010101004A1
S113571004040404040404040410101010101010F1
S113572041414141414101010101010101010101E5
S113573001010101010101010101101010101010FB
S113574042424242424202020202020202020202B5
S113575002020202020202020202101010102000D1
S11357600000000000000000000000000000000035
S11357700000000000000000000000000000000025
S11357800000000000000000000000000000000015
S11357900000000000000000000000000000000005
S11357A000000000000000000000000000000000F5
S11357B000000000000000000000000000000000E5
S11357C000000000000000000000000000000000D5
S11357D000000000000000000000000000000000C5
S11357E000000000000000000000000000000000B5
S11357F000000000000000000000000000000000A5
S11358000000000000000000000000000000000094
S11358100000000000000000000000000000000084
S11358200000000000000000000000000000000074
S11358300000000000000000000000000000000064
S1135840232D302B2000686C4C0065666745464765
S113585000303132333435363738394142434445E8
S11358604600303132333435363738396162636457
S10B5870656600000000000061
S10B587864A8FF7F0100000099
S113588000366E0100800000809FD50029040000CE
S1135890000000005403002010000000100000006D
S11358A0800400208005002000100000006CDC0251
S11358B034000020000000000058000020580000C0
S11358C0E05700000000000000000000000000009D
S11358D000000000000000000000000000000000C4
S11358E000000000000000000000000000000000B4
S11358F000000000000000000000000000000000A4
S11359000000000000000000000000000000000093
S11359100000000043000000000000000000000040
S11359200000000000000000000000000000000073
S11359300000000043000000000000000000000020
S11359400000000000000000000000000000000053
S11359500000000043000000000000000000000000
S11359600000000000000000000000000000000033
S113597000000000430000000000000000000000E0
S11359800000000000000000000000000000000013
S113599000000000430000000000000000000000C0
S11359A000000000000000000000000000000000F3
S11359B000000000430000000000000000000000A0
S11359C000000000000000000000000000000000D3
S11359D00000000043000000000000000000000080
S11359E000000000000000000000000000000000B3
S11359F000000000E53F0000E13D00000000000061
S1135A00DE560000DC5600004558000045580000F2
S1135A10455800004558000045580000455800000E
S1135A20455800004558000045580000FFFFFFFF9F
S1135A30FFFFFFFFFFFFFFFFFFFF000001004153D7
S1135A40434949000000000000000000000000007D
S1135A5000000000000000000000000000004153AE
S1135A60434949000000000000000000000000005D
S1135A700000000000000000000000000000000022
S1135A8080B500AF30BF04231B68C046BD4680BD4F
S10B5A90BD00000095000000B8
S9030155A6
